:020000040000FA
:0400000019EF00F004
:100008007A82D9CF51F0DACF52F0F3CF53F0F4CF50
:1000180054F031EC0EF054C0F4FF53C0F3FF52C05B
:10002800DAFF51C0D9FF7A921100C6EF0BF0566E75
:1000380056C017F08B9A1A509CEC0FF0010E186EF0
:10004800166A1200556E5550120DF3500A0FA96E1C
:10005800A69EA69CA680A850120076EC0EF0010E73
:10006800AAEC0FF077EC0BF0030E5E6EEBEF0FF0DF
:10007800312E204C4F47494E4552524F52533A5316
:05008800434F52453A10
:10008E00010E1C6E0B509CEC0FF01E509CEC0FF0F2
:10009E001D6A120020EED1F000EE55F0110EDBCFEE
:1000AE00EBFFE806FCE21200556E5550020DF3CF41
:1000BE00A9FFA69EA69CA680A8501200556E050EFE
:1000CE00216E55C01FF000D0246A236A226A1200E6
:1000DE0038509CEC0FF0306A346A336A0A0E316E77
:1000EE000A0C556E070E216E55C01FF0226A1200C3
:1000FE000B0E216E0A0E1F6E226A12000DC055F0F5
:10010E000EC056F0120076EC0EF00E0EAAEF0FF0A7
:10011E0076EC0EF00C0EAAEF0FF030C055F0306AF0
:10012E005550120032C055F0326A55501200246AF2
:10013E00236A0A0E216E0A0C556E55C0ADFF1200D1
:10014E00010E256E010C010E1D6E010CACB2010CE0
:10015E00000C9EBA010C000C180EAAEF0FF03450D2
:10016E00332412003D501200256A12003C6A120020
:10017E0030501200AE5012003C50120022501200AD
:0E018E003A50120018501200325012001200A7
:10020000003020252525312525252541424332254D
:10021000444546332547484934254A4B4C35254DFE
:100220004E3036255051525337545556382557586D
:10023000595A390102032A00230708090405063325
:100240002E2053686F772067656E6572616C20544D
:100250006F7020352073636F7265732000352E2018
:100260004C6F676F75742020202020202000342ED2
:100270002053686F772074696D652020202000313D
:100280002E20506C617920612047616D652020002F
:10029000322E204D6F646966792074696D65202067
:1002A0000000A7EF07F04E505BEC00F0FF0A03E1FF
:1002B000660E4D6E660C4E5078EC00F04D2A120022
:1002C000C5EC00F0E806D8A4120085EC00F04E5012
:1002D000A9EC08F055C0DEFF56C0DDFF4E2A050E22
:1002E0004E60ECD74D0612004F5026EC00F0FF0A8E
:1002F00003E1680E4D6E680C4F5065EC00F0DED7E0
:10030000C5EC00F0E806D8A4120051EC00F0B9ECFE
:1003100008F0D96EDA6A110EEBCFDBFFE806FCE2DB
:100320004F2AE0D731EC00F0000E5D6A7CEC0BF058
:100330004D6A4C6A476A12004C50E30FE7EC08F034
:1003400007EC0EF04C2A080E4C18D8A412004D2AC7
:100350004C6AF4EC08F07CEF0BF0280E4C24D96EBC
:10036000DA6A010EDA22DF5007EC0EF04C2A0B0E8F
:100370004C18D8A412004D2A8FEF00F0BFEC00F00B
:10038000000904E0CBEC00F0476E4C6A470404E03F
:10039000020E4718D8A412004D2A31EC00F0000ECE
:1003A0005D6A7CEC0BF078D04C506C0FE7EC08F0F9
:1003B00007EC0EF04C2A050E4C18D8A412000EECD7
:1003C00009F07CEC0BF04D2A4C6A6FEF00F0BFECAB
:1003D00000F00009D8B4120094EC00F0466EB6ECC0
:1003E00000F016EC09F0F86504D004EC09F07CECA0
:1003F0000BF0230E46180BE0080E4C6008D0465058
:1004000007EC0EF0B9EC08F041D04C2A45D04F5023
:10041000120D8EEC08F0DF6AF4EC08F07CEC0BF0C7
:100420004C6A4CD74C50670FE7EC08F007EC0EF025
:100430004C2A050E4C18D8A41200010E5D6E4C2AF1
:100440004C507CEC0BF04D2A4C6A41509CEC0FF068
:100450006FEF00F0BFEC00F00009D8B4120094EC8C
:1004600000F0466EB6EC00F016EC09F0F86504D02A
:1004700004EC09F07CEC0BF0230E461810E046501B
:1004800007EC0EF04F50120DF350890F4C24D96E2B
:10049000DA6A46C0DFFFB9D741509CEF0FF0BEECDF
:1004A00008F0DF6A4C6A470403E14D2A496A1200EA
:1004B000496A090E4D6E090C49504F1801E119D7D0
:1004C0004F50120D8EEC08F0AFEC08F007E0492A0F
:1004D0004F50491801E10DD74C6A12004F50120DD0
:1004E0008EEC08F0AFEC08F001E003D74F5086EC3B
:1004F00008F096E04C2A1200BEEC08F04950CCEC13
:1005000008F0C6EC08F001E0F4D6BEEC08F0495063
:10051000CCEC08F0C6EC08F0D8A41200BEEC08F051
:10052000DF50E8E131EC00F0000E5D6A7CEC0BF08E
:100530004C6A0A0E4D6E476ACFD749504F1810E0EB
:100540004950120D8EEC08F0B9EC08F0C6EC08F03A
:1005500010E0492A4F504918BFE1020E4F6003D006
:10056000380E4D6E380C4C6A7FEC00F0390E4D6E33
:10057000390C4950120D8EEC08F0B9EC08F0C6ECBD
:1005800008F0D8A412004F5086EC08F001E1B1D673
:10059000B1D7C5EC00F0E806D8A41200340E4D6EB9
:1005A000340C020E4C601CD04C50120DF350920FC4
:1005B000D96EDA6A09EC09F0E16EE26A110EDBCF5E
:1005C000E3FFE806FCE209EC09F0F7EC08F0DBCF0A
:1005D000EBFFE806FCE24CC04FF18EEC0FF06ED65C
:1005E0004F064C6A020E4D26020CC5EC00F0E806E0
:1005F000D8A412004C2A4D061200050E4C6026D0DD
:100600004C509CEC08F0DF5016E1A2EC08F0DF50F3
:1006100012E04050020DF350030FD96EDA6A4C50CD
:10062000020DF350010FE16EE26ADECFE6FFDDCF8F
:10063000E5FF4C0604D04C509CEC08F0DF06A2EC21
:1006400008F0DCEC08F0B8EC0FF038D64E06CAD74C
:10065000C5EC00F0E806CEE01200B9EC08F0F7ECCB
:1006600008F0DBCFEBFFE806FCE24FC04FF18EEC69
:100670000FF04F2A31EC00F0010E476EFCEC08F051
:100680007CEC0BF0030E4D6E030C020E471808E1D4
:10069000406A4C6AF4EC08F07CEC0BF0472A0ED66A
:1006A000E3EC08F0D8EC08F0D0EC08F007EC0EF022
:1006B0004C2A100E4C18D8A412004C6AF4EC08F026
:1006C0007CEC0BF0472A4D2A050E4718D8A41200DF
:1006D0000C0E4D6E0C0C020E471808E1010E406E18
:1006E0005D6E000E7CEC0BF06E0EBBD0E3EC08F000
:1006F000D8EC08F0D0EC08F007EC0EF04C2A100E05
:100700004C18D8A412004D2A41509CEC0FF06FEC0D
:1007100000F0030E4718D8A412004C6A47066E0E6C
:100720004D6E6E0C100E4C6020D0E3EC08F0DA6ACF
:10073000DF504C244B24D0EC08F007EC0EF04C2A90
:100740004B504CC0F8F00001F96BF827000EF9236C
:10075000F9BF000CF95104E11D0EF85DD8A012009C
:100760004BC04AF04C6A4B6A12004B2AB8D1415038
:1007700048EC0FF0EBEC08F01DE34A5004E04A2A85
:100780004AC04BF001D04B2A4C6A405005E1000EA4
:100790005D6A7CEC0BF004D0F4EC08F07CEC0BF020
:1007A0004D061C0E4A1804E16E0E4D6E4C6A4B6AE3
:1007B0004A6A120040508CE1472A8AD7415048ECDF
:1007C0000FF0F50E555C010E565801E288D0BFECD3
:1007D00000F0000948E0CBEC00F0230AD8A4120096
:1007E000470403E14C6A0D0E3CD0020E47180CE1A1
:1007F0006FEC00F01B0E4D6E31EC00F0000E5D6AE8
:100800007CEC0BF04C6A68D6030E471810E1406A86
:10081000496A4C6A4B6A31EC00F0000E5D6A7CEC70
:100820000BF0300E4D6E41509CEC0FF055D6040E7F
:1008300047180AE14C6A2D0E4D6E31EC00F0000EA7
:100840005D6A7CEC0BF048D6050E471801E044D6F3
:1008500031EC00F0000E5D6A7CEC0BF04C6A406AF3
:10086000230E4D6E39D6C3EC00F0530A14E1C7ECE9
:1008700000F0000910E1BDEC00F012EC09F031ECE1
:1008800000F0000E5D6A7CEC0BF0050E4718D8A452
:10089000120047061200C3EC00F0570A13E1C7EC40
:1008A00000F000090FE1BDEC00F012EC09F031ECB2
:1008B00000F0000E5D6A7CEC0BF04704EAE0020EEB
:1008C000475E020C030E471804E0020E4718D8A436
:1008D0001200405001E147066F0E4D6E6F0C030E83
:1008E000471804E0020E4718D8A412004050F3E065
:1008F000F3D7495086EC08F00BE0ADEC00F0E806C9
:10090000D8A41200495086EC08F0A3EC00F0F2D510
:100910004950FCDBA3EC00F083D5C1EC00F04B0A9E
:10092000D8A4120045C043F044C042F031EC00F0BE
:10093000000E5D6A7CEC0BF04D2A010E3D6E4C6A98
:1009400047EF00F0000E4C24D96EDA6A010EDA226D
:10095000DF5007EC0EF04C2A0E0E4C640E0C4D2AA4
:10096000BBD5F4EC08F07CEC0BF041509CEC0FF0A4
:1009700043505BEC0FF03A0E07EC0EF042505BEC8C
:100980000FF0270E4D6E270CC9EC00F00009D8A41B
:1009900012000A0E596E4350EEEC0EF0300F1BECB5
:1009A00000F08CD4C9EC00F00009D8A412000A0EA3
:1009B000556E435035EC0FF0300F1BEC00F07ED439
:1009C000C9EC00F00009D8A412003A0E1BEC00F0AC
:1009D00075D4C9EC00F00009D8A412000A0E596EB3
:1009E0004250EEEC0EF0300F1BEC00F067D4C9EC77
:1009F00000F00009D8A412000A0E556E425035ECE2
:100A00000FF0300F1BEC00F059D4C9EC00F00009D6
:100A1000D8A41200200E1BEC00F0110E4D6E110C2C
:100A2000415048EC0FF0B00E551814E1040E561862
:100A300011E142500AE14306435004E1425002E111
:100A40004D2A04D03B0E426E01D04206CDDB7CEC39
:100A50000BF04D06CBEC00F02A0A01E14D2ABFEC69
:100A600000F00009D8B41200C9EC00F0000902E05F
:100A70006FEF00F099EC00F0DCDBA3EC00F06FEF1F
:100A800000F0ADEC00F0E806D8A41200AAEC00F0EB
:100A9000460EA3EC00F041509CEC0FF00FD4B0ECEC
:100AA00000F0E806D8A41200C1EC00F04A6E4AC07B
:100AB00040F041509CEC0FF001D4415048EC0FF055
:100AC000100E555C0E0E56580CE2B0EC00F0E80625
:100AD000D8A4120031EC00F0C1EC00F0116E4D2AE8
:100AE000DBD449C048F0220E4D6E4C6A31EC00F068
:100AF000C4D1050E4C600DD025DBDF500DE122DBAB
:100B00006FDB1ADB49C0DFFF4E2A1CDB55DBB8EC7C
:100B10000FF0170E4D6E170C15DBDE50405C01E236
:100B2000E9D410DBDF503E6E4C5006DBDF503F6EE9
:100B300009DB56DB01DB48C0DFFF04DBDF5004E0EC
:100B400001DB3ADBB8EC0FF03EC040F03FC048F0AC
:100B50004C2A4E2A050E4E64050C4E6E050CB0EC68
:100B600000F0E806D8A41200C1EC00F0126E4C6A46
:100B700031EC00F0000E5D6A7CEC0BF05EEF01F0F2
:100B80004C50EB0F24DB07EC0EF04C2A070E4C18F0
:100B9000D8A41200140E4D6E4C6A26DB7CEC0BF0D0
:100BA000115007EC0EF0125007EC0EF075D4330E16
:100BB0004C24D96EDA6A010EDA22DF5007EC0EF00F
:100BC0004C2A0A0E4C18D8A412004D2A27DB7CEFC1
:100BD0000BF043505BEC0FF03A0E07EC0EF0425076
:100BE0005BEC0FF001DB7CEC0BF01AD44C50F20FF5
:100BF000EEDA07EC0EF04C2A060E4C18D8A41200C0
:100C00004A506FEC0DF05EEF01F0BFEC00F0000910
:100C1000D8B4120094EC00F0230AD8A41200476A5A
:100C200031EC00F0E9DA7CEC0BF00A0E4D6E0A0CA8
:100C30001C0E4C24D96EDA6A010EDA22DF5007EC62
:100C40000EF04C2A0C0E4C18D8A41200CDDA7CEC15
:100C50000BF099EC00F0466E4C6A456A41509CECF2
:100C60000FF01C0E406E210E4D6E210CBFEC00F0FB
:100C70000009D8B41200415048EC0FF0565004E17E
:100C8000190E555CD8A0120041509CEC0FF099EC65
:100C900000F0CFDA07EC0EF046500A0DF3CF45F026
:100CA0001D0EE0D7CBEC00F00009D8B41200415083
:100CB00048EC0FF0565004E1190E555CD8A0120014
:100CC00041509CEC0FF099EC00F0466E46504526E2
:100CD0004650300F07EC0EF01E0EC4D7CBEC00F0E0
:100CE0000009D8B41200415048EC0FF0565004E10E
:100CF000190E555CD8A012003A0E07EC0EF04150C8
:100D00009CEC0FF099EC00F0466E46500A0DF3CFC4
:100D100044F04650300F07EC0EF01F0EA3D7CBEC7B
:100D200000F00009D8B41200415048EC0FF05650C2
:100D300004E1190E555CD8A0120041509CEC0FF054
:100D400099EC00F0466E465044264650300F07ECB2
:100D50000EF0200E87D781B281A402D081B6120096
:100D600094EC00F0230AD8A4120031EC00F0000E3D
:100D70005D6A7CEC0BF0476A4C6A57D7415048ECEF
:100D80000FF0565004E1190E555CD8A0120081B244
:100D900081A4120081A6120040C04DF04CEF02F079
:100DA000020E40600FD04C50760F11DA07EC0EF0B7
:100DB0004C2A030E4C18D8A41200402A4C6A200E6C
:100DC00007EF0EF041509CEC0FF0C9D549509ED969
:100DD00007EC0EF04C2A495099D902E15EEF01F080
:100DE0001200415048EC0FF0610E555C090E565848
:100DF000D8A012004C6A03DA31EC00F08AEC00F063
:100E0000000E5D6A7CEC0BF0476A4D6A12000F0E13
:100E10004C24D96EDA6A010EDA22DF5007EC0EF0AC
:100E20004C2A0D0E4C18D8A41200A7EC00F04D2A45
:100E300041509CEC0FF06FEF00F0BFEC00F00009A8
:100E4000D8B41200415048EC0FF0C5D9D8A0120018
:100E500094EC00F0230AD8A41200BBEC00F0476A1F
:100E600031EC00F0C9D97CEC0BF0DFD66FEC00F070
:100E70004E5001E1DAD6406A4D2A000E5D6A7CEFE1
:100E80000BF052D943D906E04FD940D907EC0EF008
:100E90007AEF02F03A0E07EC0EF0A6D97CEC0BF0DC
:100EA000405057D9DF506FEC0DF05D6A100E7CECAE
:100EB0000BF0402A40504E1801E051D5406A4FD502
:100EC00033D924D906E030D921D907EC0EF07AEFD6
:100ED00002F03A0E07EC0EF0010E5D6E100E7CEC87
:100EE0000BF0405036D9DF506FEC0DF04D2A4150D9
:100EF0009CEC0FF06CEF02F0415048EC0FF06BD916
:100F000015E3B3EC00F041509CEC0FF04B2A100EAF
:100F10004B18D8A4120031EC00F04C6A310E4D6E23
:100F2000000E5D6A7CEC0BF04B6A1200BFEC00F027
:100F30000009D8B4120094EC00F0230AD8A41200DF
:100F4000476A31EC00F058D97CEC0BF06ED64D506E
:100F50000001F86FF96BF951D8A41200F85102E1C1
:100F60009CEF01F0010A02E1ADEF01F0030A02E19A
:100F7000BEEF01F0010A02E1D4EF01F0070A02E13D
:100F8000E7EF01F0010A02E112EF02F0030A02E1C9
:100F90002AEF02F0010A02E15CEF02F00F0A02E11F
:100FA0007CEF02F0010A02E19DEF02F0030A02E188
:100FB00045EF03F0010A02E16BEF03F0070A02E1DB
:100FC000DEEF03F0010A01E194D4030A01E1A5D4A4
:100FD000010A01E1B7D41F0A01E1C3D4010A01E10A
:100FE0001FD5030A01E14DD5010A01E158D5070AD1
:100FF00001E163D5010A01E1B2D5030A01E1C0D5DF
:10100000010A01E1D4D50F0A01E1E3D5010A01E1AA
:10101000EDD5030A01E1F9D5010A01E109D6070A74
:1010200001E124D6010A01E13DD6030A01E156D6C9
:10103000010A01E174D63F0A01E18DD6010A01E1FE
:101040009DD6030A01E155D5010A01E1A9D6070A97
:1010500001E1BCD6010A01E1C4D6020A01E194D43F
:101060000F0A01E19FD4010A01E1AAD4030A01E1B8
:10107000B0D4010A01E1BBD4070A01E1C6D4010AD8
:1010800001E1C5D6030A01E1D8D61E0A01E1EED678
:10109000010A01E1F6D6030A01E112D7010A01E1D2
:1010A0002BD7070A02E1D1EF02F0010A02E1F5EFC6
:1010B00002F0030A02E1FDEF02F0010A02E128EF6B
:1010C00003F00F0A02E12DEF03F0010A02E1C9EF7C
:1010D00002F05D0A02E153EF01F0010A02E160EF64
:1010E00001F0030A02E174EF01F0010A02E180EF6E
:1010F00001F00F0A02E192EF01F0060A02E192EF1D
:1011000003F0010A02E1B7EF03F01200120DF350F1
:10111000800F4C24D96EDA6ADF501200F350800F32
:101120004C24D96EDA6A12004050020DF350020FBF
:10113000D96EDA6ADF501200020DF350020FD96E39
:10114000DA6A12004C50020DF350010FD96EDA6AC0
:101150001200020DF350010FD96EDA6A12004950E5
:10116000120DF350800F4C24E16EE26ADE50E61857
:1011700012004F50120DF350800F12004F50120DFD
:10118000F350890F4C24D96EDA6A12004C24E16EB8
:10119000E26ADE50E6181200120DF350890F1200B9
:1011A000F86FF8C0F6FF020EF76E0800F550120057
:1011B000DA6ADF504C241200DECF55F0DDCF56F056
:1011C0004CC057F012004750710FD96E1200D96E03
:1011D000DA6ADF501200B10E555C040E5658120048
:1011E00040C0DFFF4C501200010E5D6E000CD96E46
:1011F000DA6A01EE3DF0110C4C6A5D6A000C1E0EBD
:10120000456E446A3D6A12005D6A4C064C50060FFA
:1012100012004C50120DF350800F12005D6A4C2AE0
:101220004C5012000A0E4D6E4C6A12000001F86F0D
:10123000010C466E4650300F1200A6D0C7D8D6D843
:10124000DF50A86EA69EA69CA684F29E550EA76EA1
:10125000AA0EA76EA682F28EA694232AC7D8DF50C4
:1012600005E0242A206A040E216E040C246A010E73
:10127000C2D0ACD8B2D8DF50A86EA69EA69CA684D9
:10128000F29E550EA76EAA0EA76EA682F28EA694A7
:10129000232AA3D8DF5027E0242A010E12D023D01E
:1012A0001FC0A9FF0DC0A8FFA69EA69CA684F29E03
:1012B000550EA76EAA0EA76EA682F28EA694232ABA
:1012C000030E206ED0D71F28A96E0EC0A8FFA69EC1
:1012D000A69CA684F29E550EA76EAA0EA76EA682A5
:1012E000F28EA694232A0A0E216E89D0A6B212008D
:1012F00020C021F012006AD8A69EA69CA680232AB0
:10130000A85006E073D8A8CFDFFF242A050E6AD0C4
:10131000246A060E67D05AD8A69EA69CA6805DD8E1
:10132000A8CFDFFF232A59D8DF50DDE0242A060E9C
:1013300059D01FC0A9FFA69EA69CA680A8CF0DF0DD
:10134000080E50D01F28A96EA69EA69CA680A8CFE6
:101350000EF0C9D7A6B01200CBD7226A12001FC068
:10136000A9FFA868A69EA69CA684F29E550EA76E0D
:10137000AA0EA76EA682F28EA6941F2A1F6002D024
:101380000B0E39D021063BD02150556E566A56506F
:10139000D8A41200555001E151D7010A01E169D7E3
:1013A000030A01E17DD7010A8EE0070A9FE0010AE6
:1013B000A2E0030AB0E0010ABCE00F0AC3E0010AA0
:1013C000C9E0030ACAE0010ACAE012001F50120D68
:1013D000F35023240A0FA96E12002450DA0FD96E9D
:1013E000DA6A1200206E090E216E090C2450D10F0A
:1013F000D96EDA6A1200206E040E216E040C010E02
:10140000226E010C8CD03628030B366E0CD097D888
:101410008C9816D094D88C9A13D091D88C9C10D0DC
:101420008ED88C9E0DD036505C6E5D6A5D5008E1A2
:101430005C50EDE0010AEEE0030AEFE0010AF0E0A3
:10144000385048EC0FF0EBEC08F002E36FEC00F0E2
:1014500081B281A402D081B61200372A38509CEFA5
:101460000FF0385048EC0FF0565004E1190E555C5F
:10147000D8A0120081B281A402D081B60ED081B46E
:1014800002D0356A08D081B202D0010E03D081B6F5
:1014900002D0020E356E372A12003706120032C013
:1014A00031F03650030DF350330F35244DD8F5CFBE
:1014B00032F03150321801E1342A230E321803E0A1
:1014C0002A0E321803E132C030F0E5D7050E556E12
:1014D000345035EC0FF05C6E3ED85C245D6E5DC020
:1014E000F6FF020EF76E0800F5CF30F0250E30182B
:1014F00003E0050E3418CFE1020E336E346A2BD8A8
:10150000342422D8F5CF30F0C6D781B281A412009E
:1015100081A6120038509CEC0FF0376A1200375049
:101520005C6E5D6A5D50D8A412005C5001E16BD71F
:10153000010A97E0030AB3E0010AE7E012008C8891
:101540008C8A8C8C8C8E12005C6E5CC0F6FF020E56
:10155000F76E080012003250050DF350010F120013
:1015600057D0395048EC0FF0565004E1190E555C35
:10157000D8A01200C2B404D0C284020E3B6E02D0C6
:10158000C2943B2AC2821200C2B21200B40EC464DA
:1015900002D0440E0ED0460EC46002D0410E09D0D7
:1015A000010E10D044D0C2B21200B40EC46404D0F4
:1015B000530E3C6E3A6A3BD0460EC46002D0570EC2
:1015C000F8D7020E3A6E33D0530E3C1803E0570E94
:1015D0003C1803E1020E3A1808E0410E3C1803E003
:1015E000440E3C1810E13A040EE1ADEC00F0E806C0
:1015F0000AE1B9EC00F0E80606E1C3EC00F0A3EC68
:1016000000F0BDEC00F039509CEC0FF03B6A12008A
:101610003B505C6E5D6A5D50D8A412005C50A1E046
:10162000010AB2E0030ABFE0010ACEE01200030E95
:101630003B6EC282030C616E1FEC0FF02B6E61C01B
:101640002FF060C02EF02C6A2D6A9490949294949E
:10165000626A636A4CD8640E5E6EEBEC0FF0030EA8
:1016600088EC0CF044D80A0E5E6EEBEC0FF0030E23
:1016700088EC0CF03CD8050E5E6EEBEC0FF0030E20
:1016800088EC0CF034D8050E5E6EEBEC0FF0020E19
:1016900088EC0CF02CD8050E5E6EEBEC0FF0280EEB
:1016A000AAEC0FF076EC0EF0080EAAEC0FF076EC38
:1016B0000EF0010EAAEC0FF01AD8030E5E6EEBECE2
:1016C0000FF076EC0EF0060EAAEC0FF076EC0EF0B2
:1016D0000F0EAAEC0FF0624A632A63BEBBD76350B9
:1016E00005E1020E625CD8B01200B4D712002BC024
:1016F0005CF05D6A5F6A1200646E30D05D5004E099
:10170000616A400E606E02D0606A616A6450602453
:10171000626E000E6120636E2ED064C062F0636A58
:101720005D0402E1400E04D0020E5D1804E12E506B
:101730006226000E0DD0030E5D181DE12E505E6E68
:101740005F6A400E5E26000E5F225E5062265F508A
:10175000632211D064C062F0636A0DD02F505E6EB8
:101760005F6A5F50F7E15E50010AF4E0030AC6E0E9
:10177000060AD3E0EFD776EC0EF062508009AAECAF
:101780000FF05DC02DF064C02CF012002A0EF66E32
:101790001D0EF76E000EF86E01EE00F010EE3DF03B
:1017A0000900F5CFEEFFE550E150FAE1780EF66E54
:1017B000000EF76E000EF86E00EEE3F010EE15F07E
:1017C0000900F5CFEEFFE550E150FAE1EE0EF66EBE
:1017D0001F0EF76E000EF86E00EE67F010EE12F0BE
:1017E0000900F5CFEEFFE550E150FAE100EE80F0A0
:1017F000630EEE6AE806FDE100EE01F04F0EEE6AC0
:10180000E806FDE17A907A92000EF86E0001FFEF93
:101810000CF032D082B8120019509CEC0FF0132A51
:101820001200080E156010D0195048EC0FF05550FA
:101830005610D8B4120082A802D0148E01D0149E83
:10184000D8901432152A08D0ADEC00F0E80603E178
:101850001450A3EC00F0132A19509CEF0FF019500C
:1018600048EC0FF0565004E1180E555CD8A0120059
:10187000146A136A156A120013505C6E5D6A5D503B
:10188000D8A412005C50C6E0010ACBE0030AE7E0EE
:1018900012002FD0050E1B6016D00B5048EC0FF035
:1018A000EBEC08F00DE31B2A0B509CEC0FF0020E42
:1018B0001C02F3501C6E100E1C6402D0010E1C6E34
:1018C0001C5055EF0EF00B509CEC0FF0020E1D6EED
:1018D000020C1B6A8C9612001B6A8C960B5048EC0B
:1018E0000FF0500E551813E1460E5618D8B41D6A65
:1018F00012001D505F6E606A6050D8A412005F50E5
:10190000C9E0010AE6E0030AD8A41200E5D71200F4
:10191000566E959032D88B8456A603D0556A552AB8
:1019200001D0556A8A505518FE0B55188A6E56A478
:1019300003D0556A552A01D0556A554655468C50F4
:101940005518FB0B55188C6E56A203D0556A552AB4
:1019500001D0556A55468C505518FD0B55188C6EA4
:1019600056A003D0556A552A01D0556A8C50551897
:10197000FE0B55188C6E8B94120095929594939053
:101980008B908B928B8412002DD08B8A12001A5070
:1019900048EC0FF055505610D8B412001A509CEC79
:1019A0000FF0080E16600FD017C05CF0010E5C1629
:1019B0005C3A5C468B505C18DF0B5C188B6ED890E1
:1019C0001732162A1200182A8B8A1A509CEF0FF031
:1019D0001A5048EC0FF055505610D8B412008B8AAC
:1019E000186A120018505C6E5D6A5D50D8A412002F
:1019F0005C50CBE0010ACBE0030AEAE012001FECE6
:101A00000FF0796EB4EC0EF008EC0FF0CDEC00F0B6
:101A1000DFEC0FF0D2EC0FF0100E606E020E1BEC3C
:101A20000BF0939C939E7DEC0FF092968996929882
:101A300089989EEC00F0C5EC0FF06CEC0FF079503B
:101A40009CEC0FF031EC00F0000E5D6A7CEC0BF0CA
:101A500051EC01F0B0EC0AF002EC0AF01DEC09F0D8
:101A600049EC0CF009EC0CF0C4EC0CF039EC0DF086
:101A7000EFD727D0295048EC0FF0B00E55182EE1C3
:101A8000040E5618D8A4120029509CEC0FF0282AF6
:101A90003B0E261803E1272A266A1200262A120086
:101AA00025040DE1F4EC08F07CEC0BF027505BEC26
:101AB0000FF03A0E07EC0EF026505BEC0FF0280604
:101AC000120028500001F86FF96BF951D8A41200E8
:101AD000F851D0E0010AD8A41200E2D71200666ED5
:101AE000200E07EC0EF0630E666418D0640E596E7B
:101AF0006650EEEC0EF0300F07EC0EF00A0E596E49
:101B0000640E556E665035EC0FF0EEEC0EF0300FB3
:101B100007EC0EF016D835EC0FF010D0090E666405
:101B20000CD00A0E596E6650EEEC0EF0300F07EC3A
:101B30000EF007D835EC0FF001D06650300F07EFEC
:101B40000EF00A0E556E66501200566E56A603D061
:101B5000556A552A01D0556A8A505518FE0B5518FA
:101B60008A6E56A403D0556A552A01D0556A554647
:101B700055468C505518FB0B55188C6E56A203D049
:101B8000556A552A01D0556A55468C505518FD0B9B
:101B900055188C6E56A003D0556A552A01D0556A47
:101BA0008C505518FE0B55188C6E1200566E56AEA2
:101BB00003D0556A552A01D0556A8A505518FE0B34
:101BC00055188A6E56AC03D0556A552A01D0556A0D
:101BD000554655468C505518FB0B55188C6E56AA19
:101BE00003D0556A552A01D0556A55468C50551870
:101BF000FD0B55188C6E56A803D0556A552A01D096
:101C0000556A8C505518FE0B55188C6E1200656E77
:101C100076EC0EF06550D2EC0EF02C2A030E2F1845
:101C200007E1130E2C64130C2C6A2D2A030E09D025
:101C3000020E2F180AE1270E2C64270C2C6A2D2A7D
:101C4000010E2D6409D02D6A07D02D04D8A41200EE
:101C5000270E2C6401D02C6A2DC05DF02C507CEF37
:101C60000BF01ED8F2940F4A102A300E0F5C750E3E
:101C70001058D8A012002A6A080E2A6401D00DD08C
:101C80002EEC0FF0DE0407E12A50A4EC0FF00F5009
:101C9000DE5E1050DD5A2A2AEFD70F6A106A120052
:101CA000DF0ED76E730ED66E730C5E6E1E5048EC50
:101CB0000FF05E505C6E5D6A55505C5C56505D582E
:101CC000D8B012008CA603D05C6A5C2A01D05C6A92
:101CD0005C5001085D6E5D465D465D468C505D184A
:101CE000F70B5D188C6E1E509CEF0FF0958095825F
:101CF000958493808B908B822B509CEC0FF08B847F
:101D00008B84000E81B0010E5C6E8B948B948B845F
:101D10008B848B948B942B5048EC0FF055505610BD
:101D200001E012005C50EBE1120054494D45205295
:101D3000454D41494E494E473A43555252454E54FE
:101D40002054494D453A4D4F444946592054494D38
:101D5000453A322E20524547495354455254494D35
:071D600045204C4546543AB2
:101D6800D09EF28EF28CF28AF294080ED56E50EC68
:101D78000EF0D58E2A6A080E2A6401D005D02EEC02
:101D88000FF0DF6A2A2AF7D71FEC0FF0296E2950C7
:101D98009CEC0FF0286A276A266A1200576E959005
:101DA8009592959493908B808B928B845750D6EC18
:101DB8000DF00BD85750A5EC0DF000D08B848B9408
:101DC800958095829584938012008B848B948B9454
:101DD8008B8412005A6E5C6A595014E0010E5B6ED7
:101DE80003D0D89059365B2A59AEFBD7D8905C36C9
:101DF80059505A5C03E359505A5E5C80D890593266
:101E08005B2EF4D75C5012009598959A959C959EF8
:101E18009386938493829FEC0AF0376A1FEC0FF045
:101E2800386E38509CEC0FF0346A0A0E316E366A00
:101E3800F19E336A12002A6A05D02A2A090E2A1846
:101E480001E1FF0C07D8DE04F8E004D8010EDF6ECC
:101E58002A5012002A50030DF350B80FD96EDA6ACF
:101E68001200566E080E576E586AD8905634583479
:101E7800586ED89056365550585C02E35550585E07
:101E8800572EF3D758501200596E0FC05AF010C091
:101E98005BF05950A4EC0FF0DECF57F0DDCF58F0CF
:101EA80057505A5C556E58505B58566E1200666E05
:101EB8000A0E596E6650EEEC0EF0300F07EC0EF07D
:101EC8000A0E556E665035EC0FF0300F07EF0EF026
:101ED8001FEC0FF0196E1FEC0FF01A6E19509CECE6
:101EE8000FF01A509CEC0FF0949A9488186A136AB1
:101EF80012001FEC0FF0416E640E4D6EFFEC08F0FF
:101F080041509CEC0FF04F6A4E6A000E65EC00F0F1
:101F1800486A1200216A21EE3DF010EED1F0110E50
:101F2800DBCFE3FFE806FCE24FC11FF06BEF00F0E8
:101F3800556E555005D80FC0DEFF10C0DDFF1200EA
:101F4800030DF350B60FD96EDA6A1200576E9590EA
:101F5800BDEC0CF05750D6EC0DF0E9EC0EF05750F4
:101F6800A5EC0DF0E2EF0EF0236A020E216E55C0CB
:101F78000DF056C00EF05750020DF3CF1FF0226A35
:101F8800120095961FEC0FF00B6E0C6A1FEC0FF009
:101F98001E6E010E1D6E1C6E1B6A1200010EC26EB3
:101FA8000D0EC16E090EC06E92801FEC0FF0396ED7
:101FB80039509CEF0FF0200EAC6E900EAB6EB886C9
:101FC800010EB06E030EAF6E948C948E030C5C50B1
:101FD8009CEC0FF05C5048EC0FF05E50555C5F5085
:101FE8005658F8E31200505357443A555345523A5D
:081FF8007F903F6E5D425945E8
:020000040020DA
:08000000FFFFFFFFFFFFFFFF00
:020000040030CA
:0E000000FF06191EFF8181FF03C003E00340CD
:00000001FF
