:020000040000FA
:1000000019EF00F0376A12007982D9CF56F0DACFB3
:1000100057F0F3CF58F0F4CF59F0DEEC0BF059C0A5
:10002000F4FF58C0F3FF57C0DAFF56C0D9FF7992EA
:1000300011001AEF0BF0A4D3D60E696E1F0E6A6E74
:10004000F9EC06F0E806D8A41200272A55EF0FF0C5
:10005000B80E696E1F0E6A6EF9EC06F0E806D8A4B9
:100060001200272A256A1200320E281803E0310EEA
:10007000281808E1272A2850D10F296E30EC0EF0FD
:1000800050EC0FF0286A1200F70E696E1F0E6A6EB0
:10009000F9EC06F0E806D8A41200272A1200F00EA8
:1000A000696E1F0E6A6EF9EC06F0E806D8A412001D
:1000B000272A000E626E060E43EC0DF002EC00F0F3
:1000C000266A1200070E266402D0230E286E230E25
:1000D0002818D8A41200286A266A255006E1010EC5
:1000E000256E626E060E43EF0DF030EC0EF0060E3C
:1000F000246E5AEC0FF0030E291803E1560E276EFA
:10010000B1D7CB0E276E266A55EC0FF0020E296E82
:10011000A9D74C0E5A6E48EC0CF00009D8B4120066
:1001200072EC0FF0226E220402E1640E276E020EC2
:100130002218D8A4120062EC0FF0570E276E570C4D
:1001400074EC0FF0E806D8A41200640E276EB8D73E
:100150004C0E5A6ED70E5B6E6AEC0CF00009D8B4E8
:10016000120072EC0FF0226E220402E1060EE0D3C0
:10017000020E2218D8A41200640E276E640C080E1A
:10018000266006D09CDBADDBF9EC0EF0262A1200CF
:10019000266A020E291805E1220401E1C6D3276A66
:1001A0001200030E2918D8A412002204F8E0020E4F
:1001B000296EBBD3800E696E1F0E6A6EF9EC06F0D5
:1001C000E80601E16AD712008F0E696E1F0E6A6E93
:1001D000F9EC06F0E806D8A41200070E241801E195
:1001E0005CD70B0E276E0B0C070E241803E0100EC5
:1001F000241809E1230E2818F4E03F0E696E1F0E43
:100200006A6EF9EF06F089DB43EC0DF046D7C30EBA
:10021000696E1F0E6A6EF9EC06F0E806D8A41200AB
:10022000090E241801E139D7000E626E43EC0DF07F
:10023000100E246E2706100C5D0E696E1F0E6A6E7E
:10024000F9EC06F0BDD7230E2818D8A41200286AAE
:1002500030EC0EF0060E241801E11FD7070E24180B
:1002600004E1266A1A0E276E1A0C080E241803E001
:10027000100E241804E1266A280E276E280C090E99
:10028000241803E11D0E276E1D0C0A0E2418F3E03E
:1002900012006F0E696E1F0E6A6EF9EC06F0E8062A
:1002A000D8A41200266AF9D6080E266018D06BEC86
:1002B0000FF00009D8B4120002DBDF505EEC0FF043
:1002C000FEDADF5001E062D7266A68EC0FF0000921
:1002D00003E076EC0FF0276E0E0E276E57D76BEC0F
:1002E0000FF00009D8B41200000E5EEC0FF0266A81
:1002F00068EC0FF0000903E076EC0FF0276E0E0EAD
:10030000276E0E0C68EC0FF00009D8B4120076ECE2
:100310000FF04B0AD8A412008FEC0EF0010E296EDC
:10032000BCD62A0E281803E1286A9CEF0EF028504C
:10033000D8B412006BEC0FF00009D8B412002850AA
:100340005EEC0FF09FD6040E2660ACD7265093ECDF
:100350000BF0706E2650AB0FD96EDA6A70C0DFFFFB
:1003600015D768EC0FF00009D8B4120076EC0FF046
:10037000236E0A0E5A6E2350F7EC0DF0026E0A0E31
:100380005A6E235029EC0DF0016E286A2A5073EC46
:100390000EF083D668EC0FF0000906E02A5073ECEB
:1003A0000EF030EC0EF079D62A501DEC0EF05BBE4C
:1003B0001200B6DAD8A0120030EC0EF0450E276E0F
:1003C000450CCD0E696E1F0E6A6EF9EC06F0F8D67C
:1003D00068EC0FF0000907E076EC0FF076EC0DF01A
:1003E0002A5073EF0EF02A501DEC0EF05BBE120087
:1003F000E80E5A5C030E5B58D8A012008EDA43EC6C
:100400000DF02A501DEC0EF05BBE120089DAD8A068
:1004100012002A5073EC0EF030EC0EF0266ACED7A4
:10042000080E266009D04BDADF505A6E26C05BF00A
:10043000235053EC0EF0AAD6266A150E276E150C23
:10044000AC0E696E1F0E6A6EF9EC06F0E80601E16B
:1004500029D71200040E26600DD02650AB0FE6EC13
:1004600005F076EC0DF0260401E090D63A0E76EC1D
:100470000DF08CD6266A51DA43EC0DF00ED6E80E5C
:10048000696E1F0E6A6EF9EC06F09AD6020E2660AF
:1004900009D72650010FB4EC0BF076EC0DF076D6B0
:1004A000230E2818D8A4120030EC0EF0286A060E8D
:1004B000246E276E060C9E0E696E1F0E6A6EF9EC96
:1004C00006F07ED6230E2818EFE0040E2660040CFA
:1004D0002850D8B41200285076EC0DF026C069F0F0
:1004E0002850EDEC0AF0286A51D639EC0FF026ECD2
:1004F0000FF0FF0A03E12B0E276E2B0C2D0E276E3B
:100500002D0C100E266012D0020E26600AD002ECCE
:100510000CF00001DF6FD8D9EDD9C2D9DFC0DFFF01
:1005200035D6D2D9E7D9BCD9200E29D0266A216A7E
:10053000B4D5100E266025D0080E266014D002EC2B
:100540000CF00001E16FE15108E1215004E1010EDE
:10055000216E3A0E01D0200EE16FB6D9ACD9A0D9E8
:10056000E1C0DFFF13D6215007E1010E216EACD9A7
:10057000A2D996D93A0E03D02050100D6DD0DF6E5F
:1005800005D6266A216A202A1C0E276E1C0CDF0E57
:10059000696E1F0E6A6EF9EC06F012D64C0E696E8B
:1005A0006A6AF9EC06F0E806D8A412002A5073EC47
:1005B0000EF073D52A501DEC0EF05BBE1200600EDB
:1005C0005A5C090E5B58D8A0120030EC0EF06AD6C7
:1005D000080E26600AD073D984D9F9EC0EF026C033
:1005E0005AF0000E01EC0FF0D1D53FEC0FF0266A67
:1005F000D6D5510E266010D0000E2624D96EDA6AA8
:10060000010EDA22DF6A510E2624D96EDA6A010E53
:10061000DA22000EDF6ABAD5266A206A0A0E24188A
:1006200006E1F0EC0EF01F6A310E276E310C080E59
:10063000241804E0100E2418D8A4120065EC0FF062
:10064000A3D7100E26600FD0080E266003D037D92E
:10065000DF5004E11F50510D3BD965D730D91F50F1
:10066000510D36D946D0266A33EC0FF0706E010E6C
:10067000706403D02F0E276E2F0C2C0E276E2C0CBF
:10068000080E26600BD04AEC09F00001E06FE0058F
:10069000D8B4120037D9E0C0DFFF78D5CF0E5A6E3C
:1006A0004C0E5B6E5DEC0DF0216E2150D8B4120043
:1006B000266A210401E11200020E2118D8A41200BA
:1006C000290E276E1F5001081F6E1200100E2660A3
:1006D0001DD0080E266003D015D9DF5005E1FDD8E6
:1006E000EAD8F35014D91FD70DD9F7D8E4D8F3506E
:1006F0000ED9F3507026F450712226507024E16E0A
:10070000000E7120E26EDFCFE7FF40D5266A1F049E
:1007100001E1202A33EC0FF0706E716A2050020D57
:10072000F3CF72F0F4CF73F01F50725E000E735A65
:10073000722A73227050725C7350800A746E71500A
:10074000800A745897E31F5098E0D5D6230E2818D6
:100750000EE018EC0FF0000E696E010E6A6EF9ECF7
:1007600006F0510E696E010E6A6E82EF08F030ECF1
:100770000EF0286A266A9BD6100E2660BCD6D1D60B
:100780002750706E716A7150D8A41200705001E148
:1007900053D4010A01E15CD4030A01E165D4010AE2
:1007A00001E172D4070A01E17AD4010A01E18AD495
:1007B000030A01E1FFD4010A01E106D50F0A01E1B4
:1007C00013D5010A01E123D5030A01E135D5010A58
:1007D00001E139D5070A01E15CD5010A01E164D5DF
:1007E000030A01E18FD5010A01E19BD51F0A01E14E
:1007F000AAD5010A01E1B5D5030A01E1CBD5010A69
:1008000001E1DFD5070A01E1E3D5010A01E118D6CC
:10081000030A01E11FD6010A01E131D60F0A01E105
:1008200035D6010A01E13CD6030A01E144D6010AAA
:1008300001E148D6070A01E158D6010A01E1A7D62D
:10084000030A01E1ABD6010A01E1B4D63F0A01E196
:10085000BFD6080A01E1CDD6010A01E137D7020A65
:1008600001E174D7070A88E0010A01E14AD6030AC8
:1008700001E15FD6010A01E103D71E0A01E1E1D6D9
:10088000740A01E1CDD5130A01E143D4010A01E163
:1008900057D4330A01E173D4AF0A01E159D41200ED
:1008A000F3507026F450712226507024D96E000E39
:1008B0007120DA6E1200706E010E716E12002650F9
:1008C0004C0FD96EDA6A12002050100D000E120083
:1008D000000E706E010E716E12001F50510D000E51
:1008E0001200DF6A2650D70FD96EDA6ADF6A26C097
:1008F0005AF0000C706E010E716E510E7026000ED3
:100900007122000C2650CF0FD96EDA6A12007026C1
:10091000F45071222050100D1200010E626E000C76
:10092000100E5A5C0E0E5B581200030E276E030C5D
:10093000276E296A120009D11C0414E1192A1A6AC7
:100940001D50100DF3507F0B100F1E6E1E5002E154
:10095000100E1E6E900E5A6E1D50F7EC0DF01D6EAF
:10096000126A1200180403E0030E181804E1100EB6
:100970001E6E1A6A38D11B04D8A41200900E1E6E87
:100980001A6A080E196E080C080E1A600FD0A6B26B
:10099000080C1A50A30F1AD942EC0EF01A50A30FEC
:1009A000D96EDA6ADF6A1A2A1E2A000C1A6A192A14
:1009B0001200080E1A600AD0A6B2080C1A509B0F3B
:1009C00005D942EC0EF01A509B0FEAD7A6B21200DE
:1009D0001D2A1EC01AF01E6A1D5042EC0EF01E2A7F
:1009E000640E196E1C6A1200A6B212001A50F00FA3
:1009F00042EC0EF01AC01EF01A6A196AFDD0080EF9
:100A00001A60D4D790EC09F026EC0FF0DF6E1E2AA6
:100A10001A2A1200080E1A6004D0E0D826EC0FF053
:100A2000F5D71A6A176A166AC2D7B70E5A6EC70E7A
:100A30005B6E5DEC0DF00009D8B4120017040CE1F8
:100A4000176A166A180401E1192A030E1818D8A4A7
:100A50001200010E176ECDD0020E1718D8A4120086
:100A60009FD817EC0AF0A9D801E3C3D0176A166A19
:100A7000BAD0AF0E5A6EBF0E5B6E5DEC0DF0000982
:100A8000D8B412001704F1E0020E1718D8A412000F
:100A900087D817EC0AF091D8E8E2E8D7080E1A6078
:100AA0000DD01A50B70F96D81A50AF0F93D890ECBC
:100AB00009F0DF6A93D8000EDF6AAAD71A6A196AAA
:100AC000020E186E020C26EC0FF0FF0A03E1010E75
:100AD000136E8CD0D00E1E6003D0100E1E26100C8C
:100AE000900E1E6E0B0E196E0B0CA6B21200155056
:100AF00042EC0EF01E2A5AD7080E1A6008D0A6B291
:100B0000080C1A50A30F62D842EC0EF080D71A6A74
:100B1000130404E11B6A136A196A1200070E1E26E9
:100B20000C0E196E0C0C26EC0FF0146E1550145CA4
:100B300001E25CD0D00E1E6001D0CFD71B6A196ACB
:100B4000120014C015F0190612001950626E636A83
:100B50006350D8A41200625001E1EED6010A01E10F
:100B600013D7030A01E125D7010A01E148D7070A93
:100B700001E150D7010A01E158D7030A01E179D711
:100B8000010A8CE00F0A9FE0010AAFE0030AB4E01B
:100B9000010AC9E0070AD5E0680A01E125D7120079
:100BA0001D50626E636AF00E1E245A6E5B6AFF0E61
:100BB0005B225D6A100E5C6E100C62505A5C5B50DA
:100BC000800A646E6350800A64581200D96EDA6A33
:100BD000DF501200D96EDA6ADF6A12001A50BF0FB6
:100BE000D96EDA6A1200030E196E030C090E196E23
:100BF000090C070E196E070C010E126E010CB0D015
:100C000081AA81B805D081B603D081A4BBEF0DF0D5
:100C100081AA02D03C6A08D081A802D0010E03D07C
:100C2000020E81A6030E3C6E395073EC0EF03CC0F0
:100C30003BF054C03AF0362A120039501DEC0EF049
:100C40005BBE0DD05B5003E10A0E5A5C08E381AA3B
:100C500081B805D081A681B402D036061200395081
:100C60001DEC0EF05BBE12005B5004E10A0E5A5CF4
:100C7000D8A0120081AA81B804D081B602D081A484
:100C80001200385073EC0EF0D6D781AA81B812004A
:100C900081A681B412003750CEE173D89BD8230AC5
:100CA000CAE06FD89ED88ED876EC0DF0C4D7BBECD6
:100CB0000DF0375007E03B5075D88CD843EC0BF063
:100CC000366A120038501DEC0EF05BBE0BD08CD88B
:100CD00009E33B5067D885D875D843EC0BF0010E7B
:100CE0003D6E366A81AA81B804D081B602D081A453
:100CF000120081AA02D03C6A08D081A802D0010E5D
:100D000003D0020E81A6030E3C6E3C503B1803E15B
:100D100054503A1811E0375006E03B5043D85AD8A7
:100D200043EC0BF006D03B503DD85BD84BD843EC9E
:100D30000BF0010E3D6EC4D724D853D86A22692A1D
:100D400041D808E01ED846D82A0A04E01AD842D86A
:100D5000230A02E13D6A01D03D2A09EC0FF0B0D729
:100D60003650696E6A6A6A50D8A41200695001E16F
:100D700047D7010A01E161D7030A87E0010A97E03A
:100D800012003C50120DF70E696E1E0E6A6EF35083
:100D90006926F4506A225450060DF3506926F45027
:100DA0006A221200120DF70E696E1E0E6A6EF35063
:100DB0006926F4506A223A50060DF3506926F45021
:100DC0006A2212006A2269C0F6FF6AC0F7FF0800B3
:100DD000F550120069C0F6FF6AC0F7FF0800F55031
:100DE00012003D506926000CB00E5A5C040E5B5890
:100DF0001200780407E1786A466A446A456A0D5031
:100E000073EC0EF0EEEC0CF0020E781802E0445099
:100E10000AE169C05AF06AC05BF025EC0CF00009E9
:100E20006CE1466A6AD044504B5C1CE20F0E46648B
:100E300019D00D501DEC0EF05BBE5FD0F4EC06F047
:100E40005CE3452A44C05AF04550F7EC0DF0456E7E
:100E5000466A4AC062F0000E43EC0DF00D5073EC90
:100E60000EF04BD0465045245A6E5B6A5B3644C048
:100E70005CF05D6A53EC0AF069C06BF06AC06CF01C
:100E80005A506B265B506C226BC0F6FF6CC0F7FFAC
:100E9000F86A010EF76403D00800F55001D03CD881
:100EA000486E485003E044504B5C0CE328D8F7648C
:100EB00003D00800F55001D02FD800091BE04450A2
:100EC0004B5C18E31CD8F76403D00800F55001D040
:100ED00023D80A0A0AE144504B5C07E34A50010850
:100EE000626E000E43EC0DF003D0485076EC0DF02E
:100EF000462A03D0010E786E94D7785012004650DF
:100F000069246B6E000E6A206C6E6BC0F6FF6CC0BD
:100F1000F7FFF86A010E1200F6CFE1FFF7CFE2FF0C
:100F2000E750120033042BE135501DEC0EF05BBE90
:100F30001200F4EC06F0D8A01200355073EC0EF05D
:100F4000AEEC0CF08DEC04F043EC0DF00650300FDD
:100F500076EC0DF00550300F76EC0DF03A0E76EC95
:100F60000DF00850300F76EC0DF00750300F76EC96
:100F70000DF03350D8B41200020E336E020C020E84
:100F8000331842E0120070EC0FF00009D8B41200E0
:100F90000650300F11EC0FF0342A120070EC0FF0F5
:100FA0000009D8B412000550300F11EC0FF0F4D73F
:100FB00070EC0FF00009D8B412003A0E11EC0FF0EB
:100FC000EBD770EC0FF00009D8B412000850300FC6
:100FD00011EC0FF0E1D770EC0FF00009D8B412005B
:100FE0000750300F11EC0FF0D7D770EC0FF000095D
:100FF000D8B412000A0E11EC0FF0346A3350D8B492
:101000001200010E336E010C3450696E6A6A6A5028
:10101000D8A412006950B7E0010AC0E0030AC8E092
:10102000010ACFE0070AD7E0010ADFE012005BD037
:101030003250D8A412002F501DEC0EF05BBE1200EF
:101040005B5003E15A04D8A01200312A8B982F502C
:1010500073EF0EF02F501DEC0EF05BBE12005B50D4
:1010600003E15A04D8A012002F5073EC0EF02EC0EA
:1010700061F0010E626E612A02D0D8906236612E54
:10108000FCD76250301403E0636A632A01D0636ABC
:10109000633A8B506318EF0B63188B6E2E2A070E82
:1010A0002E64070C312A070C2F501DEC0EF05BBE8E
:1010B00012005B5003E15A04D8A012002F5073ECC9
:1010C0000EF08B88312A2E6A12002F501DEC0EF084
:1010D0005BBE12005B5003E15A04D8A01200316AD3
:1010E000010E326E010C3150616E626A6250D8A4FA
:1010F000120061509DE0010AADE0030AD5E0010A4B
:10110000E4E01200770407E1776A436A416A426AC1
:101110000B5073EC0EF0EEEC0CF0010E626E4350CF
:1011200043EC0DF0020E771802E041500BE169C06C
:101130005AF06AC05BF08EEC0DF00009D8A41200E2
:10114000436A120041504B5C1BE20F0E436418D0FF
:101150000B501DEC0EF05BBE1200F4EC06F0D8A0B4
:101160001200422A41C05AF04250F7EC0DF0426E94
:10117000436A8DEC04F043EC0DF00B5073EF0EF06E
:10118000435042245A6E5B6A5B3641C05CF05D6A34
:1011900053EC0AF05A506924D96E5B506A20DA6E1B
:1011A000DF50476E475003E041504B5C0BE3435028
:1011B0006924D96E000E6A20DA6EDF5008E04150D3
:1011C0004B5C05E3475076EC0DF0432A1200010E0C
:1011D000776EB6D7A5EC0DF00D6E0E6AA5EC0DF08E
:1011E0000B6E0C6AA5EC0DF00F6E106A66C04BF02A
:1011F000496A4A6A959C959A9598686A45D8640E9A
:10120000636E63EC0EF0030ED9EC09F03DD8060EC8
:10121000636E63EC0EF0030ED9EC09F035D8020EC4
:10122000636E63EC0EF0030ED9EC09F02DD8020EBC
:10123000636E63EC0EF0020ED9EC09F025D8020EB5
:10124000636E63EC0EF0280E81EC0EF0EEEC0CF009
:10125000080E81EC0EF0EEEC0CF0010E81EC0EF0BD
:1012600013D8040E636E63EC0EF0EEEC0CF0060E79
:1012700081EC0EF0EEEC0CF00F0E81EC0EF0682A13
:10128000010E6864BBD7010C0FC061F010C062F0A2
:10129000646A1200030E171803E1020E176E1A6A31
:1012A000180E1E180AE1800E1E6E26EC0FF0FF0AC3
:1012B00012E1010E176E5E6E0ED0080E1A600BD092
:1012C0002FD826EC0FF0DF6E2BD8DF505E6E28D8BB
:1012D000DF6A1E2A1A2A080E1A1813E11A6A180E53
:1012E0001E1808E010D803E15B505D1803E0E80E1B
:1012F0001E2607D008D805E15B505D1802E1010EFB
:10130000176E5E5012001E505A6E5B6A11505C6E72
:101310005D6A180E5C26000E5D225A505C181200A1
:101320001A50C70FD96EDA6A120036D0C2B2120054
:10133000C45003E0030EC41818E10A0E3E1813E16E
:10134000C45008E1C20403E1CEEC0CF00AD0A9ECD1
:101350000EF007D0C20403E18CEC0CF002D0B4EC28
:101360000EF03F2A05D03E2A03D0020E3F6E3E6AA1
:10137000C2821200C2B21200020EC41802E0C404FB
:1013800002E13E6A3F06C2821200C204050ED8A4E2
:10139000010EC26E3F0612003F50686E696A6950C6
:1013A000D8A412006850C2E0010AE4E0030AEDE0AC
:1013B00012005B6E95962FD88C885BA603D05A6A74
:1013C0005A2A01D05A6A5A468C505A18FD0B5A189C
:1013D0008C6E5BA403D05A6A5A2A01D05A6A8C5088
:1013E0005A18FE0B5A188C6E5BA203D05A6A5A2AFE
:1013F00001D05A6A17D8FB0B5A188C6E5BA003D029
:101400005A6A5A2A01D05A6A5A460CD8F70B5A1807
:101410008C6E8C9812009594959295908C9C8C9AD9
:101420008C8812005A465A468C505A1812005F6A2D
:101430005DAE06D05C6C5D1ED8B05D2A010E5F6E9D
:101440005BAE06D05A6C5B1ED8B05B2A010E5F1AE9
:10145000606A616A5C505D101BE0010E5E6E04D034
:10146000D8905C365D365E2A5DAEFAD7D89060368D
:1014700061365C505A5C5D505B5805E35C505A5EC7
:101480005D505B5A6080D8905D325C325E2EEED744
:101490005F5004E0606C611ED8B0612A60C05AF0F1
:1014A00061C05BF012005F6A5BAE06D05A6C5B1ED7
:1014B000D8B05B2A010E5F6E5DAE04D05C6C5D1E21
:1014C000D8B05D2A5C505D1017E0010E5E6E04D04E
:1014D000D8905C365D365E2A5DAEFAD75C505A5CB9
:1014E0005D505B5804E35C505A5E5D505B5AD89087
:1014F0005D325C325E2EF2D75F5004E05A6C5B1EA8
:10150000D8B05B2A5AC05AF05BC05BF012005B6E29
:101510005BA603D05A6A5A2A01D05A6A5A468C509E
:101520005A18FD0B5A188C6E5BA403D05A6A5A2ABB
:1015300001D05A6A8C505A18FE0B5A188C6E5BA256
:1015400003D05A6A5A2A01D05A6A0FD8FB0B5A188C
:101550008C6E5BA003D05A6A5A2A01D05A6A5A4646
:1015600004D8F70B5A188C6E12005A465A468C5003
:101570005A1812005B6E5BAE03D05A6A5A2A01D029
:101580005A6A5A468C505A18FD0B5A188C6E5BAC2E
:1015900003D05A6A5A2A01D05A6A8C505A18FE0B44
:1015A0005A188C6E5BAA03D05A6A5A2A01D05A6A1A
:1015B0000FD8FB0B5A188C6E5BA803D05A6A5A2AB4
:1015C00001D05A6A5A4604D8F70B5A188C6E12008A
:1015D0005A465A468C505A1812006F6E020E6960B5
:1015E0000FD0695003E16A6A6A2A01D06A6A6A50B8
:1015F000750F1AD86904D8A412003A0E76EF0DF0D0
:10160000FE0E6A6E6B6869506C6E6D6A6A506C266D
:101610006B506D226C506D1003E16E6A6E2A01D022
:101620006E6A6E50030F00D0D96EDA6A6F50D00F19
:10163000DF6E1200DC0EF66E1E0EF76E000EF86EF8
:1016400000EE75F010EE04F00900F5CFEEFFE55066
:10165000E150FAE101EE00F0A20EEE6AE806FDE1CB
:1016600000EE80F05F0EEE6AE806FDE100EE01F0AC
:10167000540EEE6AE806FDE179907992000EF86E5C
:1016800000016CEF0BF05C6E5CC028F0050E2718B3
:10169000D8A41200230E2818D8B4120025500DE14A
:1016A0005FEC04F028C0DFFF26C05AF05FEC04F0C6
:1016B000DF50F9EC0EF0262A120009D828C0DFFF0F
:1016C00026C05AF004D8DF5001EC0FF0F4D72650B2
:1016D000D70FD96EDA6A1200C9EC0EF0E3EC0DF008
:1016E000100E666EEAEC08F0CFEC0DF045EC0FF052
:1016F000DDEC0EF0D3EC0EF01FEC0FF0BFEC0EF0B3
:101700000AEC0EF09296898695EC09F0FFEC05F054
:1017100092EC07F017EC08F0B9EC0BF01BEC00F0C2
:101720009BEC04F0F0D75F6E020E5F6009D05F5053
:1017300003E15A6A5A2A01D05A6A5A50050F14D046
:10174000FE0E5A6E5B685F505C6E5D6A5A505C2696
:101750005B505D225C505D1003E15E6A5E2A01D041
:101760005E6A5E50070F00D0D96EDA6ADF50300F24
:1017700012002D04D8A412002BC061F0010E626E7D
:10178000636A612A03D0D89062366336612EFBD734
:101790002C501DEC0EF062505A1663505B165A50D6
:1017A0005B1003E0646A642A01D0646A64326432C4
:1017B0008C5064187F0B64188C6E12001ED8F29443
:1017C000094A0A2A300E095C750E0A58D8A0120080
:1017D000406A080E406401D00DD0B4EC0DF0DE0478
:1017E00007E140507BEC0EF00950DE5E0A50DD5AF6
:1017F000402AEFD7096A0A6A1200DF0ED76E730E0D
:10180000D66E730C26EC0FF05E6E030E171809E10E
:10181000040E176E0A0E5A6E5E5029EC0DF0300F52
:101820001200040E17180AE1020E176E1E2A0A0E85
:101830005A6E5E50F7EC0DF0300F1200020E1718C2
:10184000D8A412001E2A5E501200785002E1020E47
:10185000786E46505A245C6E000E5B205D6E5CC054
:10186000F6FF5DC0F7FFF86A010EF76403D00800C9
:10187000F55002D08CEC07F05E6E5E5006E00A0E6A
:101880005E1803E0442A462A01D0786A7850120094
:10189000080E1A6007D0185005E15A501A240ED8C5
:1018A0001A2A000C175005E0185003E1030E186EB9
:1018B000000C020E181801E10AD0000CD96EDA6A89
:1018C0001A50B70FE16EE26ADFCFE7FF1200186A25
:1018D00017501200080E1A6012D0185010E15A501A
:1018E0001A245EEC0CF05B501A24D96EDA6A1A5096
:1018F000AF0FE16EE26ADFCFE7FF1A2A000C175044
:1019000005E0185003E1010E186E000C020E1818C5
:1019100002E167EF0CF0000C100E241802E1080E33
:10192000246E0B0E271803E0080E271809E1242A5D
:101930000B0E241802E10A0E246E30EC0EF00BD0D0
:101940002904D8A412006BEC0FF00009D8B41200DF
:10195000530E5EEF0FF024C027F0120007501BE17A
:10196000090E076E085015E1050E086E4BEC0FF0DE
:1019700005500DE1090E056E065007E1076A086A79
:10198000056A9CEC0EF0336A12000606120005068A
:1019900012000806120007062DEF0FF0100E241893
:1019A00002E1080E246E0B0E271803E0080E27181C
:1019B0000AE12406050E241802E1060E246E30EC1E
:1019C0000EF0ABEF0CF02904D8A412006BEC0FF072
:1019D0000009D8B41200570E5EEF0FF0958695847B
:1019E000958295808C9C8C8A0F5073EC0EF08C88BD
:1019F0008C88000E83B2010E616E8C988C988C8856
:101A00008C888C988C980F501DEC0EF05A505B10FF
:101A100001E012006150EBE112005C6E9596959426
:101A2000959295908C8C8C9A8C885C50BAEC0AF0CC
:101A30000BD85C5087EC0AF000D08C888C98958687
:101A400095849582958012008C888C988C988C88CF
:101A500012005B6E5D6A5A5014E0010E5C6E03D09A
:101A6000D8905A365C2A5AAEFBD7D8905D365A5079
:101A70005B5C03E35A505B5E5D80D8905A325C2E0B
:101A8000F4D75D501200676E625004E0666A400E43
:101A9000656E02D0656A666A67506524636E000EE3
:101AA0006620646EEEEC0CF06350800981EC0EF061
:101AB00062C04AF067C049F01200175002E0176A8E
:101AC000166A5B501624D96EDA6A5A501624E16EF3
:101AD000E26ADE50E61806E1162A080E161804E13E
:101AE000010E01D0020E176E17501200686EEEEC58
:101AF0000CF068500DEC0DF0492A270E4964EEEF0A
:101B00000CF0496A4A2A010E4A6401D04A6A4AC066
:101B100062F0495043EC0DF0EEEF0CF0775002E12B
:101B2000020E776E43505A24D96E000E5B20DA6E97
:101B3000DF505C6E5C5006E00A0E5C1803E0412A40
:101B4000432A01D0776A77501200406A05D0402AB4
:101B5000090E401801E1FF0C07D8DE04F8E004D8B4
:101B6000010EDF6E405012004050030DF350820F03
:101B7000D96EDA6A1200542A020E546401D0546AF3
:101B800054C05AF0040E5B6E5C6A5A2A03D05C346F
:101B90005C325B325A2EFBD75B508D6E1200010E09
:101BA0003D6E3B6A3C6A3A6A546AA5EC0DF0396EA8
:101BB000A5EC0DF0386E080E966E938A9388938686
:101BC00093845BEF0FF0D09EF28EF28CF28AF29447
:101BD000080ED56EFDEC0BF0D58E406A080E406401
:101BE00001D0080CB4EC0DF0DF6A402AF7D75B6E29
:101BF000080E5C6E5D6AD8905B345D345D6ED89083
:101C00005B365A505D5C02E35A505D5E5C2EF3D742
:101C10005D501200010E176E166A1E6A26EC0FF058
:101C20001D6E1D2801E11D6A1C6A1D50100DF35028
:101C3000100F1E6E186AFCEF05F05E6E09C05FF0B3
:101C40000AC060F05E507BEC0EF0DECF5CF0DDCFC2
:101C50005DF05C505F5C5A6E5D5060585B6E1200C8
:101C6000EEEC0CF0010E81EC0EF0010E786E776E4A
:101C700044EC09F0040E636E63EC0EF0000E626E2D
:101C800043EF0DF05A6E1EC0A9FF5AC0A8FFA69ED2
:101C9000A69CA684F29E550EA76EAA0EA76EA682DB
:101CA000F28EA694AA0C5C6E5CC015F05B50A30F7C
:101CB000D96EDA6A5AC0DFFF070E5B18D8A412008B
:101CC000010E1B6E010C615073EC0EF061501DECA7
:101CD0000EF063505A5C5B50800A656E6450800A57
:101CE0006558F4E312005A6E5A5005D809C0DEFF59
:101CF0000AC0DDFF1200030DF350800FD96EDA6ABF
:101D000012005C6E95960BEC0AF05C50BAEC0AF08F
:101D100024EC0DF05C5087EC0AF01DEF0DF003C0D1
:101D200007F004C008F075C005F076C006F0010E9B
:101D3000336E355073EF0EF0460E5EEC0FF078EC1C
:101D40000FF030EC0EF0060E246E266A100E98EF9F
:101D500004F02904D8A412006BEC0FF00009D8B4E9
:101D60001200440E5EEF0FF02904D8A412006BECB1
:101D70000FF00009D8B41200410E5EEF0FF0A5EC91
:101D80000DF02A6E296A300E286E276A266A226AAA
:101D900012003F6A010EC26E0C0EC16E890EC06E3B
:101DA00092803E6A120094982E6A316A010E326E59
:101DB0008B88A5EC0DF02F6E1200948C948E200E63
:101DC000AC6E900EAB6EB896400EAF6E400C2B6AA8
:101DD000020E2D1802E0010E2D6E2C5073EF0EF046
:101DE000010E1E6E26EC0FF0116E11C01EF03CEFBE
:101DF0000FF05B6E5A50A30FD96EDA6A5BC0DFFF3B
:101E000012005B6E5A509B0FD96EDA6A5BC0DFFF1F
:101E100012004AC062F04906495043EC0DF0EEEF63
:101E20000CF05B6E5BC030F0326A2F5073EF0EF037
:101E3000EEEC0CF0000E626E465043EF0DF0959EF6
:101E4000020E2D6EA5EC0DF02C6E12001EC0A9FF27
:101E5000A69CA69EA680A8501200030E2B6401D05B
:101E60002D6A2B2A1200080E1D6401D0080C1D508B
:101E70001200070E1E2600D0030E176E030C036A15
:101E8000046A756A030E766E030C346AA5EC0DF0D5
:101E9000356E336A12002904D8B4E7EC0EF0120054
:101EA000EEEC0CF00E0E81EF0EF0EEEC0CF00C0EE2
:101EB00081EF0EF000D0010E376E010C5A6E5AC041
:101EC000ADFF1200010E1C6E010C890E1E6E890CF6
:101ED0009EBA010C000CACB2010C000C0003010115
:101EE000325012001750120012501200AE50120061
:041EF000336A12003F
:101EF60000313100000000324142430000334445C6
:101F0600460000344748490000354A4B4C0000362D
:101F16004D4E4F000037505152530038545556001D
:101F260000395758595A002A000000000030200096
:101F3600000000232300000000332E53484F572093
:101F460047454E4552414C20544F5020352053436F
:101F56004F524553200A00372E53484F5720414CC5
:101F66004C2055534552530A0054494D452052457D
:101F76004D41494E494E473A0A00312E504C41597F
:101F860020412047414D450A00322E4D4F444946D7
:101F9600592054494D450A004D4F4449465920544D
:101FA600494D453A0A0054494D45204C4546543A58
:101FB6002000322E524547495354455200342E4C88
:101FC6004F474F55540A004552524F52533A0A0052
:101FD600312E4C4F47494E0A004259452042594539
:101FE600200053434F52453A2000505357443A0A73
:091FF60000555345523A0A00005F
:020000040020DA
:08000000FFFFFFFFFFFFFFFF00
:020000040030CA
:0E000000FF061F1EFF8181FF03C003E00340C7
:00000001FF
