:020000040000FA
:0400000019EF00F004
:100008007782D9CF4DF0DACF4EF0F3CF4FF0F4CF5F
:1000180050F0CCEC0DF050C0F4FF4FC0F3FF4EC0D1
:10002800DAFF4DC0D9FF779211001CEF0CF0EEEC0F
:100038000DF0010EBFEC0FF0F6EC0AF0030E5A6E4D
:1000480082EF0FF0126A000E596E0B0E8FEC0EF055
:10005800140E136E140C4552524F52533A20000E90
:100068000E1C090C1E1E3B0E161803E1166A152AF3
:100078001200162A1200020EACEC08F08FEC0EF0FB
:10008800145092EF0FF0516EA69EA69C51C0A9FF86
:10009800A680A8501200949677EC0EF03D6E77EC8F
:1000A8000EF03C6E12003D5092EC0FF03A6A010ED1
:1000B8003E6E010C382A27EC07F08FEC0EF0376AF9
:1000C800120077EC0EF0146E166A156A126A1200A6
:1000D80077EC0EF0396E356A326A346A12002250B3
:1000E800010ED8A4000E226E120018C017F076C0B8
:1000F80075F012001BEC00F0386A376A1200140E13
:10010800136E190E126E190C1E0EACEC08F08FEF60
:100118000EF0EEEC0DF00E0EBFEF0FF0EEEC0DF062
:100128000C0EBFEF0FF081A0000C81A2010C020C95
:100138002650D8B4010C000C1350D8B4010C000C94
:10014800320E1F6E1D6A120072EC0FF056EF0DF0A2
:10015800516E51C02BF012001F50D8B4010C000C86
:10016800516E51C0ADFF12009EBA010C000C180E62
:10017800BFEF0FF0ACB2010C000C136A1200206A3A
:100188001200202A120043501200AE5012002D50C7
:0E0198001200305012001D50120021501200B3
:10020000003132333435363738392A3023312E50E5
:100210004C415920412047414D450000000000005D
:10022000000000000000000000322E4D4F444946FF
:10023000592054494D450000000000000000000016
:100240000000000000332E53484F572047454E45CD
:1002500052414C20544F5020352053434F52455368
:1002600020342E4C4F474F55540000000000000032
:1002700000000000000000000000000000352E53C8
:10028000484F572054494D45000000000000000031
:1002900000000000000000000031000000000041EC
:1002A0004243320000444546330000474849340089
:1002B000004A4B4C3500004D4E4F36000050515215
:1002C0005337005455563800005758595A390000D2
:1002D000EBD23450EC0FD96EDA6ADF6A3450F50F86
:1002E000D96EDA6ADF6A342A090E3418D8A41200EB
:1002F000010E316E7EEC00F0346A1200325006E0DE
:10030000030E316E010E356E326A120038500B0D3D
:10031000F3509F0F5F6E0BEC0FF0020E3818D8A44D
:10032000120092EC00F0000E1DEC0FF0020E316E88
:10033000020CE6EC0FF00009D8B4120072EC0FF0DA
:10034000D00F356E350404E0020E3518D8A4120023
:100350007EEC00F0030E316E030C3850060DF350A6
:10036000E00F5F6E0BEC0FF0020E3818D8A41200ED
:10037000386A1CDB8FEC0EF08DEC00F0040E316E51
:10038000346A34D00B0E37640AD03950F8EC0EF0D2
:1003900052BE05D0F8DA03E3050E316E050CE6EC2B
:1003A0000FF00009D8B41200395092EC0FF0C7ECEE
:1003B00000F0020A04E100DB8FEC0EF0370672EC6D
:1003C0000FF0230A11E0EDDAA8EC00F0DF6E3750F1
:1003D000E80FDEDABCEC0EF0372AC7EC00F0E806D6
:1003E000D8A41200342A1200050E316E010E1DEF42
:1003F0000FF0D7DA000EDF6E010E386ED7DA8FEC11
:100400000EF0060E316E78D7E6EC0FF00009D8B486
:100410001200C7EC00F0020A04E1CEDA8FEC0EF015
:10042000370672EC0FF0230A0FE0B6DAA8EC00F002
:10043000DF6E3750F10FACDABCEC0EF0372AC7ECA8
:1004400000F0E806CFE01200A7DADF6A346A070E90
:10045000316E070C350405E1EC0E5E6E52EC0FF0C8
:1004600004D0EC0E516ECDEC0FF0080E316E080C7E
:10047000B0EC00F00009D8B41200316A000E1DEC97
:100480000FF0346A35040BE17EEC00F0CFEC00F0A5
:10049000000902E07EEF00F0356A090E28D1CFECAA
:1004A00000F0030A02E07EEF00F0010E326E7EEFF4
:1004B00000F04BEC0BF0020E38180FE0355038C04E
:1004C00061F0626A6126000E622262BE000C625018
:1004D00004E1050E615CD8A0120092EC00F00A0E57
:1004E000316E0A0CCBEC00F00009D8A412000B0E00
:1004F000B4D0395092EF0FF0040E356015D035505E
:1005000013E03950F8EC0EF052BE0FD03CDA0DE398
:10051000362A72C051F03650E5EC0EF0366E090EF8
:10052000316E7EEC00F001D0366ACBEC00F00009B1
:1005300011E0CDEC00F0530A05E1040E356002D065
:10054000352AABD7CDEC00F0570AA7E13550A5E02E
:100550003506A3D7E6EC0FF00009D8B4120072EC10
:100560000FF0230AD8A412007EEC00F03528140DF9
:10057000F3CF31F0C3EC00F0355002E10C0E316ED8
:10058000366A1200BEEC00F00009D8B412003550F3
:10059000EC0FFED9B4EC00F03550C7EC0DF003E1E0
:1005A0000D0E316E0D0C352A1200B8EC00F000096A
:1005B000D8B41200C9EC00F0356E4B0E3518D8A433
:1005C00012000E0E316E010EACEC00F07EEC00F06D
:1005D00073EC00F057EF00F0B50E5F6E0BEC0FF010
:1005E0003804D8A4120092EC00F079EC00F03FEC53
:1005F00000F00F0E316E0F0CA0EC00F0000906E0C9
:10060000000EACEC00F0110E316E110CE6EC0FF0A8
:10061000000914E072EC0FF0356E2A0E351803E075
:10062000230E351808E12A0E3518D8A41200000E42
:10063000ACEC00F0E8D7100E316E100CB8EC00F006
:100640000009D8B41200C9EC00F0336E73EC00F06E
:10065000C1EC00F0FDEC0FF02BD0316E4AD7BEECB0
:1006600000F00009D8B412003550B4EC00F0C1D746
:10067000BEEC00F00009D8B41200460EB4EC00F055
:1006800073EC00F0C1EC00F0FDEC0FF0120E316ED7
:10069000120CB8EC00F00009D8B41200C9EC00F05C
:1006A000336E06D029EC0EF0020E3818D8A41200D2
:1006B000140ED3D73950F8EC0EF052BE04D080D9C6
:1006C00002E3160E14D0B8EC00F00009D8B4120002
:1006D000C9EC00F0356E150E316E150CB8EC00F05B
:1006E0000009D8B41200C9EC00F0366E130E316E5A
:1006F0007EEF00F0D1EC0EF0020E3818D8A41200F4
:10070000010E596E070E8FEC0EF00A0E516E33502B
:100710005DEC0EF0300FBCEC0EF00A0E516E335053
:10072000E5EC0EF0300FBCEC0EF026EC00F0170EEE
:10073000316E170CE6EC0FF00009D8B4120072EC21
:100740000FF0230AD8A41200335043EC0EF079ECDA
:1007500000F0180E316E180CB0EC00F00009D8B49F
:100760001200090E316E7EEC00F0366A356A120016
:10077000D30E5F6E0BEC0FF03804D8A4120083EC9C
:1007800000F0290E316E290CE6EC0FF00009D8B408
:10079000120072EC0FF02A0A07E17EEC00F079EC0F
:1007A00000F013D9356A120072EC0FF0230A01E051
:1007B000FAD6030E3564030C7EEC00F0F2D7D1ECD0
:1007C00000F0000903E1090E316E090CA4EC00F001
:1007D0003D0E316ED1EC00F0E806D8A41200020EF6
:1007E0003126020CB0EC00F00009D8B412003E0E25
:1007F00034D73F0E316E3950F8EC0EF052BE120075
:10080000C2D8D8A01200BBEC00F0362A100E361861
:1008100001E06FD67EEC00F0366A3C0E316EC5EC1E
:1008200000F067D6D1EC00F0616E010E616402D079
:100830003E0E316EE6EC0FF00009D8B4120072ECF7
:100840000FF0230AB9E01200A8EC0DF03804D8A488
:100850001200510E02D73950F8EC0EF052BE1200C1
:10086000AFD8D8A01200316A7EEC00F0366A9AD771
:10087000C50E5F6E0BEC0FF03804D8A4120088ECA4
:1008800000F0650E316E650CE6EC0FF00009D8B48F
:10089000120072EC0FF0230AD8A412007EEC00F0D4
:1008A00094D8C1EC00F07ED73150616E626A62501C
:1008B000D8A41200615001E10CD5010A01E11ED556
:1008C000030A01E136D5010A01E147D5070A01E132
:1008D00059D5010A01E18DD5030A01E195D5010A37
:1008E00001E1B8D50F0A01E1C3D5010A01E1E1D563
:1008F000030A01E1F7D5010A01E1FED5070A01E18A
:1009000041D6010A01E151D6030A01E165D6010A87
:1009100001E172D61F0A01E1A2D6010A01E1A8D6BF
:10092000030A01E1B6D6010A01E1BCD6070A01E1DA
:10093000C1D6010A01E1D2D6030A01E1DBD6010AE0
:1009400001E1F8D60F0A01E107D7300A01E110D71B
:10095000010A01E119D7150A01E131D7010A01E1C4
:1009600041D7030A01E145D7010A01E15BD76F0ACC
:1009700001E16AD7010A01E16ED7350A01E178D7B2
:10098000010A82E01200B00E515C040E52581200AF
:10099000D96EDA6ADF5012003750F10FD96EDA6A79
:1009A00012003750E80FD96EDA6A1200050E376E62
:1009B00038C059F03750120038C059F03750120083
:1009C000100E515C0E0E52581200366A090E316E2E
:1009D000090CB4D1020E1D6E080E1E1803E0020EA3
:1009E0001F6E020C010E1D6E19C01FF0206A12004E
:1009F00020DA1E50120D000E606E010E616EF35073
:100A00006026F450612220506024E16E000E6120C7
:100A1000E26EDE50E61809E10CDADF5004E11AC09C
:100A20001FF0206A1200202A1200206A1E2A010EDE
:100A30001F6E010CE4D91E50120D000E626E010EE5
:100A4000636E090E6226000E6322F3506226F45094
:100A5000632220506224E16E000E6320E26EDE50BD
:100A6000E61806E1CCD9DF50DEE11F6A1D6A1200EC
:100A7000010E1D6E1F6A1200DCD9E2D941EC0FF0A5
:100A8000D8D91C50120D000E5F6E010E606EF3502F
:100A90005F26F450602220505F24E16E000E60203B
:100AA000E26EDFCFE7FF070E206003D0202A0A0E98
:100AB00002D0206A0C0E1A6E0B0E1F6E0B0CA6B223
:100AC00012001AC01FF012009AD91C50120D000E0D
:100AD000616E010E626E090E6126000E6222F350F5
:100AE0006126F450622220506124E16E000E6220E3
:100AF000E26EDFCFE7FF83D9A3D9080F41EC0FF0F7
:100B0000070E206002D0202AD5D7206A0E0ED3D738
:100B10002150205C03E3100E1F6E68D72050020D99
:100B200069D91C50DE1801E07ED72050020D62D931
:100B3000DF68205071D9DF6821060F0E1F6E0F0C81
:100B40002150205C18E22050020DF350040FD96EA2
:100B5000DA6A2050020DF350020FE16EE26ADFCF35
:100B6000E7FF2050020DF350030FD96EDA6A5AD90D
:100B7000DFCFE7FF58D7206A0E0E1F6E0E0C050E52
:100B800020600AD0205048D9DF50516E2050900F7D
:100B900041EC0FF0110E8FD7120E1F6E120C205069
:100BA000020D28D9DF50516E2050A00F41EC0FF0FC
:100BB000100E1A6E0B0E1F6E36D74CD941EC0FF08B
:100BC000130E79D71C28070B1C6E1CC051F0FF0EAA
:100BD00041EC0FF01A6A030E1D6E6ED7050E2160F0
:100BE00008D021C01DF0212A35D941EC0FF0150E97
:100BF00062D7050E201809E11D500ED91B50DE5C8E
:100C000001E338D7150E1F6E150C1D5005D90AD9F2
:100C1000DE50E65C01E307D720C01DF004D71D506D
:100C2000FBD81BC0DFFF1D50020DE4D81EC0DFFF44
:100C3000160E1F6E160C1BC051F01D50900F41EC8C
:100C40000FF0170E38D71EC051F01D50A00F41EC09
:100C50000FF01A6A31D72050B6D806E02050B3D82A
:100C6000BCEC0EF01D2A12003A0EBCEC0EF0330E56
:100C70001F6EEDD88FEC0EF01D6A12000A0E516E39
:100C80002050CAD8DF505DEC0EF0300FBCEC0EF0F7
:100C90000A0E516E2050C0D8DF50E5EC0EF0300F38
:100CA000BCEC0EF0000E596E100E8FEC0EF02150C1
:100CB000201801E1206A340E1F6E340C21505F6E43
:100CC000606A2050616E626A612A000E62225F5083
:100CD000611803E16050621806E02028656E666ABC
:100CE000000E662202D0656A666A65C01AF01A5064
:100CF0006AD805E01A5067D8BCEC0EF0B3D73A0EAC
:100D0000BCEC0EF0350E1F6E010E596E100E8FEFFB
:100D10000EF00A0E516E1A507FD8DF505DEC0EF0C7
:100D2000300FBCEC0EF00A0E516E1A5075D8DF5021
:100D3000E5EC0EF0300FBCEC0EF09CD61F505F6E51
:100D4000606A6050D8A412005F50D8B41200010A43
:100D500001E140D6030A01E14BD6010A01E16AD65E
:100D6000090A01E189D6010A01E1A9D6070A01E1D0
:100D7000ABD6020A01E1CCD6010A01E1E1D61F0A95
:100D800001E1FDD6010A01E10AD7030A01E115D705
:100D9000010A01E117D7070A01E120D7010A01E1A1
:100DA0003ED7030A01E147D7010A01E14CD7250AE2
:100DB00001E151D7010A01E161D7070A01E17ED7BC
:100DC000010AA7E01200020DF350020FD96EDA6A91
:100DD000DF50120D000E5F6E010E606EF3505F2645
:100DE000F45060221D505F24D96E000E6020DA6E30
:100DF000DF501200F350020FD96EDA6A1200205051
:100E00000B245F6E000E0C20606E090E5F24D96EFD
:100E1000000E6020DA6E1200020DF350010FD96E41
:100E2000DA6A12002050020DF350010FE16EE26AFF
:100E3000120020500B24D96E000E0C20DA6E120026
:100E4000DF50516E1C50100DF35020241200010E83
:100E5000596E000C21C051F0FE0C34D112C013F0B9
:100E60001450F8EC0EF052BE1200C3EC04F0D8A0FF
:100E70001200145092EC0FF037EF00F01450F8EC21
:100E80000EF052BE1200C3EC04F0D8A012001450B1
:100E900092EC0FF0020E60D98FEC0EF0DAEC0FF04E
:100EA00037EF00F062D95DEC0EF0116EA2EF0FF09B
:100EB00064D9E5EC0EF0F9D70A0EF7D762D95DECEC
:100EC0000EF0F3D756D9E5EC0EF0EFD79CEC00F01E
:100ED0000009D8B41200200EF2EC0FF0010E136ED0
:100EE000010C43D95DEC0EF0300FBCEC0EF0150E8A
:100EF000136E150C42D9E5EC0EF0300FBCEC0EF081
:100F0000160E136E160C3A0EBCEC0EF0170E136E86
:100F1000170C37D95DEC0EF0300FBCEC0EF0180E4C
:100F2000136E180C26D9E5EC0EF0300FBCEC0EF069
:100F300027EC07F08FEC0EF0136A125002E08DECF4
:100F400000F0136AE6EC0FF00009D8B4120072EC5E
:100F50000FF02A0AD8B4120072EC0FF0230AD8B4AA
:100F6000120072EC0FF0D00F756E72EC0FF0BCEC4B
:100F70000EF0122A1200136AE6EC0FF00009D8B442
:100F8000120072EC0FF02A0AD8B4120072EC0FF0C3
:100F9000230AD8B4120072EC0FF05F6E7550E0D8DF
:100FA000756E72EC0FF0BCEC0EF03A0EBCEC0EF06D
:100FB000E0D7136AE6EC0FF00009D8B4120072EC27
:100FC0000FF02A0AD8B4120072EC0FF0230AD8B43A
:100FD000120072EC0FF0D00F176E72EC0FF0BCEC39
:100FE0000EF0C7D7136AE6EC0FF00009D8B4120070
:100FF00072EC0FF02A0AD8B4120072EC0FF0230A38
:10100000D8B4120072EC0FF05F6E1750A9D8176EAB
:1010100072EC0FF0BCEC0EF0ACD7136AE6EC0FF0FC
:101020000009D8B4120072EC0FF0230AD8A4120001
:1010300017C018F075C076F0126A12000A0E516ED1
:1010400015505DEC0EF0300FBCEC0EF01F0E136E61
:101050001F0C0A0E516E1550E5EC0EF0300FBCEC73
:101060000EF0200E136E200C3A0EBCEC0EF0210E8A
:10107000136E210C0A0E516E16505DEC0EF0300FFF
:10108000BCEC0EF0220E136E220C0A0E516E16509E
:10109000E5EC0EF0300FBCEC0EF0230E136E230CBB
:1010A0001450F8EC0EF052BE1200C3EC04F0D8A0BD
:1010B0001200145092EC0FF037EC00F01E0E4CD8DA
:1010C0008FEF0EF013505F6E606A6050D8A412006C
:1010D0005F5001E1C3D6010A01E1D0D6030A01E164
:1010E000E1D6010A01E1E4D6070A01E1E5D6010AE9
:1010F00001E1E4D6030A01E1E5D6010A01E1E6D601
:10110000130A01E1EED6010A01E1F4D6030A01E176
:10111000FAD6010A01E1FDD60F0A01E103D7010A5F
:1011200001E10FD7030A01E126D7010A01E141D706
:10113000070A01E157D7010A01E16FD7030A01E16C
:101140007DD7010A86E03F0A8FE0010A93E0030A97
:101150009CE0010AA5E01200136E010E596E000C0E
:101160000A0DF3505F24D00F12000A0E516E755015
:1011700012000A0E516E175012000A0E516E755071
:1011800012000A0E516E1750120038D082BA86D063
:10119000295092EC0FF0286A276A010E18D02950C6
:1011A000F8EC0EF052BE7AD0525002E1510476E3D0
:1011B00082AA02D0288E01D0289ED89028322950A9
:1011C00092EC0FF0272A080E271868E1020E2A6E0B
:1011D00065D02950F8EC0EF052BE60D0525003E1B9
:1011E000180E515C5BE3225007E0BEEC00F00009F2
:1011F00003E02850B4EC00F02A6A50D02A50586E10
:10120000596A59504BE15850C1E0010AC8E0030A3D
:10121000E0E044D08B88236A12002550F8EC0EF0F1
:1012200052BE1200525003E15104D8A01200262AE7
:101230008B98255092EF0FF02550F8EC0EF052BE2F
:101240001200525003E15104D8A01200070E23648B
:1012500002D0262A070C255092EC0FF023C058F03C
:10126000010E596E582A02D0D8905936582EFCD704
:101270005950241403E05A6A5A2A01D05A6A5A3A39
:101280008B505A18EF0B5A188B6E232A12002550D8
:1012900092EC0FF08B88266A236A12002650586E53
:1012A000596A5950D8A412005850B4E0010AB5E068
:1012B000030AC2E0010AEBE0120070D081B081A203
:1012C0000AD081A408D08A968A888A8A8A8C010EDC
:1012D000426E4A6A1200040E426E040C81B081A272
:1012E000FAD781A4F8D78A868A988A8A8A8C020ECD
:1012F000426E010E4A6E010C81B081A2ECD781A42E
:10130000EAD78A868A888A9A8A8C030E426E020EEF
:101310004A6E020C81B081A2DED781A4DCD78A8616
:101320008A888A8A8A9C030E4A6E426A1200050ED7
:10133000426E495092EF0FF04950F8EC0EF052BE59
:101340001200525004E1190E515CD8A0120081B075
:1013500081A202D081B4E9D7010E456E36D081B0AA
:1013600081A2120081A41200495092EC0FF0070EE6
:10137000426E070C4950F8EC0EF052BE120052506B
:1013800004E1190E515CD8A0120081B081A21DD0D9
:1013900081A41BD0456A426A120017D04250586E91
:1013A000596A5950D8A41200585088E0010A96E0B2
:1013B000030AA2E0010AAEE0070AB9E0010ABCE0B4
:1013C000030ACDE0010AD6E01200060E426E060CBA
:1013D0004BD0C2B21200C4CF2EF0C284C296010E0E
:1013E0002C6EC282010CC2B21200C4CF2FF0C29484
:1013F000C286020E2C6E020C040E2C6E2D500EE0D6
:10140000630E2F64630C970E2F60970C630E2E648F
:10141000630C970E2E60970C2D6A12000B0E2F6036
:1014200008D0410E306E010E2D6E2B50040F2C6E25
:101430001200EF0E2F6402D0440EF4D70B0E2E6074
:1014400002D0530EEFD7EF0E2E64EF0C570EEAD7F3
:101450001BD0BEEC00F00009D8B412003050B4EC40
:1014600000F012D02C6A12002C50526E536A535066
:10147000F9E15250AEE0010AB6E0030ABDE0060A07
:1014800003E0010AE6E0EED72C6AC28212003BD0EC
:101490005AD051D8F8EC0EF045D8D8A012003D50E3
:1014A00092EC0FF08B86020E3E6E020C44D8F8ECE4
:1014B0000EF038D8D8A012003D5092EC0FF08B9669
:1014C000030E3E6E030C010E3E6E3C50F8EC0EF027
:1014D00052BE13D0C3EC04F010E33B2A3C5092EC14
:1014E0000FF03A28516E526A000E5222546A3C0E96
:1014F000536E8BEC0CF051503A6E060E3A64060CAB
:10150000030E3E6E20D03E50586E596A5950D8A4F2
:101510001200585018E0010ABCE0030AC7E0010AB3
:10152000D2E012005850515C5250800A5A6E595005
:10153000800A5A5812003B50586E596A582A000EB9
:1015400059223D501200020E3B6E020C77EC0EF059
:101550000D6E0E6A3F6A406A959C959A95985F6AEF
:1015600045D8640E5A6E82EC0FF0030EDEEC0BF0E1
:101570003DD8050E5A6E82EC0FF0030EDEEC0BF038
:1015800035D8010E5A6E82EC0FF0030EDEEC0BF034
:101590002DD8010E5A6E82EC0FF0020EDEEC0BF02D
:1015A00025D8010E5A6E82EC0FF0280EBFEC0FF01A
:1015B000EEEC0DF0080EBFEC0FF0EEEC0DF0010EAE
:1015C000BFEC0FF013D8030E5A6E82EC0FF0EEEC66
:1015D0000DF0060EBFEC0FF0EEEC0DF00F0EBFECB1
:1015E0000FF05F2A010E5F64BBD7010C0DC058F0ED
:1015F0000EC059F05B6A12003BD045501CE0010E52
:10160000416E72EC0FF0476E020E436E4450D8B438
:1016100012004750461809E14850F8EC0EF052BE4F
:101620001200C3EC04F0D8A01200010E436E47C0B4
:1016300046F0446A120047C046F01200442A020EE7
:10164000416E020C4550D8A41200485092EC0FF0A5
:10165000416A12004550D8B412002CEF0FF0050E6D
:10166000416E050C4550D8A41200030E416E030CC8
:101670004150586E596A5950D8A412005850BDE0D4
:10168000010ADCE0030ADEE0010AE4E0070AE7E021
:10169000010AE8E01200355038C05FF0606A5F264A
:1016A000000E602260BE06D0605029E1050E5F5C2E
:1016B000D8B0120037D8100EDF6415D037605EEF57
:1016C00000F037503624516E526A52362BD8DF5014
:1016D000536E546A8BEC0CF013D851241BD8BCEC1D
:1016E0000EF0372A12000CD8372414D802E15EEF2E
:1016F00000F006D837240ED8BCEC0EF0F2D712005A
:1017000035501C0DF3CF5FF038501C0DF3500D0F0A
:101710005F241200606E60C0F6FF020EF76E0800D4
:10172000F55012003850700F3524D96EDA6A120065
:10173000206A070E206401D007D039D829D847EC99
:1017400000F0DF6E202AF5D71E50120D080EF3248C
:10175000D96E010EF420DA6EDF6A206A070E20646B
:1017600001D00CD024D8090E5226000E532210D8D6
:10177000080F47EC00F0DF6E202AF0D71E50120D44
:10178000110EF324D96E010EF420DA6EDF6A000C1C
:10179000F3505226F450532220505224D96E000E9A
:1017A0005320DA6E1E50100DF350202412001E50EC
:1017B000120D000E526E010E536E1200526E95966F
:1017C0002FD88C8C52A603D0516A512A01D0516A6D
:1017D00051462DD8F70B51188C6E52A403D0516A84
:1017E000512A01D0516A23D8FB0B51188C6E52A29A
:1017F00003D0516A512A01D0516A51468C50511878
:10180000FD0B51188C6E52A003D0516A512A01D0A1
:10181000516A8C505118FE0B51188C6E8C9C120022
:101820009594959295908C988C9A8C8C1200514638
:1018300051468C5051181200AA0EF66E180EF76E13
:10184000000EF86E00EE80F010EE6CF00900F5CF9F
:10185000EEFFE550E150FAE15E0EF66E000EF76E17
:10186000000EF86E00EE67F010EE10F00900F5CFF4
:10187000EEFFE550E150FAE101EE00F0DB0EEE6A1A
:10188000E806FDE100EEECF0120EEE6AE806FDE17E
:1018900000EE01F04B0EEE6AE806FDE177907792DC
:1018A000000EF86E000183EF0DF054494D45204CB9
:1018B0004546543A0053434F52453A000000000059
:1018C000425945204259452000312E4C4F47494E40
:1018D00000000000322E52454749535445520054EF
:1018E000494D452052454D41494E494E473A2043C6
:1018F000555252454E542054494D453A004D4F449F
:101900004946592054494D453A00555345523A00ED
:10191000505357443A00566A52AE06D0516C521E8C
:10192000D8B0522A010E566E54AE04D0536C541ED9
:10193000D8B0542A5350541017E0010E556E04D0FD
:10194000D89053365436552A54AEFAD75350515C7A
:101950005450525804E35350515E5450525AD89048
:1019600054325332552EF2D7565004E0516C521E69
:10197000D8B0522A51C051F052C052F01200526EEB
:1019800052A603D0516A512A01D0516A514625D836
:10199000F70B51188C6E52A403D0516A512A01D012
:1019A000516A1BD8FB0B51188C6E52A203D0516A9E
:1019B000512A01D0516A51468C505118FD0B5118D3
:1019C0008C6E52A003D0516A512A01D0516A8C50BA
:1019D0005118FE0B51188C6E1200514651468C5016
:1019E00051181200526E52AE03D0516A512A01D0E2
:1019F000516A514625D8F70B51188C6E52AC03D062
:101A0000516A512A01D0516A1BD8FB0B51188C6EB8
:101A100052AA03D0516A512A01D0516A51468C50C2
:101A20005118FD0B51188C6E52A803D0516A512ADF
:101A300001D0516A8C505118FE0B51188C6E120057
:101A4000514651468C50511812001F6A1E6A070EEB
:101A50001E6401D004D098EC0BF01E2AF8D7206A3F
:101A6000040E206401D013D020500CEC07F020505D
:101A7000900F47EC00F0DF6E2050020DFAEC06F0FC
:101A80002050A00F47EC00F0DF6E202AE9D7FF0EB0
:101A900047EC00F01C6EFE0E47EC00F0216E1C2897
:101AA00001E11C6A2128D8B4216A1200556E1FD8A2
:101AB00003E1020E535C0AE31AD808E10A0E535CF4
:101AC00005E206D805E1010E446E02D05550120021
:101AD0005550060DF350990F4424516ED90E5126DE
:101AE00051C0F6FF020EF76E0800F5501200D00E3E
:101AF000516E52685550536E546A5150532652508D
:101B0000542254501200A6EC0EF0B1EC0FF062EC2F
:101B10000FF0100E5D6EA6EC0AF02FEC0FF06CECDF
:101B200000F04FEC00F065EC00F025EC0DF047EC18
:101B30000AF0FCEC0AF05DEC09F068EC01F0E8EC6E
:101B400009F0E9EC04F02DEC07F0C5EC08F0EFD754
:101B50003750960FD96EDA6ADF5008E03750960F8B
:101B6000C8EC04F0BCEC0EF0372A120036500FD847
:101B700002E15EEF00F0080E36605EEF00F03650D6
:101B8000EC0FC8EC04F0BCEC0EF0362A1200EC0F9F
:101B9000D96EDA6ADF501200DF0ED76E730ED66E82
:101BA000F2940F4A102A300E0F5C750E1058D8A010
:101BB00012004B6A180E4B6401D00DD086EC0EF06B
:101BC000DE0407E14B509AEC0FF00F50DE5E105030
:101BD000DD5A4B2AEFD70F6A106A1200958695845A
:101BE000958295808C988C8A0D5092EC0FF08C8C9D
:101BF0008C8C000E83B6010E586E8C9C8C9C8C8C49
:101C00008C8C8C9C8C9C0D50F8EC0EF0515052102A
:101C100001E012005850EBE11200536E9596959436
:101C2000959295908C888C9A8C8C5350F2EC0CF099
:101C30000BD85350BFEC0CF000D08C8C8C9C95864C
:101C400095849582958012008C8C8C9C8C9C8C8CBD
:101C50001200385010E13750670FD96EDA6ADF5042
:101C600002E15EEF00F03750670FC8EC04F0BCEC07
:101C70000EF0372A12003550BCEC0EF03650BCEC9A
:101C80000EF0382A12005F6E5FC01BF01BEC00F0F4
:101C90000A0E516E1B505DEC0EF0300FBCEC0EF0D6
:101CA0000A0E516E1B50E5EC0EF0300FBCEC0EF03E
:101CB000206A1D6A140E1F6E140C526E546A515025
:101CC00014E0010E536E03D0D8905136532A51AE12
:101CD000FBD7D89054365150525C03E35150525EBA
:101CE0005480D8905132532EF4D7545012004B6A7E
:101CF00005D04B2A190E4B1801E1FF0C07D8DE0462
:101D0000F8E004D8010EDF6E4B5012004B50030D6B
:101D1000920EF324D96E010EF420DA6E12005D6E7D
:101D2000595004E05B6A400E5A6E02D05A6A5B6AF0
:101D30005D505A245C6EEEEC0DF05C508009BFECF7
:101D40000FF059C040F05DC03FF01200D09EF28EFF
:101D5000F28CF28AF294080ED56ED80ED76EF00E81
:101D6000D66ED58E4B6A180E4B6401D0180C86ECDB
:101D70000EF0DF6A4B2AF7D75E6EEEEC0DF05E5088
:101D80000DEC0EF03F2A270E3F64270C3F6A402AD5
:101D9000010E406401D0406A40C059F03F508FEFBF
:101DA0000EF00DD8D96EDA6ADF5002E15EEF00F076
:101DB00006D8C8EC04F0BCEC0EF0372A12003850FC
:101DC0000B0DF350800F37241200526E080E536E25
:101DD000546AD89052345434546ED890523651507C
:101DE000545C02E35150545E532EF3D7545012000A
:101DF000556E0FC056F010C057F055509AEC0FF0CA
:101E0000DECF53F0DDCF54F05350565C516E54503A
:101E10005758526E12000DD8D96EDA6ADF5002E1BF
:101E20005EEF00F006D8C8EC04F0BCEC0EF0372AE8
:101E300012005F50372436241200526E520408E11B
:101E4000466A446A436A020E416E485092EF0FF0B0
:101E50005250D8A4120000D0040E416E040C948E8F
:101E6000948CAC84AC8AAC98AB8EAB88B896AF68D7
:101E7000948A949877EC0EF0296E77EC0EF0256E2C
:101E80001200526E52C0A9FF51C0A8FFA69EA69C88
:101E9000A684F29E550EA76EAA0EA76EA682F28E9B
:101EA000A694AA0C010E1F6E1E6A5EC00BF00C6A8F
:101EB000030E1A6E196A020E1D6E000E596E0A0E7E
:101EC0008FEF0EF0F19E9380938293849396939874
:101ED000939A939C929877EC0EF0496E77EC0EF003
:101EE000486E120097EC00F0516E4A50030DF3500B
:101EF000010F5124526E52C0F6FF020EF76E080019
:101F0000F5501200585092EC0FF05850F8EC0EF0CB
:101F10005A50515C5250800A5C6E5B50800A5C588B
:101F2000F4E31200516E515005D80FC0DEFF10C00F
:101F3000DDFF1200030D900EF324D96E010EF42084
:101F4000DA6E12009CEC00F00009D8B412001150B7
:101F5000300FBCEC0EF01150300FF2EC0FF0132AE2
:101F6000120092809282030EC26E0C0EC16E440E5D
:101F7000C06E2D6AC282C294C2862C6A1200536E51
:101F8000959610EC0CF05350F2EC0CF024EC0EF0A3
:101F90005350BFEC0CF01DEF0EF0010E1F6E1A6ACD
:101FA0000A0E196E206A1E6A51C00BF00C6A020EEE
:101FB0001D6E020C175008E1755002E1136A120001
:101FC0003B0E176E75063B0C17061200516A455002
:101FD00007E0410403E0040E411802E1010E516ED6
:101FE00051501200526E2250D8B41200010E266ECB
:101FF00052C024F0255092EF0FF08B963E6A1200EB
:020000040020DA
:08000000FFFFFFFFFFFFFFFF00
:020000040030CA
:0E000000FF06191EFF0181FF03C003E003404D
:00000001FF
