:020000040000FA
:0400000013EF00F00A
:0600080079829EEF0DF06D
:100018007980E0CF5AF05AC0E0FF79901000D8EF0D
:100028000BF034D18AEC0EF0590E4E18D8A41200F9
:10003800ACA209D0205003E14EC0ADFF202A010E2A
:100048001C6E4B6A506A1E5057EF0EF0636A505090
:1000580075EC0AF04D500E0DD70E000136D906E0AA
:1000680043D933D930EC0CF0502A12003DD92DD9A0
:10007800D8A41200010E6C6E540E6D6E000E6E6ADE
:100088002AEC0EF06FD92AEC0EF066D92AEC0EF0A5
:100098005DD9040E2AEC0EF06BD92AEC0EF047D984
:1000A8002AEC0EF0010E6C6E7C0E6D6E6E6A080EF8
:1000B8002AEC0EF0010E6C6E530E6D6E6E6A0A0E0F
:1000C8002AEC0EF0D1EC06F00C0E2AEC0EF0CBEC7C
:1000D80006F00D0E2AEC0EF0C5EC06F00E0E2AEC1A
:1000E8000EF0020E1C6E506A1200FED8EED806E022
:1000F800ACA21200F9D8E9D8AD6EB6D7030E1C6EC3
:100108001F6A206A120026EC0AF01E50C5EC0DF09A
:100118005CBE37D062EC0AF034E3206A1E5057EC1C
:100128000EF02B0E1F6E0D2A02D92AEC0EF00A0EC5
:100138000D1802E10D6A0E2A060E0E1802E10E6A6B
:100148000B2A0A0E0B1802E10B6A0C2A060E0C1871
:1001580002E15BEC0DF006D92AEC0EF0FDD82AEC92
:100168000EF006D92AEC0EF0E2D82AEC0EF0ACA27A
:1001780012002050D8A412001FC0ADFF202A1F6A09
:100188001200040E1C6E4B6A1200ACA206D049C0C5
:10019800ADFF496A030E1C6E030C9EAAFBD7AECFB7
:1001A80021F0FA0E211819E0C90E2160F3D7BAD848
:1001B8009FD8D051DE5CDE50800AD46FD151800ABE
:1001C800D45906E2AFD894D8D0C0DEFFD1C0DDFF45
:1001D800B4D821505AEC0CF0DDD7050E1C6E4B6AD2
:1001E80082D7636A505075EC0AF08AD804E088D840
:1001F80030EC0CF039D784D8D8A412006C6A7CECA7
:100208000CF0070E2AEC0EF06C6A77EC0CF0080E76
:100218002AEC0EF06C6A72EC0CF0090E2AEC0EF067
:10022800060E60D7ABD875EC0AF073D804E071D825
:1002380030EC0CF019D76DD8D8A412007ED84D50E8
:1002480057D8DF505AEC0CF0070E1C6E97D875EC97
:100258000AF049D781AA81B802D081A61200080EF7
:100268001C6E080C15EC09F003EC0DF01D6E81AA4C
:1002780081B8120081B61200230E1D18D8A41200EE
:100288008AEC0EF04F6A1C6AD8EF0DF01C50000182
:10029800D06FD16BD151D8A41200D05101E1C2D690
:1002A800010A01E1D3D6030A01E11FD7010A01E1DE
:1002B8002AD7070A01E169D7010A93E0030AB2E0E5
:1002C800010AC8E00F0ACEE01200D06F000ED16F0D
:1002D800F350D027F450D1235050D025D96E000EBA
:1002E800D121DA6EDF5012004D500E0DD70E1200DC
:1002F8000E0DE30EF324D96E000EF420DA6E120010
:10030800F50E5024F66EF76A1F0EF7220800F55016
:100318001200CB0E5024F66EF76A1F0EF722080063
:10032800F55012002150D06FD16B4D501200010EC4
:100338006C6E0DC06DF06E6E060C0C0E706E0D0EB0
:10034800716E0E0E726E010E736E010C010E6C6EE4
:100358003A0E6D6E6E6A3A0C010E6C6E0BC06DF043
:100368006E6E030C010E6C6E0CC06DF06E6E020C9E
:10037800010E6C6E0EC06DF06E6E050C010E636E94
:100388005050120014D1080E7018711002E152C0BA
:1003980031F0F7EC0EF0010E306E516A12000A0EC1
:1003A800701871101EE0636A505075EC0AF0080E60
:1003B800701871100BE146D9E1EC0EF043D9D8A4BE
:1003C8001200ABEC0EF0020E306E020C070E701825
:1003D8007110D8A412002DD9E1EC0EF02AD9F1E061
:1003E80012001ED9E1EC0EF01BD9280A02E1ABEF8E
:1003F8000EF016D9E8E0120081AA81B802D081A6D1
:100408003BD0030E306E325034180AE12D50C5EC43
:100418000DF05CBE2AD0E80E5B5C030E5C5825E349
:100428002E5023E12A0E321820E0230E32181DE048
:10043800080E7018711002E1315005D0070E7018BF
:10044800711009E14D500E0DD70E726E000E736ECD
:10045800D5D833C0DFFF502A4B2A0A0E4B1802E1C9
:100468004B6A506A2F6A020E306E2D5057EC0EF010
:10047800C2EC01F075EF0AF032C034F0120015EC4E
:1004880009F003EC0DF0326E2E5003E032C034F068
:100498002E6A81AA81B8120081B61200325005EC8A
:1004A8000CF0356E230E321847E02A0E321844E05D
:1004B800300E321814E0310E321811E00A0E70189E
:1004C80071100DE087D8F5CF33F0335030EC0CF0D5
:1004D8002F2A80D8F55001E076D72F6A74D732508A
:1004E80030EC0CF032C033F00A0E7018711001E0D5
:1004F8006AD7090E501804E13250D00F146E1AD082
:100508000A0E50180AE13250D00F136E502AAAEC86
:1005180001F050502AEC0EF00DD00C0E501804E1EA
:100528003250D00F166E06D00D0E501803E132501F
:10053800D00F156E4C6A47D7FCEC0EF02A0E321815
:100548002CE1080E701871100EE131500E0DD70E07
:1005580060D854D8DF6A522A31C04DF0312A306A47
:10056800F2EC0EF020D0070E7018711009E14D5012
:100578000E0DD70E4ED842D8DF6A010E306E13D05A
:100588000A0E701871100FE114C0BDF013C0BCF052
:1005980016C0BBF015C0BAF0F0D7230E321803E12D
:1005A8008AEC0EF0306AD9EC0EF0ABEF0EF030505A
:1005B800726E736A7350D8A41200725001E1E3D6C8
:1005C800010A01E1ECD6030A01E116D7010A01E1AB
:1005D80056D712003550070D410E726E1F0E736EFE
:1005E800F3507226F45073222F507226000E732295
:1005F80072C0F6FF73C0F7FF0800000CF3507226B4
:10060800F45073224B507224D96E000E7320DA6EA8
:100618001200726E000E736E722A000E7322000CA6
:10062800790E5124F66EF76A1F0EF7220800F5506E
:100638001200920E5124F66EF76A1F0EF722080078
:10064800F5501200A70E5124F66EF76A1F0EF72216
:100658000800F5501200BBD0110E4F180BE02750C0
:1006680072EC0EF0286A010E266EF0D875EC0AF0CE
:10067800256A1200050E266E4DC028F0050C28C00C
:100688004DF0D1D8BCD807E0CED8B9D830EC0CF0B2
:1006980006EC0FF01BD0272A020E506ED7D875EC47
:1006A8000AF0516A020E266E020CC7D8B2EC0DF0A1
:1006B800D70EAED8A4D80DE0C0D8B2EC0DF0D70E46
:1006C800A7D89DD830EC0CF006EC0FF0BFD875EF2A
:1006D8000AF0030E266E516A120081AA81B802D070
:1006E80081A612008AEC0EF0040E266E040C15EC9E
:1006F80009F003EC0DF0256E81AA81B8120081B6CD
:100708001200230E251807E1E7EC0EF04F6A256A60
:10071800266A4D6A1200320E25180FE12750D1ECD7
:100728000EF0276E2806020E506EFE0E281802E103
:100738005204286E010E266E010C380E251817E19A
:100748002750D1EC0EF0276E282A020E506E525018
:10075800706E716A28C072F0736A72BE7306705048
:100768007218E8E171507318E5E1286AE3D72A0E98
:100778002518D8A412000B0E4F1803E1F2EC0EF066
:10078800256A100E4F1802E1090E4F6EE7EC0EF0C5
:10079800266A1200525028BE03D0FF0A282412E20B
:1007A8004CD8B2EC0DF0E50E5B24D96E000E5C203F
:1007B800DA6E285005EC09F0DBCFE3FFE806FCE22F
:1007C800282A12005206266A120E4F6E120C265064
:1007D800706E716A7150D8A41200705001E13CD754
:1007E800010A01E14CD7030A01E15FD7010A01E1DF
:1007F80074D7070A01E17BD7010ACCE01200712205
:1008080051507024D96E000E7120DA6EDF5012003C
:10081800706E000E716E0E0E7026000E71225B5007
:1008280070265C50120028500E0DD70E706E000E08
:10083800716EF3507026F450120028505B6E5C6A9B
:100848005BBE5C065E6A0E0E5D6E0E0C27C063F022
:1008580050501200D7D081AA81B80DD081B60BD0E4
:100868003CC06DF06E6A40C06FF03FC070F03EC093
:1008780071F0DBEF06F0010E396E8AEC0EF095EFA1
:100888000EF015EC09F003EC0DF03A6E81AA81B870
:10089800120081B61200320E3A1824E14050800A44
:1008A8007A0F06E23F50800A7A0F02E2402A3F2A76
:1008B800060E3F1801E1BDD8060E401801E1BDD86B
:1008C8002A0E3B180DE13E6A090E4F1802E1AED818
:1008D80005D03D5004E0060E406E070E3F6E3D6A9F
:1008E800396A1200380E3A1828E140AE3FBE05D0EA
:1008F8002A0E3B1802E040063F06402801E199D83D
:100908003F2804E1040E406E050E3F6E090E4F1895
:1009180006E1010E3E6E080E406E090E3F6E396A02
:100928002A0E3B18DDE13D2A010E3E6E060E4018E8
:10093800D7E177D8D9EC0EF0D3D72A0E3A180BE1C5
:10094800090E4F180BE13E5004E18AEC0EF0070E39
:1009580001D0110E4F6E020E396E020C4F2A3AC0AA
:100968003BF04F0427E1405002E15BD8B9D740047F
:1009780004E17EEC0EF00D0EEDD7020E401804E1F6
:100988007EEC0EF00E0EE6D7030E401802E1100EB4
:1009980022D0040E401802E10C0EDCD7050E4018D8
:1009A80002E10A0ED7D7060E4018D5E14AEC0DF041
:1009B8000F0ED0D7020E4F18D8A412003D0405E13F
:1009C800060E4018C8E1080EC5D73D50C4E1060E12
:1009D8004018C1E10B0E4F6E020E506EBCD7FCECF6
:1009E8000EF0396A090E4F1803E0406A010E01D073
:1009F8001DD83F6EB5EC0EF0D9EC0EF0E7EC0EF01A
:100A08004AEF0DF03950746E756A7550D8A412000B
:100A1800745001E120D7010A01E133D7030ADFE06E
:100A28001200060E406E070E3F6E070C080E406E51
:100A3800090C050E406E3F6A1200406A010E3F6EB7
:100A4800010C0001D06FBBD00C0E0001D01903E0DF
:100A5800010E246E010C636A505075EC0AF0C4D87C
:100A680030EC0CF006EC0FF0BFD81EE1010E246E3E
:100A7800706A716E726E14C073F013C074F0BDD8D2
:100A880033EC0DF0AAEC01F0020E2AEC0EF0030E86
:100A9800706E040E716E010E726E16C073F015C082
:100AA80074F0ABD833EF0DF0246A120081AA81B834
:100AB80024D081B622D03C0E4C180EE02250C5EC52
:100AC8000DF05CBE120062EC0AF0D8A012002250B1
:100AD80057EC0EF04C2A12004C6A152A0C0E000135
:100AE800D01908E1010E6C6E15C06DF06E6E040E23
:100AF8002AEC0EF0020E246E020C050E246E050C74
:100B08000A0E1518A5E1156A162A040E706E030E52
:100B1800716E010E726E736A16C074F06ED833EC83
:100B28000DF0030E246E030C060E161891E1166ADA
:100B3800132A030E706E65D813C074F05ED833ECB8
:100B48000DF0040E246E040C0A0E13180CE1136A3F
:100B5800142A010E706E716A726E736A14C074F092
:100B68004CD833EC0DF0010E246E040E1318D8A4E3
:100B78001200020E1418D8A41200136A146A706ABC
:100B880040D8746A3AD833EC0DF062D715EC09F006
:100B980003EC0DF0236E81AA81B8120081B6120011
:100BA800230E231881E10C0E0001D01902E1246AFA
:100BB80002D0010E246E8AEC0EF04F6A1200245007
:100BC800776E786A7850D8A41200775001E13CD744
:100BD800010A01E16BD7030A93E0010AA5E0070ABD
:100BE800B3E0010AD3E01200DA0E5124F66EF76A78
:100BF8001F0EF7220800F5501200756E0001D05143
:100C08001200010E716E726E736A010C776E52508B
:100C1800726E736A1BC074F0756A74BE7506725082
:100C2800745C7550800A766E7350800A765803E3B8
:100C38001B6A010E186E0950800A700F57E2B3D86C
:100C480075EC0AF01750C5EC0DF05CBE4FD05C5047
:100C580003E1640E5B5C4AE3A6D875EC0AF0706A9F
:100C68001B506FD8FAEC0DF0C3C063F0095075EC57
:100C78000AF00E0E771807E1010E706E185061D851
:100C8800FAEC0DF02DD00D0E77182AE1BC0E0001FC
:100C980070D805E0BC0E6DD830EC0CF021D06C6A31
:100CA800200E6D6E6E6A07500F082AEC0EF05BD8A6
:100CB80007500B082AEC0EF070D807500C082AECE5
:100CC8000EF065D807500D082AEC0EF05AD80750D8
:100CD8000E082AEC0EF047D807500F082AEC0EF041
:100CE800175057EC0EF0092A0001C02B0950800A52
:100CF800700FD8A012006C6A05EC0EF02AEC0EF00A
:100D080032D809502AEC0EF0072A0F0E076415D0C6
:100D18000D0E771801E104D00E0E771803E1182A9A
:100D28001B2A08D01B50800A7A0F04E30D0E77188F
:100D380001E11B6A076A0001C06B096A07C0C0F0BD
:100D480012000E0DD70E726E000E736EF3507226DF
:100D5800F45073220001C0517224D96E000E732022
:100D6800DA6EDF501200010E6C6E200E6D6E6E6A28
:100D7800200CC025F66EF76A1F0EF7220800F55002
:100D88001200010E6C6EB2C06DF06E6E010C010E99
:100D98006C6EB4C06DF06E6E010C010E6C6EB6C058
:100DA8006DF06E6E010CC2C063F0095012006F50F6
:100DB800BED8DF643AD00550800A6B0F21E26D502F
:100DC800C5EC0DF05CBE1CD062EC0AF019E37104AE
:100DD80003E0715072EC0EF0B2D875EC0AF06F5067
:100DE8009CD8015090D830EC0CF0052A012A6F509D
:100DF80094D8015088D804E1016A6D5057EC0EF080
:100E08000550800A6B0F26E3032A6F5086D80350DB
:100E18007AD801E1036A710405E0715072EC0EF0B2
:100E2800020E056E03C001F015D0710403E0715085
:100E380072EC0EF084D875EC0AF06F506ED8015041
:100E480062D808E06F5069D801505DD830EC0CF0DA
:100E5800052A012A70506BD8DF643DD00650800AFD
:100E68006B0F21E26D50C5EC0DF05CBE1CD062EC3E
:100E78000AF019E3710403E1715072EC0EF05BD8CB
:100E880075EC0AF0705049D802503DD830EC0CF09F
:100E9800062A022A705041D8025035D804E1026A65
:100EA8006D5057EC0EF00650800A6B0FD8A0120058
:100EB800042A705032D8045026D801E1046A71041B
:100EC80006E1715072EC0EF0020E066E01D0066A51
:100ED80004C002F01200710403E1715072EC0EF0CC
:100EE8002AD875EC0AF0705018D802500CD8D8B42B
:100EF8001200705012D8025006D830EC0CF0062AB6
:100F08000228026E12007226000E732272C0F6FFCB
:100F180073C0F7FF0800F55012001E0D150E726E13
:100F28001E0E736EF3507226F45073221200C60F11
:100F3800D96EDA6A0F0CBFC063F006501200BEC04B
:100F480063F005501200A0D081AA81B80AD081B6FA
:100F580008D08C868C948C928C90010E456E536AC6
:100F68001200040E456E040C81AA81B8FAD781B626
:100F7800F8D78C968C848C928C90020E456E010E5C
:100F8800536E010C81AA81B8ECD781B6EAD78C964A
:100F98008C948C828C90030E456E020E536E020C5C
:100FA80081AA81B8DED781B6DCD78C968C948C92D6
:100FB8008C80030E536E456A1200475057EC0EF0B2
:100FC800050E456E050C4750C5EC0DF05CBE1200D1
:100FD8005C5004E1280E5B5CD8A0120081AA81B89D
:100FE80002D081A6E8D7060E456E060C81A602D06F
:100FF800546A08D081A802D0010E03D081AA02D079
:10100800020E546E070E456E15EC09F003EC0DF058
:10101800466E0F0E4F18D8A41200320E461803E180
:10102800550E496E550C380E461803E1440E496EAC
:10103800440C340E461803E14C0E496E4C0C360E27
:101048004618D8A41200520E496E520C81AA81B8D3
:10105800120081B61200475057EC0EF0080E456E8C
:10106800080C4750C5EC0DF05CBE12005C5004E162
:10107800280E5B5CD8A0120081AA81B802D081A694
:101088009AD7070E456E070C4550626E636A635027
:10109800D8A41200625001E157D7010A01E164D7D0
:1010A800030A01E16FD7010A01E17AD7070A85E04F
:1010B800010A89E0030A9AE0010AC8E00F0AD1E0B0
:1010C80012008BD00E0E4F1802E1010E06D00D0E45
:1010D8004F1802E07EEF0EF0030EC46F7EEF0EF0A5
:1010E8001B507CEC01F0DECF65F0DDCF66F01BEC29
:1010F8000DF081AA81B802D081A604D0020E0001A9
:10110800C46F020C4F500AEF06F08BD803EC0DF0B9
:101118000001C56F81AA81B8120081B61200230EA2
:10112800C51903E1C46B4F6A1200010EC46F010CAC
:10113800D069D1695250D26FD36BD051D227D151D7
:10114800D3231A50D46FD56BD251D45DD551800AB0
:10115800D66FD351800AD65905E2040EC46F1A28F7
:10116800196E1200010EC46F1B6A516A12005250A8
:10117800195C2FE219507CEC01F01A500E0DE30EA9
:10118800F324E16E000EF420E26EDE50E65CE650D9
:10119800800AD46FDE50800AD45919E2195039D820
:1011A80010EEA4F00D0EDBCFE3FFE806FCE21A50C8
:1011B80030D8195026D8DBCFE3FFE806FCE220EE52
:1011C800A4F01A501ED8DBCFE3FFE806FCE2192A88
:1011D8001200030EC46F1A2A030C0001C451D06F09
:1011E800D16BD151D8A41200D05101E16BD7010ABB
:1011F80001E176D7030A89E0010A9AE0070AB7E015
:1012080012000E0DD70EF324E16E000EF420E26EEC
:101218000D0C0E0DD70EF324D96E000EF420DA6EE5
:10122800120053C05BF054501200686E60EC0DF071
:101238000F6E106A68C044F067C043F0416A426AA2
:1012480099EC0DF096909294929A696A6A6A4CD8D1
:10125800640E646E1AEC0EF0030EBFEC0AF044D86C
:10126800050E646E1AEC0EF0030EBFEC0AF03CD8C3
:10127800010E646E1AEC0EF0030EBFEC0AF034D8BF
:10128800010E646E1AEC0EF0020EBFEC0AF02CD8B8
:10129800010E646E1AEC0EF0280E8AEC0DF0CAEC02
:1012A8000CF0080E8AEC0DF0CAEC0CF0010E8AEC7A
:1012B8000DF01AD8030E646E1AEC0EF0CAEC0CF09E
:1012C800060E8AEC0DF0CAEC0CF00F0E8AEC0DF04D
:1012D800694A6A2A6ABEBBD76A5005E1020E695C90
:1012E800D8B01200B4D712000FC062F010C063F07B
:1012F800656A120076EC0DF065EC0EF0100E676E64
:10130800020E19EC09F0FCEC0EF0BFEC0EF0C8EC84
:101318000EF0A0EC0EF039EC0EF048EC0EF0E9EC13
:101328000DF001EC0FF0D8EC0DF0A7EC07F04F50E2
:1013380025EC05F00F0E4F1805E1D3EC09F015EC7C
:1013480000F0F3D7020E4F6403D0090E4F1803E1E3
:101358002EEC04F0EAD7080E4F1806E0070E4F18D7
:1013680003E00A0E4F1806E14FC070F0716AC6EC30
:1013780001F0DBD70B0E4F1803E00F0E4F6406D0B9
:101388004FC06EF06F6A2FEC03F0CFD70E0E4F18D8
:1013980003E00D0E4F18C9E165EC08F0C6D741D03F
:1013A800C2B207D0C294C4CF38F0C282010E366EE2
:1013B800010C366A1200C2B2F9D7C284C4CF37F022
:1013C800C282020E366E020C37500AEC0EF05D6EC9
:1013D80038500AEC0EF05D5C03E2030E366E030C27
:1013E80038500AEC0EF05D6E37500AEC0EF05D5C7A
:1013F800E0E2040E366E040C9B0E386402D0520EE6
:101408000ED0640E3860D5D74C0E09D09B0E3764C9
:1014180002D0550E04D0640E3760CBD7440E496E07
:10142800C8D736505D6E5E6A5E50D8A412005D5013
:10143800B7E0010AC0E0030AC7E0010ADDE0070AD5
:10144800E5E0120030D02B50C5EC0DF05CBE12D098
:1014580035D810E32B5057EC0EF00A0E296004D053
:10146800292A8A844A6A06D0090E296403D0010E03
:10147800296EF7D731D8C5EC0DF025D8D8A01200C1
:101488002A5057EC0EF08A94010E4A6E010C24D8AB
:10149800C5EC0DF018D8D8A012008A842A5057EC51
:1014A8000EF04A6A12004A50626E636A6350D8A40A
:1014B80012006250C8E0010AEAE01200D00E5B5C3C
:1014C800070E5C58120062505B5C5C50800A646EC8
:1014D8006350800A645812002950626E636A2A5069
:1014E80012006A6E30D0635004E0676A400E666E80
:1014F80002D0666A676A6A506624686E000E6720C2
:10150800696E2ED06AC068F0696A630402E1400E11
:1015180004D0020E631804E143506826000E0DD073
:10152800030E63181DE14350646E656A400E64261D
:10153800000E6522645068266550692211D06AC081
:1015480068F0696A0DD04450646E656A6550F7E1C9
:101558006450010AF4E0030AC6E0060AD3E0EFD7B4
:10156800CAEC0CF0685080098AEC0DF063C042F0B8
:101578006AC041F012005C6E99EC0DF089948D9070
:10158800898A898A5CA603D05B6A5B2A01D05B6A78
:101598005B3A8C505B18EF0B5B188C6E5CA403D025
:1015A8005B6A5B2A01D05B6A5B3A5B468C505B18CE
:1015B800DF0B5B188C6E5CA203D05B6A5B2A01D0E0
:1015C8005B6A5B3A5B465B468C505B18BF0B5B18EB
:1015D8008C6E5CA003D05B6A5B2A01D05B6A5B32CD
:1015E8005B328C505B187F0B5B188C6E899A1200EB
:1015F800606A5EAE06D05D6C5E1ED8B05E2A010ED3
:10160800606E5CAE06D05B6C5C1ED8B05C2A010EC6
:10161800601A616A626A5D505E101BE0010E5F6EBF
:1016280004D0D8905D365E365F2A5EAEFAD7D89081
:10163800613662365D505B5C5E505C5805E35D5018
:101648005B5E5E505C5A6180D8905E325D325F2E80
:10165800EED7605004E0616C621ED8B0622A61C0A7
:101668005BF062C05CF012005C6E5CA603D05B6A43
:101678005B2A01D05B6A5B3A8C505B18EF0B5B18F6
:101688008C6E5CA403D05B6A5B2A01D05B6A5B3A10
:101698005B468C505B18DF0B5B188C6E5CA203D02A
:1016A8005B6A5B2A01D05B6A5B3A5B465B468C509F
:1016B8005B18BF0B5B188C6E5CA003D05B6A5B2A5F
:1016C80001D05B6A5B325B328C505B187F0B5B1816
:1016D8008C6E12005C6E5CAE03D05B6A5B2A01D034
:1016E8005B6A5B3A8C505B18EF0B5B188C6E5CACDA
:1016F80003D05B6A5B2A01D05B6A5B3A5B468C501D
:101708005B18DF0B5B188C6E5CAA03D05B6A5B2AE4
:1017180001D05B6A5B3A5B465B468C505B18BF0B3B
:101728005B188C6E5CA803D05B6A5B2A01D05B6A8D
:101738005B325B328C505B187F0B5B188C6E12002F
:10174800606A5CAE06D05B6C5C1ED8B05C2A010E89
:10175800606E5EAE04D05D6C5E1ED8B05E2A5D50D1
:101768005E1017E0010E5F6E04D0D8905D365E36CD
:101778005F2A5EAEFAD75D505B5C5E505C5804E34E
:101788005D505B5E5E505C5AD8905E325D325F2E73
:10179800F2D7605004E05B6C5C1ED8B05C2A5BC07A
:1017A8005BF05CC05CF01200DA0EF66E1D0EF76E90
:1017B800000EF86E00EEC6F010EE0AF00900F5CF44
:1017C800EEFFE550E150FAE100EED7F011EE18F027
:1017D800EE6AE550E150FCE1E250FAE100EE80F0FB
:1017E800460EEE6AE806FDE100EE01F0540EEE6AE0
:1017F800E806FDE179907992000EF86E00017EEF1F
:1018080009F05B6E320E5B1802E12C6A23D0330EAE
:101818005B1802E1010E1DD0340E5B1802E1020EC6
:1018280018D0350E5B1802E1030E13D0360E5B1884
:1018380002E1040E0ED0370E5B1802E1050E09D046
:10184800380E5B1802E1060E04D0390E5B1802E16F
:10185800070E2C6E2C5012006B6ECAEC0CF06B50FD
:10186800E9EC0CF0412A030E441807E1130E416419
:10187800130C416A422A030E09D0020E44180AE1E9
:10188800270E4164270C416A422A010E426409D09E
:10189800426A07D04204D8A41200270E416401D03E
:1018A800416A42C063F0415075EF0AF0746E74C02B
:1018B80065F0666A1BEC0DF073C06CF019D87050B7
:1018C8002AEC0EF073C06CF00ED871502AEC0EF0B2
:1018D80073C06CF003D872502AEF0EF0B2C06DF0EE
:1018E800010E6E6E010CB4C06DF0010E6E6E010C2F
:1018F800B6C06DF0010E6E6E010C63C05BF064C083
:101908005CF05E6A0A0E5D6EA4EC0BF04B50020DA3
:10191800F350B20FD96EDA6A5BC0DEFF5CC0DDFF40
:1019280063C05BF064C05CF05E6A0A0E5D6EFCEC3E
:101938000AF05BC063F05CC064F063C063F064C02D
:1019480064F012001ED8F294114A122AD00E115CCB
:10195800070E1258D8A01200486A0B0E486401D02E
:101968000DD06FEC0DF0DE0407E148505FEC0EF08F
:101978001150DE5E1250DD5A482AEFD7116A126AFA
:101988001200FB0ED76E1E0ED66E1E0C958E958C11
:10199800958A958889948D800F5057EC0EF0898A26
:1019A800898A000E83B8010E626E899A899A898A9B
:1019B800898A899A899A0F50C5EC0DF05B505C10A2
:1019C80001E012006250EBE112005D6E99EC0DF03F
:1019D80089848D90898A5D506EEC0BF00BD85D5030
:1019E80038EC0BF000D0898A899A958E958C958A67
:1019F80095881200898A899A899A898A12005E6E66
:101A08005B50030DE90E5C6E1F0E5D6EF3505C2695
:101A1800F4505D225E505C26000E5D225CC0F6FF2D
:101A28005DC0F7FF0800F5CF46F0465012004B6A3C
:101A380011D881EC0CF008D80DD881EC0CF004D842
:101A480009D881EC0CF000D063C065F064C066F082
:101A58004B2A120065C063F066C064F01200766E0F
:101A68000C0E7618D8A4120072C06CF073C06DF01A
:101A780075C06EF070502AEC0EF072C06CF074C035
:101A88006DF075C06EF071502AEF0EF04B6A506A17
:101A98001C6A1F6A0CD80001B66BB76BB46BB56BC8
:101AA800B26BB36B4E6A516A206A496A12000E6AB9
:101AB8000D6A0C6A0B6A1200486A05D0482A0C0E97
:101AC800481801E1FF0C07D8DE04F8E004D8010E3D
:101AD800DF6E485012004850030DF350820FD96E44
:101AE800DA6A1200D09EF28EF28CF28AF294080E14
:101AF800D56EC5EC0CF0D58E486A0B0E486401D043
:101B08000B0C6FEC0DF0DF6A482AF7D75D6E0DD825
:101B180089948D90898A5D506EEC0BF0FEEC0CF088
:101B28005D5038EC0BF0F7EF0CF0959E959C959A6C
:101B380095981200D9CF56F0DACF57F0F3CF58F076
:101B4800F4CF59F0A6EC0CF059C0F4FF58C0F3FFDD
:101B580057C0DAFF56C0D9FF799211005B505D0279
:101B6800F3CF5FF0F4CF60F05B505E02F350602675
:101B78005C505D02F35060265FC05BF060C05CF0B3
:101B880012005F6E11C060F012C061F05F505FEC30
:101B98000EF0DECF5DF0DDCF5EF05D50605C5B6E19
:101BA8005E5061585C6E120060EC0DF02B6E60ECBC
:101BB8000DF02A6E2B5057EC0EF02A5057EC0EF011
:101BC8009394010E296E4A6A1200400EAF6EC00E41
:101BD8009412240EAC6E900EAB6EB896948C948EC4
:101BE80060EC0DF01E6E1E5057EF0EF0716E7150C6
:101BF80003E0715030EF0CF070C06CF002D82AEF9F
:101C08000EF0200E6D6E6E6A095012005C6E5B6AF3
:101C1800800E5C6403D05C50800F05D0800E5C6041
:101C280003D05C5080085B6E5B501200625057EC2A
:101C38000EF06250C5EC0DF064505B5C5C50800A9D
:101C4800666E6550800A6658F4E312006F6E6CC0C9
:101C580063F06F5075EC0AF06E5004E06D50300F71
:101C680030EF0CF06D5030EF0CF0E7EC0EF0256A19
:101C78005B6A5B507CEC01F0DE6ADD6A5B2A130E5E
:101C88005B64F7D7266A1200156A166A136A146A23
:101C98004C6A60EC0DF0226E225057EC0EF0506A40
:101CA800246A516A12005B6E5B5005D811C0DEFFD2
:101CB80012C0DDFF1200030DF350800FD96EDA6AEF
:101CC8001200938A93889386959695949592959009
:101CD80060EC0DF0476E230E466E230C6C6E6CC0E4
:101CE80063F0000E75EC0AF02D0E30EC0CF03E0E91
:101CF80030EF0CF095EC0EF0010EC36FC26B17506D
:101D080057EC0EF01A6A010E196E010CCAEC0CF0B1
:101D1800010E8AEC0DF078EC09F0030E646E1AEFF0
:101D28000EF0056A066A0001BE6B010EBF6F036AFA
:101D3800046A016A026A1200050EC26E0D0EC16EB7
:101D4800440EC06E92809282386A376A1200506AD6
:101D5800010E2E6E636E505075EC0AF02D5057EF41
:101D68000EF03C5057EC0EF03D6A95EC0EF03B6AD5
:101D78003E6A3A6A120060EC0DF02D6E526A316AC2
:101D8800D9EC0EF04B6A1200B5EC0EF021EC05F020
:101D980060EC0DF03C6E4F6A1200000E72EC0EF013
:101DA800636A020E75EC0AF0000C2F6A356A506AF5
:101DB8004B6A516A326A306A12006C6E6C5030ECB1
:101DC8000CF006EF0FF0516A276A020E506E286A6F
:101DD80012000C150F0D0F0E0D0E0D0F590E4E6E35
:101DE8000F0E4F6E0F0CCAEC0CF00E0E8AEF0DF0B2
:101DF800CAEC0CF00C0E8AEF0DF060EC0DF0176ECB
:0A1E08007EEF0EF0512A502A12005E
:101E140000312E204E65772047616D65200000005B
:101E2400000000000000000000000000000000327C
:101E34002E2053686F7720746F7020352073636F82
:101E440072657320000000000000000000332E20A3
:101E540053686F772055736572732000000000008B
:101E64000000000000000000000000342E204D6F30
:101E74006469667920557365727320000000000060
:101E8400000000000000000000352E2053686F772A
:101E94002054696D6520000000000000000000006F
:101EA40000000000000000362E204D6F6469667942
:101EB4002054696D6520000000000000000000004F
:101EC4000000000000312E2053656C6563742055BA
:101ED4007365722000000000000000000000000094
:101EE400000000322E204E65772055736572200065
:101EF40000000000000000000000000000000000DE
:101F040000312E2045646974204E616D6520000007
:101F1400000000000000000000000000000000328B
:101F24002E2044656C65746520557365722000002D
:101F340000000000000000000000000000326162A8
:101F440063200000336465662000003467686920FC
:101F54000000356A6B6C200000366D6E6F20000047
:101F640037707172732000387475762000003977E9
:101F740078797A2000456E746572204E6577205416
:101F8400696D65202848483A4D4D293A2000456E30
:101F9400746572204E6577204E616D653A200000AD
:101FA400000000456E746572204E616D653A200034
:101FB4000000000000000000486967682073636F38
:101FC40072653A20000000486967682073636F7285
:101FD400653A2000000043757272656E742054697E
:101FE4006D653A20003132333435363738392A308A
:0C1FF4002353636F72653A200000000068
:020000040020DA
:08000000FFFFFFFFFFFFFFFF00
:020000040030CA
:0E000000FF02191EFF8181FF03C003E00340D1
:00000001FF
