:020000040000FA
:0400000019EF00F004
:100008004082D9CF24F0DACF25F0F3CF26F0F4CF11
:1000180027F0F1EC05F027C0F4FF26C0F3FF25C058
:0E002800DAFF24C0D9FF4092110085EF06F0E8
:1002000000312E504C415920412047414D450000BE
:1002100000000000000000000000000000322E4D31
:100220004F444946592054494D4500000000000004
:10023000000000000000000000332E53484F5720FC
:1002400047454E4552414C20544F50203520534392
:100250004F52455300342E4C4F474F555400000029
:10026000000000000000000000000000000000008E
:1002700000555345523A00505357443A00313233F7
:100280003435363738392A30233100000000004138
:100290004243320000444546330000474849340099
:1002A000004A4B4C3500004D4E4F36000050515225
:1002B0005337005455563800005758595A390031B1
:1002C0002E4C4F47494E00000000322E5245474900
:1002D00053544552000098D0000E396E000E13ECB6
:1002E00004F0020E0E18D8A41200A9EC07F0000EBC
:1002F000EFEC06F0020E3F6E12002CEC07F0000946
:10030000D8B412004CEC07F0D00F0C6E0C04D8B42B
:1003100004D0020E0C18D8A412003CEC07F0000E1A
:10032000306E000E71EC04F0010EEFEC06F0000EE2
:100330000E6E0EC00DF0030E3F6E1200000E396EF1
:10034000010E13EC04F0020E0E18D8A41200000ED9
:100350000E6E050E0D6E0EC030F00D5071EC04F0F7
:10036000A3EC07F0040E3F6E12000B0E0D6408D0D4
:10037000BEEC07F00009D8A403D0050E3F6E1200B2
:100380002CEC07F00009D8B41200BEEC07F0020A0A
:10039000D8A406D00EC030F00D5071EC04F00D065C
:1003A0004CEC07F0230AD8B4E8D7B5EC07F00DEC15
:1003B00005F00D2A1200010E0E6E050E0D6E010ED7
:1003C000EFEC06F00EC030F00D5071EC04F0060EAC
:1003D0003F6E12002CEC07F00009D8B41200BEECFE
:1003E00007F0020AD8A406D00EC030F00D5071EC10
:1003F00004F00D064CEC07F0230AD8B41200B5EC5B
:1004000007F00DEC05F0D5D73F503D6E3E6A3E50EB
:10041000000AD8A412003D50010AD8B45DD7030ADF
:10042000D8B46BD7010AD8B489D7070AD8B49DD7F6
:10043000010AD8B4C0D7030AD8A41200CBD77DD004
:1004400081B081A20BD081A409D08A968A888A8A39
:100450008A8C010E186E000E206E1200040E186EAB
:10046000120081B081A2FAD781A4F8D78A868A982F
:100470008A8A8A8C020E186E010E206E120081B0DC
:1004800081A2ECD781A4EAD78A868A888A9A8A8C44
:10049000030E186E020E206E120081B081A2DED70C
:1004A00081A4DCD78A868A888A8A8A9C030E206E79
:1004B000000E186E1200050E186E1F5086EC07F025
:1004C00012001F5005EC07F029BE1200295004E16C
:1004D000190E285CD8A0120081B081A205D081A499
:1004E00003D0000E186E1200010E1B6E060E186E61
:1004F000120081A0120081A2120081A412001F50DC
:1005000086EC07F0070E186E12001F5005EC07F07E
:1005100029BE1200295004E1190E285CD8A012004F
:1005200081B081A207D081A405D0000E1B6E000E01
:10053000186E1200060E186E120018502F6E306AD8
:100540003050000AD8A412002F50000AD8B478D72F
:10055000010AD8B486D7030AD8B491D7010AD8B40F
:100560009CD7070AD8B4A7D7010AD8B4AAD7030AD8
:10057000D8B4BFD7010AD8A41200C7D7366E68EC2A
:1005800006F0356E3550016E026A36C016F034C082
:1005900015F0000E136E13C014F0959C959A959863
:1005A000000E386E000E376E01C02FF002C030F022
:1005B000000E326E640E316E1BEC07F0030E4CEC35
:1005C00005F001C02FF002C030F0000E326E050EB3
:1005D000316E1BEC07F0030E4CEC05F001C02FF060
:1005E00002C030F0000E326E010E316E1BEC07F0CF
:1005F000030E4CEC05F001C02FF002C030F0000EED
:10060000326E010E316E1BEC07F0020E4CEC05F061
:1006100001C02FF002C030F0000E326E010E316EBC
:100620001BEC07F0280ED6EC06F048EC06F0080E9E
:10063000D6EC06F048EC06F0010ED6EC06F001C050
:100640002FF002C030F0000E326E030E316E1BEC44
:1006500007F048EC06F0060ED6EC06F048EC06F083
:100660000F0ED6EC06F0374A382A38BE9DD73850E0
:1006700005E1020E375CD8B0120096D7120054D0B4
:1006800019C08BFF1E5005EC07F029BE10D0E80EF4
:10069000285C030E2958D8A00AD0000E1C6E000E4C
:1006A0001A6E000E196E1E5086EC07F012001B50D9
:1006B000D8B418D0010E176E4CEC07F01D6E020E68
:1006C000196E1A50D8B40AD01D501C18D8B406D0D0
:1006D000010E196E1DC01CF0000E1A6E1E5086EC25
:1006E00007F012001DC01CF012001A2A020E176E2D
:1006F00012001B50D8A412001E5086EC07F0000E0A
:10070000176E12001B50D8B41200040E176E1200A0
:10071000050E176E12001B50D8A412001E5086EC56
:1007200007F0030E176E120017502F6E306A30500C
:10073000000AD8A412002F50000AD8B4A1D7010A89
:10074000D8B4D3D7030AD8B4D4D7010AD8B4DAD7E7
:10075000070AD8B4DDD7010AD8A41200DCD74BD0E1
:10076000C2B21200C4CF09F0C294010E076EC28259
:100770001200C2B21200C4CF0AF0C284020E076E89
:1007800012000850D8B40ED0630E0A6421D0970E20
:100790000A601ED0630E09641BD0970E096018D042
:1007A000000E15D00B0E0A6002D0410E0ED0EF0ED7
:1007B0000A6402D0440E09D00B0E096002D0530E19
:1007C00004D0EF0E096404D0570E0B6E010E086EB4
:1007D0000A0E076E1200AFEC07F00009D8B4120041
:1007E0000B50BAEC07F0000E076EC2821200000E2A
:1007F000076EC28212000750296E2A6A2A50000A28
:10080000D8A412002950000AD8B4AAD7010AD8B433
:10081000B0D7030AD8B4B5D7060AD8B4DCD70E0AC5
:10082000D8A41200E4D73C6E3C50D8A432D0395042
:100830000B0DF3CF3AF00E500B0DF350BF0F3A24CF
:100840000D243B6E3BC0F6FF020EF76E0800F5501C
:100850000009D8B415D039500B0DF3CF3AF00E5033
:100860000B0DF350BF0F3A240D243B6E3BC0F6FF37
:10087000020EF76E0800F5500DEC05F00D2A12007F
:100880000E2A010E306E000E71EC04F0000E0D6E9B
:1008900012003C04D8A412000E50060DF350710F44
:1008A0000D243A6E3AC0F6FF020EF76E0800F550BE
:1008B0000009D8B40FD00E50060DF350710F0D245F
:1008C0003A6E3AC0F6FF020EF76E0800F5500DECD6
:1008D00005F0D4D70E2A010E306E000E71EC04F034
:1008E000D5D7376E36D03050D8B404D0000E346E21
:1008F000400E03D0000E346E000E336E375033249A
:10090000356E000E3420366E36D037C035F0366A7C
:100910003004D8A402D0400E05D0020E3018D8A45E
:1009200004D015503526000E0ED0030E3018D8A472
:1009300022D01550316E326A400E3126000E32221E
:10094000315035263250362216D037C035F0366A4F
:1009500012D01650316E326A3250000AD8A4F5D740
:100960003150010AD8B4F1D7030AD8B4BCD7060A6B
:10097000D8B4CBD7EAD748EC06F035508009D6EC8E
:1009800006F030C014F037C013F012002C6ED00EF9
:10099000286EFF0E296E2C502A6E2B6A28502A26AC
:1009A00029502B222B5004E1020E2A5CD8A033D010
:1009B000D00E286EFF0E296E2C502A6E2B6A2850FE
:1009C0002A2629502B222B5026E10A0E2A5CD8B069
:1009D00022D02C50060DF350890F1A24286ED90E00
:1009E000282628C0F6FF020EF76E0800F550000911
:1009F000D8A402D0010E1A6E2C50060DF350890FA8
:100A00001A24286ED90E282628C0F6FF020EF76E8B
:100A10000800F55012002C501200386E48EC06F019
:100A20003850BDEC06F0132A030E1618D8A411D0C6
:100A3000130E13641200000E136E142A030E1464B6
:100A400002D0000E146E14C030F0135071EC04F09C
:100A50001200020E1618D8A411D0270E136412002B
:100A6000000E136E142A010E146402D0000E146ED0
:100A700014C030F0135071EC04F012001404D8A428
:100A80001200270E136402D0000E136E14C030F053
:100A9000135071EC04F01200296E9596959495927E
:100AA00095908C988C9A8C8C8C8C29A603D0286A73
:100AB000282A01D0286A2846284628468C5028181B
:100AC000F70B28188C6E29A403D0286A282A01D095
:100AD000286A284628468C502818FB0B28188C6E4C
:100AE00029A203D0286A282A01D0286A28468C50D7
:100AF0002818FD0B28188C6E29A003D0286A282AF4
:100B000001D0286A8C502818FE0B28188C6E8C9CFB
:100B10001200296E29A603D0286A282A01D0286A43
:100B20002846284628468C502818F70B28188C6E23
:100B300029A403D0286A282A01D0286A28462846F2
:100B40008C502818FB0B28188C6E29A203D0286A19
:100B5000282A01D0286A28468C502818FD0B28180E
:100B60008C6E29A003D0286A282A01D0286A8C50CC
:100B70002818FE0B28188C6E1200296E29AE03D09F
:100B8000286A282A01D0286A2846284628468C50F8
:100B90002818F70B28188C6E29AC03D0286A282A4D
:100BA00001D0286A284628468C502818FB0B2818A4
:100BB0008C6E29AA03D0286A282A01D0286A2846E0
:100BC0008C502818FD0B28188C6E29A803D0286A91
:100BD000282A01D0286A8C502818FE0B28188C6E01
:100BE0001200D80ED76EF00ED66EF294034A042A85
:100BF000300E035C750E0458D8A01200000E216E52
:100C0000180E216401D015D02150030DF350820F2E
:100C1000D96EDA6ADE04D8A40AD02150030DF3504D
:100C2000800FD96EDA6A0350DE5E0450DD5A212A45
:100C3000E7D7000E046E000E036E12009CEC07F066
:100C4000A1EC06F068EC06F0226E6BEC07F05CECB1
:100C500007F0100E346E020EBEEC02F07AEC07F0D4
:100C6000225005EC07F029BE0AD0E80E285C030EDE
:100C70002958D8A004D0891E225086EC07F03FECFA
:100C800003F01FEC02F06BEC01F0AFEC03F0E8D7DF
:100C900095869584958295808C988C8A015086ECF7
:100CA00007F08C8C8C8C000E83B6010E2F6E8C9C02
:100CB0008C9C8C8C8C8C8C9C8C9C015005EC07F053
:100CC00028502910D8A412002F50D8B41200E9D708
:100CD000000E216E07D0212A190E2118D8A402D0A7
:100CE000FF0E12002150030DF350820FD96EDA6A05
:100CF000DE04D8B4F0D72150030DF350820FD96E23
:100D0000DA6A010EDF6E21501200800EF66E0F0EB1
:100D1000F76E000EF86E0900F5CF3FF000EE80F0A0
:100D20004B0EEE6AE806FDE100EE01F0220EEE6ADF
:100D3000E806FDE140904092000EF86E00011EEFC3
:100D400006F0D09EF28EF28CF28AF294080ED56EE6
:100D5000D80ED76EF00ED66ED58E000E216E180E00
:100D6000216401D012002150030DF350820FD96E7F
:100D7000DA6A000EDF6E212AF2D72A6E95969594D4
:100D8000959295908C888C9A8C8C2A50BDEC05F0AD
:100D90008C8C8C9C8C9C8C8C2A5089EC05F08C8CD7
:100DA0008C9C958695849582958012002A6E9596E6
:100DB0009594959295908C988C9A8C8C2A50BDEC39
:100DC00005F08C8C8C9C8C9C8C8C2A5089EC05F0CA
:100DD0008C8C8C9C95869584958295801200296ECA
:100DE0002904D8A40CD0000E1C6E000E1A6E000E42
:100DF000196E020E176E1E5086EC07F01200295075
:100E0000D8A41200040E176E12002C6E03C02DF031
:100E100004C02EF02C50030DF350800FD96EDA6A07
:100E2000DECF2AF0DDCF2BF02A502D5C286E2B5020
:100E30002E58296E12002F5086EC07F02F5005EC2B
:100E400007F03150285C2950800A336E3250800AF6
:100E50003358D8B01200F2D7000E286E1B50D8B409
:100E600009D01704D8B404D0040E1718D8A402D09F
:100E7000010E286E2850120048EC06F0010ED6EC48
:100E800006F001C02FF002C030F0000E326E030EEB
:100E9000316E1BEC07F0120092EC07F0286E205028
:100EA000030DF3507D0F2824296E29C0F6FF020E92
:100EB000F76E0800F5501200F19E938093829384A0
:100EC00093969398939A939C68EC06F01F6E68EC47
:100ED00006F01E6E120092809282030EC26E0D0EFC
:100EE000C16E440EC06E9490949294949496000EA9
:100EF000086E1200400EAF6EC00E9412240EAC6E3F
:100F0000900EAB6EB896948C948E1200286E28507A
:100F1000030DF350800FD96EDA6A03C0DEFF04C000
:100F2000DDFF120081B002D0000E120081B202D0AB
:100F3000010E1200020E1200000ED36E040E9B6E04
:100F40009B8C9296120048EC06F00E0ED6EC06F042
:100F5000120048EC06F00C0ED6EC06F01200ACA223
:100F600002D0010E1200000E12004CEC07F0C6EC8D
:100F700004F01200286E28C0ADFF120019501200B4
:010F8000016F
:020000040020DA
:08000000FFFFFFFFFFFFFFFF00
:020000040030CA
:0E000000FF02191EFF0181FF03C003E0034051
:00000001FF
