:020000040000FA
:0400000019EF00F004
:100008007282D9CF55F0DACF56F0F3CF57F0F4CF4C
:1000180058F0CDEC09F058C0F4FF57C0F3FF56C0B4
:0E002800DAFF55C0D9FF72921100ABEF09F05C
:1002000000312E4C4F47494E00000000322E52451F
:1002100047495354455200555345523A005053579D
:10022000443A003132333435363738392A30230EE8
:100230000E1C09312E504C415920412047414D455B
:10024000000000000000000000000000000000327C
:100250002E4D4F444946592054494D450000000059
:100260000000000000000000000000332E53484F43
:10027000572047454E4552414C20544F5020352081
:1002800053434F52455320342E4C4F474F55540043
:10029000000000000000000000000000000000005E
:1002A00000000031000000000041424332000044E1
:1002B00045463300004748493400004A4B4C35005E
:1002C000004D4E4F36000050515253370054555692
:1002D0003800005758595A3900001AD2000E6A6E79
:1002E00074EC05F0020E4318D8A4120053EC0BF086
:1002F000000E98EC0AF0020E716E020C25EC0BF069
:100300000009D8B4120018EC0BF0D00F406E400476
:1003100004E0020E4018D8A4120031EC0BF0000EDD
:10032000616AB9EC07F0010E98EC0AF0436A426A80
:10033000030E716E030C000E6A6E010E74EC05F074
:10034000020E4318D8A41200436A050E426E3CDA2E
:10035000B9EC07F04EEC0BF0040E716E040C0B0EB2
:1003600042640BD0445085EC0AF05ABE06D0B4EC7F
:1003700007F003E3050E716E050C25EC0BF0000988
:10038000D8B4120044500AEC0BF077EC0BF0020AE0
:1003900004E11ADAB9EC07F0420618EC0BF0230A74
:1003A000E9E007DA5DEC0BF0DF6E03DADF5081EC99
:1003B00009F0422A1200FDD9DF6A010E436E050ED4
:1003C000426E010E98EC0AF0FFD9B9EC07F0060E68
:1003D000716E060C25EC0BF00009D8B4120077EC16
:1003E0000BF0020A04E1F0D9B9EC07F0420618EC70
:1003F0000BF0230A09E0D8D95DEC0BF0DF6ED4D9FD
:10040000DF5081EC09F0D5D7CFD9DF6A070E716EC6
:10041000070C40040CE120EE13F000EECBF0110EBF
:10042000DBCFEBFFE806FCE2AAEC0AF00BD020EEF3
:1004300013F000EE59F0110EDBCFEBFFE806FCE203
:10044000CDEC0AF0080E716E080C65EC0BF000099B
:10045000D8B41200400412E1000E98EC0AF07FECD0
:100460000BF0000904E1090E716E406A1BD07FECAD
:100470000BF0E80617E1010E716E14D07FEC0BF063
:10048000030A08E1010E98EC0AF0030E716E010EEA
:10049000406E08D07FEC0BF0040A04E1000E98ECEB
:1004A0000AF0E9D731EC0BF0000E616AB9EC07F005
:1004B000436A426A120040C06AF0020E74EC05F012
:1004C000020E43180FE0405043C06FF0706A6F2671
:1004D000000E702270BE000C705004E1040E6F5CC0
:1004E000D8A0120053EC0BF00A0E716E0A0C7BECD4
:1004F0000BF00009D8A412000B0EA9D044500AEF4B
:100500000BF0445085EC0AF05ABE16D0580E595CD8
:10051000020E5A5811E3412A310EF66E020EF76EA2
:100520000800F5CF59F0415072EC0AF0416E090E07
:10053000716E31EC0BF0BCD77BEC0BF0000911E0D5
:100540007DEC0BF0530A05E1040E406002D0402A16
:10055000EED77DEC0BF0570AEAE14050E8E04006A8
:10056000E6D725EC0BF00009D8B4120018EC0BF01C
:10057000230AD8A41200405004E1406A0C0E716EA8
:100580000C0C4028140DF3CF71F0120074EC0BF03A
:100590000009D8B4120012D969EC0BF00FD903E1AD
:1005A0000D0E716E0D0C402A120071EC0BF000095B
:1005B000D8B4120079EC0BF0406E4B0E4018D8A462
:1005C00012000E0E716E010E61EF0BF001D974EC8A
:1005D00005F0020E4318D8A4120053EC0BF00F0ED6
:1005E000716E0F0C25EC0BF00009D8B4120018EC5A
:1005F0000BF0406E2A0E401803E0230E401807E16E
:100600002A0E4018D8A41200110E716E110C100E93
:10061000716E100C74EC0BF00009D8B4120040504D
:1006200069EC0BF0DCD774EC0BF00009D8B41200C5
:10063000460E69EC0BF0120E716E120C71EC0BF0A1
:100640000009D8B4120079EC0BF03F6E140E716EF5
:1006500055D7BED874EC05F0020E4318D8A412008A
:10066000140E716E140C445085EC0AF05ABE0ED074
:10067000100E595C0E0E5A5809E3160E716E31ECCD
:100680000BF043D0000E616AB9EF07F071EC0BF08C
:100690000009D8B4120079EC0BF0406E150E716EA3
:1006A000150C71EC0BF00009D8B4120079EC0BF0CA
:1006B000416E130E716E31EC0BF027D0000E6A6E96
:1006C000040E74EC05F0020E4318D8A41200170EA5
:1006D000716E170C25EC0BF00009D8B4120018EC61
:1006E0000BF0230AD8A412003F5046EC0BF0180E72
:1006F000716E180C65EC0BF00009D8B41200090EED
:10070000716E31EC0BF0416A406A436A426ABAD7B3
:1007100071506F6E706A7050D8A412006F50010A49
:1007200001E1DCD5030A01E1E9D5010A01E103D6C3
:10073000070A01E114D6010A01E13DD6030A01E1ED
:1007400049D6010A01E165D60F0A01E17ED6010A08
:1007500001E1B1D6030A01E1CAD6010A01E1D1D60D
:10076000070A01E113D7010A01E11FD7030A01E1DA
:100770002DD7010A01E136D71F0A01E14BD7010A43
:1007800001E151D7030A01E159D7010A01E161D71B
:10079000070A01E168D7010A84E0030A8FE0010A31
:1007A00099E00F0AA7E012004250180FD96EDA6ADA
:1007B000120042500F0FD96EDA6A12004050130F28
:1007C000D96EDA6ADF50120043C061F04250120065
:1007D000000E6A6E030C0AD1020E356E080E371831
:1007E00003E0020E386E020C010E356E386A1200FC
:1007F000365045D937D90DE159D909E1030E386E84
:10080000010E616E0A0EB9EC07F0366A1200362A44
:100810001200040E386E040C55D93750120D000E1C
:100820006A6E010E6B6E090E6A26000E6B221AD9D3
:10083000F0E148D9DF50EBE1386A356A1200366AD8
:10084000372A010E386E010C080E371803E0060E29
:10085000386E060C0A0E386E0A0C365010D902D9C2
:1008600006E124D9D4E1386A040E356E040C070E73
:10087000386E070C366A372A050E386E050C345070
:1008800040EC08F013D9A86E3650010FD96EDA6A21
:100890001ED9FFD8A69EA69CA684F29E550EA76ED2
:1008A000AA0EA76EA682F28EA6940B0E386E0B0CC3
:1008B000A6B21200FBD802E0362ACCD7366A0C0E5C
:1008C000386E0C0C34503AEC08F0FCD8DF50A86EAF
:1008D000F9D8FDD8090E6926000E6A22DAD8A69E3C
:1008E000A69CA684F29E550EA76EAA0EA76EA6829F
:1008F000F28EA6940D0E386E0D0CA6B21200E2D840
:10090000DF5002E0362ADBD7366A0E0E386E0E0C48
:100910003428070B346E950EA96E34C0A8FFA69E2E
:10092000A69CA684F29E550EA76EAA0EA76EA6825E
:10093000F28EA6940F0E386E0F0CA6B21200030EA4
:1009400054D7050E361811E13550B6D83350DE5C59
:1009500001E34CD73550B0D833C0DFFF3550BED897
:1009600037C0DFFF150E386E150C3550A5D8365040
:10097000020DF350250FE16EE26ADE50E65C01E302
:1009800046D736C035F043D73550020DF350900F9F
:10099000A96E33C0A8FFA69EA69CA684F29E550E03
:1009A000A76EAA0EA76EA682F28EA694160E386EB9
:1009B000160CA6B21200170E386E170C3550020D29
:1009C000F350910FA96E37C0A8FFA69EA69CA684DF
:1009D000F29E550EA76EAA0EA76EA682F28EA69460
:1009E000180E386E180CA6B2120000D73850696E77
:1009F0006A6A6A50D8A412006950D8B41200010A79
:100A000001E1EAD6030A01E1F3D6010A01E104D7C4
:100A1000070A01E114D7010A01E116D7030A01E12F
:100A20001CD7010A01E126D70D0A01E128D7010AE6
:100A300001E13ED7070A01E145D7010A01E15DD78F
:100A4000030A01E165D7010A01E177D71B0A01E139
:100A500078D7010A99E0030AACE0010AAFE00F0A77
:100A6000C2E01200F3506A26F4506B2236506A241A
:100A7000E16E000E6B20E26EDE50E6181200010FF0
:100A8000D96EDA6A3750120D000E6A6E010E6B6E67
:100A90001200F3506926F4506A2236506924E16E40
:100AA000000E6A20E26EDFCFE7FF12003650010F22
:100AB000D96EDA6ADF501200020DF350250FD96E9D
:100AC000DA6A120036500A0FD96EDA6A1200345010
:100AD000120D000E696E010E6A6E1200020DF350C7
:100AE000260FD96EDA6A12006E6E6E500EE188D84B
:100AF00066D806E085D863D881EC09F0422A120056
:100B000089D8B9EC07F0426A12006E040CE172D881
:100B100056D805E06FD853D881EC09F0EFD77AD8D2
:100B2000B9EC07F0F0D7020E6E18D8A412006A5084
:100B300043C06BF06C6A6B26000E6C226CBE06D054
:100B40006C503CE1040E6B5CD8B012005FD86B6E49
:100B50006BC0F6FF020EF76E100E0800F56422D08F
:100B600042601CD042504124596E5A6A5A364ED8BF
:100B700026D85B6E5C6ABAEC08F06A501C0DF3CFA5
:100B80006CF043501C0DF350330F6C2459246D6EE0
:100B90006DC0F6FF1CD881EC09F0B0D73BD8B9EC9A
:100BA00007F0B1D719D813D805E016D810D881ECC2
:100BB00009F0A4D72FD8B9EC07F0A5D712006B6EB7
:100BC0006BC0F6FF020EF76E0800F5501200020E21
:100BD000F76E0800F55012006A501C0DF3CF6BF051
:100BE00043501C0DF350330F6B2442246C6E6CC0C9
:100BF000F6FF12004350060DF350170F4224120067
:100C000043500B0DF350010F4224120043502F0F9D
:100C10006A241200432A010E616E000C70D081B06C
:100C200081A20AD081A408D08A968A888A8A8A8C6E
:100C3000010E4A6E526A1200040E4A6E040C81B014
:100C400081A2FAD781A4F8D78A868A988A8A8A8C60
:100C5000020E4A6E010E526E010C81B081A2ECD7D9
:100C600081A4EAD78A868A888A9A8A8C030E4A6E79
:100C7000020E526E020C81B081A2DED781A4DCD7B5
:100C80008A868A888A8A8A9C030E526E4A6A120071
:100C9000050E4A6E51500AEF0BF0515085EC0AF0E8
:100CA0005ABE12005A5004E1190E595CD8A0120025
:100CB00081B081A202D081B4E9D7010E4D6E36D049
:100CC00081B081A2120081A4120051500AEC0BF0F5
:100CD000070E4A6E070C515085EC0AF05ABE1200FE
:100CE0005A5004E1190E595CD8A0120081B081A2BB
:100CF0001DD081A41BD04D6A4A6A120017D04A50F9
:100D0000606E616A6150D8A41200605088E0010AE8
:100D100096E0030AA2E0010AAEE0070AB9E0010A80
:100D2000BCE0030ACDE0010AD6E01200060E4A6ECE
:100D3000060C666E5CEC0AF02F6E306A66C048F0F6
:100D400065C047F0456A466A959C959A9598676A8A
:100D5000686A4CD8640E626EDDEC0AF0030E45EC56
:100D600008F044D8050E626EDDEC0AF0030E45EC87
:100D700008F03CD8010E626EDDEC0AF0030E45EC83
:100D800008F034D8010E626EDDEC0AF0020E45EC7C
:100D900008F02CD8010E626EDDEC0AF0280EFCEC97
:100DA0000AF0EFEC09F0080EFCEC0AF0EFEC09F0A9
:100DB000010EFCEC0AF01AD8030E626EDDEC0AF0AC
:100DC000EFEC09F0060EFCEC0AF0EFEC09F00F0E68
:100DD000FCEC0AF0674A682A68BEBBD7685005E198
:100DE000020E675CD8B01200B4D712002FC060F0BA
:100DF00030C061F0636A12003AC08BFF4CD0C2B2BF
:100E00001200C4CF3CF0C284C296010E3A6EC28278
:100E1000010CC2B21200C4CF3DF0C294C286020ED1
:100E20003A6E020C040E3A6E3B500FE0630E3D64C6
:100E3000630C970E3D60970C630E3C64630C970E39
:100E40003C60970C3B6A8B9012000B0E3D6008D003
:100E5000410E3E6E010E3B6E3950040F3A6E120089
:100E6000EF0E3D6402D0440EF4D70B0E3C6002D06E
:100E7000530EEFD7EF0E3C64EF0C570EEAD71BD0A2
:100E800074EC0BF00009D8B412003E5069EC0BF082
:100E900012D03A6A12003A505A6E5B6A5B50F9E11E
:100EA0005A50ADE0010AB5E0030ABCE0060A03E0CF
:100EB000010AE6E0EED73A6AC282120042D04D50F3
:100EC00020E0010E496E18EC0BF04F6E020E4B6ED7
:100ED000505085EC0AF05ABE07D046D805E3010E03
:100EE0004B6E4C6A4E6A0AD04C5008E04F504E1878
:100EF00005E0010E4B6E4FC04EF04C6A50500AEFA9
:100F00000BF04FC04EF012004C2A020E496E020C3C
:100F10004D50D8A4120050500AEC0BF0496A120050
:100F20004D50D8B41200A7EF0AF0050E496E050C1B
:100F30004D50D8A4120050500AEC0BF0030E496E2D
:100F4000030C4950606E616A6150D8A41200605071
:100F5000B6E0010AD9E0030ADBE0010AE1E0070A92
:100F6000E4E0010AE5E01200B00E595C040E5A58A4
:100F70001200686E30D0615004E0656A400E646E05
:100F800002D0646A656A68506424666E000E65204B
:100F9000676E2ED068C066F0676A610402E1400E99
:100FA00004D0020E611804E147506626000E0DD0F1
:100FB000030E61181DE14750626E636A400E62269F
:100FC000000E6322625066266350672211D068C00B
:100FD00066F0676A0DD04850626E636A6350F7E14D
:100FE0006250010AF4E0030AC6E0060AD3E0EFD734
:100FF000EFEC09F066508009FCEC0AF061C046F0A5
:1010000068C045F01200366A080E366401D00AD076
:10101000A69EA69C375034D8A680A6B0FED723D86B
:1010200014D8F2D7366A080E366401D0080CA69E92
:10103000A69C37501FD8A680A6B0FED714D8090E9C
:101040005926000E5A2201D8EED7F3505926F450F3
:101050005A2236505924D96E000E5A20DA6EA8CF83
:10106000DFFF362A12003750120D000E596E010EA6
:101070005A6E1200180DF3503624090FA96E120093
:10108000180DF3503624A96E12005A6E95962FD87B
:101090008C8C5AA603D0596A592A01D0596A5946EC
:1010A0002DD8F70B59188C6E5AA403D0596A592AB7
:1010B00001D0596A23D8FB0B59188C6E5AA203D061
:1010C000596A592A01D0596A59468C505918FD0B52
:1010D00059188C6E5AA003D0596A592A01D0596AFE
:1010E0008C505918FE0B59188C6E8C9C12009594DC
:1010F000959295908C988C9A8C8C120059465946F2
:101100008C5059181200386A376A070E376401D0BC
:1011100004D003EC08F0372AF8D7366A090E366493
:1011200001D01BD0A69EA69C3650900FA96EA6801B
:1011300036505CEC05F0A8CFDFFFA69EA69C36508B
:10114000910FA96EA680A6B0FED736506EEC05F0C2
:10115000A8CFDFFF020E3626E1D7A69EA69C950EED
:10116000A96EA680A6B0FED7A8CF34F03428D8B494
:10117000346A12005E6A5AAE06D0596C5A1ED8B054
:101180005A2A010E5E6E5CAE04D05B6C5C1ED8B059
:101190005C2A5B505C1017E0010E5D6E04D0D890A5
:1011A0005B365C365D2A5CAEFAD75B50595C5C50AE
:1011B0005A5804E35B50595E5C505A5AD8905C32DE
:1011C0005B325D2EF2D75E5004E0596C5A1ED8B0E7
:1011D0005A2A59C059F05AC05AF012005A6E5AA6EB
:1011E00003D0596A592A01D0596A594625D8F70BB4
:1011F00059188C6E5AA403D0596A592A01D0596AD9
:101200001BD8FB0B59188C6E5AA203D0596A592A65
:1012100001D0596A59468C505918FD0B59188C6EDB
:101220005AA003D0596A592A01D0596A8C505918CA
:10123000FE0B59188C6E1200594659468C5059189D
:1012400012005A6E5AAE03D0596A592A01D0596A0F
:10125000594625D8F70B59188C6E5AAC03D0596AE9
:10126000592A01D0596A1BD8FB0B59188C6E5AAAFF
:1012700003D0596A592A01D0596A59468C505918D5
:10128000FD0B59188C6E5AA803D0596A592A01D0FF
:10129000596A8C505918FE0B59188C6E1200594619
:1012A00059468C50591812005D6E1FD803E1020E8A
:1012B0005B5C0EE31AD80CE10A0E5B5C09E20AD80B
:1012C000E7EC05F002E1010E4C6E04D8E7EF05F003
:1012D0005D5012005D50060DF350A30F4C24596E63
:1012E000D90E592659C0F6FFD90CD00E596E5A683E
:1012F0005D505B6E5C6A59505B265A505C225C50B4
:101300001200696EEFEC09F069502AEC0AF0452AE8
:10131000030E481807E1130E4564130C456A462A6C
:10132000030E09D0020E48180AE1270E4564270C67
:10133000456A462A010E466409D0466A07D046042B
:10134000D8A41200270E456401D0456A46C061F05A
:101350004550B9EF07F0020EF66E170EF76E000E4D
:10136000F86E0900F5CF71F001EE00F0900EEE6A14
:10137000E806FDE100EE80F04B0EEE6AE806FDE1C6
:1013800000EE01F0530EEE6AE806FDE172907292F3
:10139000000EF86E00010EEF0AF0200ED76E8A0ED6
:1013A000D66EF294314A322A300E315C750E3258C4
:1013B000D8A01200536A180E536401D00DD06BEC04
:1013C0000AF0DE0407E1535012EC0BF03150DE5E00
:1013D0003250DD5A532AEFD7316A326A12009586AD
:1013E0009584958295808C988C8A2F500AEC0BF00E
:1013F0008C8C8C8C000E83B6010E606E8C9C8C9C49
:101400008C8C8C8C8C9C8C9C2F5085EC0AF05950C9
:101410005A1001E012006050EBE1120046EC0AF0B5
:10142000BCEC0AF0EDEC0AF0100E656E020E99ECC1
:1014300006F03CEC0BF06DEC0BF083EC08F05EEC8E
:1014400007F00EEC06F06DEC01F0FCEC06F0EBECB6
:1014500003F0F5D75B6E95969594959295908C8850
:101460008C9A8C8C5B5021EC09F00BD85B50EEEC25
:1014700008F000D08C8C8C9C958695849582958004
:1014800012008C8C8C9C8C9C8C8C1200D09EF28ECA
:10149000F28CF28AF294080ED56ED80ED76EF00E4A
:1014A000D66ED58E536A180E536401D0180C6BECAF
:1014B0000AF0DF6A532AF7D7536A05D0532A190E68
:1014C000531801E1FF0C07D8DE04F8E004D8010E40
:1014D000DF6E535012005350030DF350820FD96E3C
:1014E000DA6A12005A6E080E5B6E5C6AD8905A3443
:1014F0005C345C6ED8905A3659505C5C02E35950AB
:101500005C5E5B2EF3D75C5012005D6E31C05EF006
:1015100032C05FF05D5012EC0BF0DECF5BF0DDCF40
:101520005CF05B505E5C596E5C505F585A6E120006
:101530005A6E5A0408E14E6A4C6A4B6A020E496EB2
:1015400050500AEF0BF05A50D8A4120000D0040EED
:10155000496E040C010E386E376A20EECBF010EEA7
:1015600001F0110EDBCFE3FFE806FCE2020E356E60
:10157000616A0A0EB9EF07F092809282030EC26E82
:101580000C0EC16E440EC06E9490949294943B6A7B
:10159000C282C294C2863A6A1200050E386E366A5A
:1015A000376A20EE59F010EE01F0110EDBCFE3FFA9
:1015B000E806FCE2020E356E020C60500AEC0BF0FD
:1015C000605085EC0AF06250595C5A50800A646E93
:1015D0006350800A6458F4E31200F19E9380938272
:1015E000938493969398939A939C5CEC0AF0516E33
:1015F0005CEC0AF0506E12005B6E959677EC08F08A
:101600005B5021EC09F041EC0AF05B50EEEC08F085
:101610003AEF0AF0596E595005D831C0DEFF32C09A
:10162000DDFF1200030DF350800FD96EDA6A12004D
:1016300058EC0BF0596E5250030DF350230F592400
:101640005A6E5AC0F6FFE7EF05F0596A4D5007E0B1
:10165000490403E0040E491802E1010E596E595085
:101660001200EFEC09F0010EFCEC0AF0F6EC06F0CB
:10167000030E626EDDEF0AF0948E948CAC84AC8A1B
:10168000AC98AB8EAB88B896AF681200596E59C053
:1016900033F0366A356A140E386E140CEFEC09F02C
:1016A0000E0EFCEF0AF0EFEC09F00C0EFCEF0AF066
:1016B00081A0000C81A2010C020C18EC0BF054EF7D
:1016C00009F0596E59C039F012003850D8B4010CE5
:1016D000000C596E59C0ADFF12005CEC0AF0446E6C
:1016E00012009EBA010C000CACB2010C000C4B5065
:1016F0001200AE5012003B5012003E501200355006
:03170000120001D3
:020000040020DA
:08000000FFFFFFFFFFFFFFFF00
:020000040030CA
:0E000000FF06191EFF0181FF03C003E003404D
:00000001FF
