:020000040000FA
:0400000019EF00F004
:100008007A82D9CF5AF0DACF5BF0F3CF5CF0F4CF35
:100018005DF0C2EC0DF05DC0F4FF5CC0F3FF5BC0A7
:10002800DAFF5AC0D9FF7A921100A6EF0CF003EC60
:100038000EF0010EBBEC0FF00EEC0BF0030E676E2A
:100048009BEF0FF09496396A8CEC0EF0386E8CECBE
:100058000EF0376E010E366E010C050E1E6E1F6A0D
:100068001D6A5EC00BF00C6A020E1C6E020C010EBB
:10007800126E000E666E0B0EA4EC0EF097EF00F0F9
:100088003B0E161803E1166A152A1200162A1200EA
:100098005E6EA69EA69C5EC0A9FFA680A850120010
:1000A800342AEAEC08F0A4EC0EF0336A1200385057
:1000B800ABEC0FF0010E396E010C5E6E010E246E72
:1000C8005EC022F0010C18C017F078C077F012005B
:1000D8001BEC00F0346A336A12001E0EE6EC08F0DE
:1000E800A4EF0EF003EC0EF00E0EBBEF0FF003ECD6
:1000F8000EF00C0EBBEF0FF08CEC0EF0356E316A83
:10010800120081A0000C81A2010C020C0E0E1C0929
:100118000C1E1E012450D8B4010C000C1350D8B486
:10012800010C000C00D0140E136E140C320E1E6E4F
:100138001C6A12008BEC0FF070EF0DF05E6E5EC063
:1001480029F012001E50D8B4010C000C8CEC0EF0F3
:10015800146E12005E6E5EC0ADFF12009EBA010CF6
:10016800000CACB2010C000C136A12001F6A1200DA
:100178001F2A12003E501200AE5012002B501200DF
:0C0188002E5012001C50120020501200DB
:10020000003132333435363738392A3023312E50E5
:100210004C415920412047414D450000000000005D
:10022000000000000000000000322E4D4F444946FF
:10023000592054494D450000000000000000000016
:100240000000000000332E53484F572047454E45CD
:1002500052414C20544F5020352053434F52455368
:1002600020342E4C4F474F55540000000000000032
:1002700000000000000000000000000000352E53C8
:10028000484F572054494D45000000000000000031
:1002900000000000000000000031000000000041EC
:1002A0004243320000444546330000474849340089
:1002B000004A4B4C3500004D4E4F36000050515215
:1002C0005337005455563800005758595A390000D2
:1002D000D1D249DBDF6A4CDBDF6A302A090E3118E4
:1002E00005E1010E796E6CEC00F0306A34500B0DB4
:1002F000F350A80F6C6ED1EC0EF0020E3418D8A497
:1003000012007BEC00F0000E35EC0FF0020E796E5F
:10031000020CEFEC0FF00009D8B412008BEC0FF0D8
:10032000D00F316E310404E0020E3118D8A412004F
:100330006CEC00F0010E35EC0FF0030E796E030C3F
:100340003450060DF350E90F6C6ED1EC0EF0020E36
:100350003418D8A41200346A10DBA4EC0EF076EC4A
:1003600000F0040E796E306A12000B0E33640AD06E
:10037000355022EC0FF05FBE05D0EBDA03E3050E3B
:10038000796E050CEFEC0FF00009D8B4120035506F
:10039000ABEC0FF0BEEC00F0020A04E1F4DAA4ECDE
:1003A0000EF033068BEC0FF0230AE9E0DCDA9EEC6A
:1003B00000F0DF6E3050D2DAE6EC0EF0332A302A4D
:1003C0001200D1DA000EDF6E010E346ED6DAA4EC24
:1003D0000EF0060EC7D7EFEC0FF00009D8B41200EC
:1003E000BEEC00F0020A04E1CEDAA4EC0EF0330613
:1003F0008BEC0FF0230A0BE0BBDA9EEC00F0DF6E13
:100400003050500FDEEC0EF0E6EC0EF0D7D7B0DA3D
:10041000DF6A306A070E796E070C310405E1470E7A
:100420006B6ED6EC0FF004D0470E5E6E31EC00F030
:10043000080E796E080CA6EC00F00009D8B4120082
:10044000310415E16CEC00F0000E35EC0FF0C6EC59
:1004500000F0000903E1A4DA6CEF00F0C6EC00F054
:10046000E80602E06CEF00F0796A6CEF00F0C6EC91
:1004700000F0030A09E1010E35EC0FF0030E796E6E
:10048000010E316E6CEF00F0C6EC00F0040A02E0E1
:100490006CEF00F0000E35EC0FF0E6D766EC0BF0D9
:1004A000020E34180FE0315034C06EF06F6A6E26C1
:1004B000000E6F226FBE000C6F5004E1050E6E5CE3
:1004C000D8A012007BEC00F00A0E796E0A0CC2EC88
:1004D00000F00009D8A412000B0EACD03550ABEFE1
:1004E0000FF0040E316015D0315013E0355022EC7E
:1004F0000FF05FBE0FD02DDA0DE3322A74C05EF02C
:1005000032500FEC0FF0326E090E796E6CEC00F089
:1005100001D0326AC2EC00F0000912E0C4EC00F035
:10052000530A05E1040E316002D0312A07D0C4EC31
:1005300000F0570A03E1315001E03106090EBDD049
:10054000EFEC0FF00009D8B412008BEC0FF0230A87
:10055000D8A412006CEC00F03128140DF3CF79F020
:10056000BAEC00F0315002E10C0E796E326A1200E2
:10057000B5EC00F00009D8B412003150EFD9AEEC60
:1005800000F03150EBD903E10D0E796E0D0C312ADC
:100590001200B2EC00F00009D8B41200C0EC00F078
:1005A000316E4B0E3118D8A412000E0E796E010E6A
:1005B000A2EC00F06CEF00F0BE0E6C6ED1EC0EF011
:1005C0003404D8A412007BEC00F067EC00F0FBECE4
:1005D0000FF00F0E796E0F0C92EC00F0000906E0A0
:1005E000000EA2EC00F0110E796E110CEFEC0FF082
:1005F000000917E08BEC0FF0316E2A0E311803E082
:10060000230E31180BE12A0E3118D8A41200000E67
:10061000A2EC00F0110E796EB8EF00F0100E796EBA
:10062000100CB2EC00F00009D8B41200C0EC00F0DD
:100630001ED0140E796E52D7B5EC00F00009D8B474
:1006400012003150AEEC00F0C4D7B5EC00F0000958
:10065000D8B41200460EAEEC00F0120E796E120CF9
:10066000B2EC00F00009D8B41200C0EC00F02F6E1C
:10067000E0D73EEC0EF0020E3418D8A41200D9D701
:10068000355022EC0FF05FBE04D081D902E3160E84
:1006900014D0B2EC00F00009D8B41200C0EC00F0A5
:1006A000316E150E796E150CB2EC00F00009D8B45D
:1006B0001200C0EC00F0326E130E796E6CEF00F099
:1006C000FBEC0EF0020E3418D8A41200010E666E78
:1006D000070EA4EC0EF00A0E5E6E2F5072EC0EF0B8
:1006E000300FE6EC0EF00A0E5E6E2F500FEC0FF09E
:1006F000300FE6EC0EF03BEC00F0170E796E170CA5
:10070000EFEC0FF00009D8B412008BEC0FF0230AC5
:10071000D8A412002F5058EC0EF0180E796E180C59
:10072000A6EC00F00009D8B41200090E796E6CEC4A
:1007300000F0326A316A1200DC0E6C6ED1EC0EF001
:100740003404D8A4120096EC00F0290E796E290C1E
:10075000EFEC0FF00009D8B412008BEC0FF02A0A6E
:1007600006E16CEC00F0326A1BD967EF00F08BEC0D
:100770000FF0230A01E00BD7030E3164030C6CEC7D
:1007800000F00AD9316A1200C8EC00F0000903E158
:10079000090E796E090C9AEC00F03D0E796EC8ECEA
:1007A00000F0E806D8A41200020E7926020CA6EC8E
:1007B00000F00009D8B412003E0E3CD73F0E796E0F
:1007C000355022EC0FF05FBE1200C3D8D8A0120043
:1007D000180EBBEC0FF0322A100E321801E07ED654
:1007E0006CEC00F0326A3C0E796EBCEC00F076D610
:1007F000C8EC00F06E6E010E6E6402D03E0E796E93
:10080000EFEC0FF00009D8B412008BEC0FF0230AC4
:10081000B6E01200E4EC0DF03404D8A41200510E3E
:1008200009D7355022EC0FF05FBE1200B0D8D8A027
:100830001200796A6CEC00F0326AA4D7CE0E6C6EAE
:10084000D1EC0EF03404D8A4120071EC00F0650E67
:10085000796E650CEFEC0FF00009D8B412008BEC48
:100860000FF0230AD8A412006CEC00F095D8B8EC75
:1008700000F088D779506E6E6F6A6F50D8A412005E
:100880006E5001E126D5010A01E130D5030A01E1EC
:1008900040D5010A01E154D5070A01E166D5010AF4
:1008A00001E18FD5030A01E196D5010A01E1B5D531
:1008B0000F0A01E1C0D5010A01E1F0D5030A01E107
:1008C00006D6010A01E10DD6070A01E151D6010A57
:1008D00001E15FD6030A01E16FD6010A01E17CD68E
:1008E0001F0A01E1A9D6010A01E1AFD6030A01E11D
:1008F000B7D6010A01E1BDD6070A01E1C1D6010A56
:1009000001E1D2D6030A01E1DBD6010A01E1F8D602
:100910000F0A01E105D7300A01E10ED7010A01E112
:1009200017D7150A01E130D7010A01E140D7030AC0
:1009300001E144D7010A01E15BD76F0A01E16AD7FF
:10094000010A01E16ED7350A01E178D7010A82E098
:100950001200B00E5E5C040E5F581200470FD96E95
:10096000DA6ADF5012003050470FD96EDA6A12008F
:100970003050500FD96EDA6A1200050E336E34C053
:1009800066F03350120034C066F033501200100E7F
:100990005E5C0E0E5F581200326A090E796E090C09
:1009A000090E796E316A1200BED1020E1C6E080E5D
:1009B0001D1803E0020E1E6E020C010E1C6E1E6A54
:1009C00012001F500B24D96E2BDA09E13FDADF50F9
:1009D00004E1030E1E6E1F6A12001F2A12001F6A16
:1009E0001D2A010E1E6E010C08DA1D50120D000E9C
:1009F0006F6E010E706E090E6F26000E7022F3509E
:100A00006F26F45070221F506F24E16E000E70208C
:100A1000E26EDE50E618D1E1F0D9DF50DEE11E6A69
:100A20001C6A1200080E1D1803E0060E1E6E060C4E
:100A30000A0E1E6E0A0C1F500B24D96EF1D907E165
:100A400005DADF50CAE11E6A040E1C6E040C070EA4
:100A50001E6E070C1F6A1D2A050E1E6E050CF6D9A8
:100A600003DA6AEC0FF0F2D91B50120D000E6C6E17
:100A7000010E6D6EF3506C26F4506D221F506C24E5
:100A8000E16E000E6D20E26EDFCFE7FF070E1F6004
:100A900003D01F2A0A0E02D01F6A0C0E196E0B0E0D
:100AA0001E6E0B0CA6B2120019C01EF01200A5D9C2
:100AB0001B50120D000E6E6E010E6F6E090E6E262B
:100AC000000E6F22F3506E26F4506F221F506E24DA
:100AD000E16E000E6F20E26EDFCFE7FF8ED9C4D942
:100AE000080F6AEC0FF0070E1F6002D01F2AD5D73F
:100AF0001F6A0E0ED3D720501F5C02E3100E6AD778
:100B00001F50020D75D91B50DE1801E066D71F502B
:100B1000020D6ED9DF681F507DD9DF6820060F0EE9
:100B20001E6E0F0C20501F5C18E21F50020DF35078
:100B3000040FD96EDA6A1F50020DF350020FE16EF6
:100B4000E26ADFCFE7FF1F50020DF350030FD96EAB
:100B5000DA6A83D9DFCFE7FF40D71F6A0E0E1E6E19
:100B60000E0C050E1F600AD01F5054D9DF505E6E68
:100B70001F50900F6AEC0FF0110E90D7120E1E6EE0
:100B8000120C1F50020D34D9DF505E6E1F50A00FA3
:100B90006AEC0FF0100E196E0B0E1E6E1ED76BD97D
:100BA0006AEC0FF0130E7AD71B28070B1B6E1BC0C5
:100BB0005EF0FF0E6AEC0FF0196A030E1C6E6FD721
:100BC000050E206008D020C01CF0202A54D96AEC01
:100BD0000FF0150E63D7050E1F1809E11C501AD926
:100BE0001A50DE5C01E3EBD6150E1E6E150C1C5080
:100BF00011D933D9DE50E65C01E3EFD61FC01CF0FB
:100C0000ECD61C5007D91AC0DFFF1C50020DF0D8DB
:100C10001DC0DFFF160E1E6E160C1AC05EF01C50B3
:100C2000900F6AEC0FF0170E39D71DC05EF01C5004
:100C3000A00F6AEC0FF0196A32D71F50C2D806E035
:100C40001F50BFD8E6EC0EF01C2A12003A0EE6EC5C
:100C50000EF0330E1E6EEAEC08F0A4EC0EF01C6AE7
:100C600012000A0E5E6E1F50D5D8DF5072EC0EF0E7
:100C7000300FE6EC0EF00A0E5E6E1F50CBD8DF5040
:100C80000FEC0FF0300FE6EC0EF0000E666E100E5B
:100C9000A4EC0EF020501F1801E11F6A340E1E6EE6
:100CA000340C20506C6E6D6A1F506E6E6F6A6E2A27
:100CB000000E6F226C506E1803E16D506F1807E044
:100CC0001F280001F56FF66B000EF62303D000011C
:100CD000F56BF66BF5C019F0195073D805E0195093
:100CE00070D8E6EC0EF0B0D73A0EE6EC0EF0350E0A
:100CF0001E6E010E666E100EA4EF0EF00A0E5E6EF2
:100D0000195088D8DF5072EC0EF0300FE6EC0EF080
:100D10000A0E5E6E19507ED8DF500FEC0FF0300FC8
:100D2000E6EC0EF04CD61E506C6E6D6A6D50D8A479
:100D300012006C50D8B41200010A01E136D6030A41
:100D400001E13FD6010A01E14FD6060A01E16AD668
:100D5000030A01E170D6010A01E17CD60D0A01E126
:100D60007ED6010A01E19ED6070A01E1A0D6020A59
:100D700001E1C1D6010A01E1D5D61F0A01E1F1D690
:100D8000010A01E1FED6030A01E109D7010A01E1E6
:100D90000BD7070A01E114D7010A01E132D7030A90
:100DA00001E13BD7010A01E140D7250A01E145D71E
:100DB000010A01E156D7070A01E173D7010A9EE053
:100DC0001200020DF350020FD96EDA6ADF50120DD5
:100DD000000E6C6E010E6D6EF3506C26F4506D2299
:100DE0001C506C24D96E000E6D20DA6EDF5012009C
:100DF000F350020FD96EDA6A12001F500B246C6E8A
:100E0000000E0C206D6E090E6C24D96E000E6D2044
:100E1000DA6E1200020DF350010FD96EDA6A120079
:100E2000000E0C20DA6E1D50120D000E6D6E010EBC
:100E30006E6EF3506D26F4506E221F506D24E16EDD
:100E4000000E6E20E26EDE50E61812001F500B24DA
:100E5000D96E000E0C20DA6E12001F50020DF350F6
:100E6000010FE16EE26A1200DF505E6E1B50100D42
:100E7000F3501F24120020C05EF0FE0C61D114500C
:100E800022EC0FF05FBE1200A9EC04F0D8A0120013
:100E90001450ABEC0FF044EF00F0145022EC0FF0C4
:100EA0005FBE1200A9EC04F0D8A012001450ABEC05
:100EB0000FF0020E8BD9A4EC0EF0C9EC0FF044EF4A
:100EC00000F08EEC00F00009D8B4120092D972EC58
:100ED0000EF0116E010EE3EC0FF0030E136E030C17
:100EE0008EEC00F00009D8B412007BD90FEC0FF0A3
:100EF000116E010EE3EC0FF0040E136E040C8EEC79
:100F000000F00009D8B412000A0E116E010EE3ECD5
:100F10000FF0050E136E050C8EEC00F00009D8B42E
:100F2000120063D972EC0EF0116E010EE3EC0FF0BB
:100F3000060E136E060C8EEC00F00009D8B41200F9
:100F40004CD90FEC0FF0116E010EE3EC0FF0010E17
:100F5000136E010C4ED972EC0EF0300FE6EC0EF071
:100F6000150E136E150C3DD90FEC0FF0300FE6EC9B
:100F70000EF0160E136E160C3A0EE6EC0EF0170E6F
:100F8000136E170C32D972EC0EF0300FE6EC0EF047
:100F9000180E136E180C21D90FEC0FF0300FE6EC81
:100FA0000EF018D9A4EC0EF0125003E0126A136A86
:100FB00004D076EC00F0190E136EEFEC0FF0000980
:100FC000D8B412008BEC0FF02A0AD8B412008BECC4
:100FD0000FF0230AD8B412008BEC0FF0D00F0A0DDB
:100FE000F3CF77F08BEC0FF0E6EC0EF01A0E136EE9
:100FF0001A0CEFEC0FF00009D8B412008BEC0FF0D4
:101000002A0AD8B412008BEC0FF0230AD8B41200CD
:101010008BEC0FF0D00F77268BEC0FF0E6EC0EF098
:101020003A0EE6EC0EF01B0E136E1B0CEFEC0FF0FD
:101030000009D8B412008BEC0FF02A0AD8B41200C1
:101040008BEC0FF0230AD8B412008BEC0FF0D00F0A
:101050000A0DF3CF17F08BEC0FF0E6EC0EF01C0E40
:10106000136E1C0CEFEC0FF00009D8B412008BECDF
:101070000FF02A0AD8B412008BEC0FF0230AD8B470
:1010800012008BEC0FF0D00F17268BEC0FF0E6EC74
:101090000EF01D0E136E1D0CEFEC0FF00009D8B40E
:1010A00012008BEC0FF0230AD8A4120017C018F01E
:1010B00077C078F0136A12000A0E5E6E155072EC5B
:1010C0000EF0300FE6EC0EF01F0E136E1F0C0A0E22
:1010D0005E6E15500FEC0FF0300FE6EC0EF0200EA8
:1010E000136E200C3A0EE6EC0EF0210E136E210C5E
:1010F0000A0E5E6E165072EC0EF0300FE6EC0EF03B
:10110000220E136E220C0A0E5E6E16500FEC0FF0BC
:10111000300FE6EC0EF0230E136E230C145022EC6D
:101120000FF05FBE1200A9EC04F0D8A0120014501A
:10113000ABEC0FF044EC00F01E0E48D8A4EF0EF01C
:1011400013506D6E6E6A6E50D8A412006D5001E19E
:1011500096D6010A01E1A1D6030A01E1B2D6010A3D
:1011600001E1BED6070A01E1CAD6010A01E1D4D6DF
:10117000030A01E1E0D6120A01E1ECD6010A01E11D
:10118000F2D6030A01E1F8D6010A01E1FBD60F0A03
:1011900001E101D7010A01E110D7030A01E129D7D2
:1011A000010A01E143D7070A01E15CD7010A01E125
:1011B00073D7030A81E0010A8AE03F0A93E0010A3B
:1011C00097E0030AA0E0010AA9E01200136E010EE5
:1011D000666E000C010E666E000C0A0E5E6E1750F5
:1011E00012000A0E5E6E775012000A0E5E6E1750E5
:1011F00012000A0E5E6E7750120070D081B081A28C
:101200000AD081A408D08A968A888A8A8A8C010E9C
:101210003D6E456A1200040E3D6E040C81B081A241
:10122000FAD781A4F8D78A868A988A8A8A8C020E8D
:101230003D6E010E456E010C81B081A2ECD781A4F8
:10124000EAD78A868A888A9A8A8C030E3D6E020EB5
:10125000456E020C81B081A2DED781A4DCD78A86DC
:101260008A888A8A8A9C030E456E3D6A1200050EA2
:101270003D6E4450ABEF0FF0445022EC0FF05FBED8
:1012800012005F5004E1190E5E5CD8A0120081B01C
:1012900081A202D081B4E9D7010E406E36D081B070
:1012A00081A2120081A412004450ABEC0FF0070E93
:1012B0003D6E070C445022EC0FF05FBE12005F50F1
:1012C00004E1190E5E5CD8A0120081B081A21DD08D
:1012D00081A41BD0406A3D6A120017D03D50656E54
:1012E000666A6650D8A41200655088E0010A96E04C
:1012F000030AA2E0010AAEE0070AB9E0010ABCE075
:10130000030ACDE0010AD6E01200060E3D6E060C7F
:1013100036D082BA70D02750ABEC0FF0266A256A1F
:10132000010E286E68D0070E256409D0B5EC00F0D8
:10133000000903E02650AEEC00F0286A5CD027508C
:1013400022EC0FF05FBE57D05F5002E15E0453E322
:1013500082AA02D0268E01D0269ED890263227500F
:10136000ABEC0FF0252A47D0275022EC0FF05FBEE0
:1013700042D05F50E2E1180E5E5CDFE23CD02850C4
:10138000656E666A665037E16550C3E0010ACBE0DE
:10139000030AEAE030D08B88216A1200235022EC45
:1013A0000FF05FBE12005F5003E15E04D8A0120090
:1013B000080E21600ED022C065F0010E6516653A58
:1013C0008B506518EF0B65188B6ED8902232212A4E
:1013D00002D0242A8B882350ABEF0FF0235022EC4D
:1013E0000FF05FBE12005F5003E15E04D8A0120050
:1013F0008B88246A12002450656E666A6650D8A4F1
:1014000012006550C8E0010AC9E0030AE7E01200D3
:101410004BD0C2B21200C4CF2CF0C284C296010ECF
:101420002A6EC282010CC2B21200C4CF2DF0C29447
:10143000C286020E2A6E020C040E2A6E2B500EE09B
:10144000630E2D64630C970E2D60970C630E2C6455
:10145000630C970E2C60970C2B6A12000B0E2D60FC
:1014600008D0410E2E6E010E2B6E2950040F2A6EED
:101470001200EF0E2D6402D0440EF4D70B0E2C6038
:1014800002D0530EEFD7EF0E2C64EF0C570EEAD7B5
:101490001BD0B5EC00F00009D8B412002E50AEEC11
:1014A00000F012D02A6A12002A505F6E606A605003
:1014B000F9E15F50AEE0010AB6E0030ABDE0060ABA
:1014C00003E0010AE6E0EED72A6AC282120043D0A6
:1014D000405021E0010E3C6E8BEC0FF0426E020E8C
:1014E0003E6E435022EC0FF05FBE08D0A9EC04F032
:1014F00005E3010E3E6E3F6A416A0AD03F5008E0A4
:101500004250411805E0010E3E6E42C041F03F6A74
:101510004350ABEF0FF042C041F012003F2A020EE1
:101520003C6E020C4050D8A412004350ABEC0FF0BC
:101530003C6A12004050D8B4120044EF0FF0050E80
:101540003C6E050C4050D8A412004350ABEC0FF099
:10155000030E3C6E030C3C50656E666A6650D8A460
:1015600012006550B5E0010AD9E0030ADBE0010A88
:10157000E1E0070AE4E0010AE5E012008CEC0EF07D
:101580000D6E0E6A3A6A3B6A959C959A95986C6ABC
:1015900045D8640E676E9BEC0FF0030EF9EC0BF070
:1015A0003DD8050E676E9BEC0FF0030EF9EC0BF0C7
:1015B00035D8010E676E9BEC0FF0030EF9EC0BF0C3
:1015C0002DD8010E676E9BEC0FF0020EF9EC0BF0BC
:1015D00025D8010E676E9BEC0FF0280EBBEC0FF0C8
:1015E00003EC0EF0080EBBEC0FF003EC0EF0010E56
:1015F000BBEC0FF013D8030E676E9BEC0FF003ECFF
:101600000EF0060EBBEC0FF003EC0EF00F0EBBEC71
:101610000FF06C2A010E6C64BBD7010C0DC065F095
:101620000EC066F0686A120030D048D822EC0FF085
:101630003CD8D8A012003850ABEC0FF08B86020ECD
:10164000396E020C3BD822EC0FF02FD8D8A0120034
:101650003850ABEC0FF08B96030E396E030C010E75
:10166000396E375022EC0FF05FBE1200A9EC04F087
:10167000D8A01200362A3750ABEC0FF0060E361801
:10168000D8A41200366A396A12003950656E666A4B
:101690006650D8A412006550D8B41200010AC5E003
:1016A000030AD0E0010ADBE0120065505E5C5F5087
:1016B000800A676E6650800A675812003650656E61
:1016C000666A652A000E662238501200315034C016
:1016D0006CF06D6A6C26000E6D226DBE06D06D50EA
:1016E00029E1050E6C5CD8B0120037D8100EDF640B
:1016F00015D0336054EF00F0335032245E6E5F6AD1
:101700005F362BD8DF50606E616A72EC0CF013D834
:101710005E241BD8E6EC0EF0332A12000CD83324DA
:1017200014D802E154EF00F006D833240ED8E6ECCA
:101730000EF0F2D7120031501C0DF3CF6CF0345084
:101740001C0DF3500D0F6C2412006D6E6DC0F6FF72
:10175000020EF76E0800F55012003450720F31245B
:10176000D96EDA6A12001F6A070E1F6401D007D013
:1017700039D829D84CEC00F0DF6E1F2AF5D71D5060
:10178000120D080EF324D96E010EF420DA6EDF6A12
:101790001F6A070E1F6401D00CD024D8090E5F26E3
:1017A000000E602210D8080F4CEC00F0DF6E1F2AEC
:1017B000F0D71D50120D110EF324D96E010EF42036
:1017C000DA6EDF6A000CF3505F26F45060221F507F
:1017D0005F24D96E000E6020DA6E1D50100DF3509C
:1017E0001F2412001D50120D000E5F6E010E606E60
:1017F00012005F6E95962FD88C8C5FA603D05E6A20
:101800005E2A01D05E6A5E462DD8F70B5E188C6E9C
:101810005FA403D05E6A5E2A01D05E6A23D8FB0B08
:101820005E188C6E5FA203D05E6A5E2A01D05E6A8B
:101830005E468C505E18FD0B5E188C6E5FA003D068
:101840005E6A5E2A01D05E6A8C505E18FE0B5E18DE
:101850008C6E8C9C12009594959295908C988C9A95
:101860008C8C12005E465E468C505E181200544905
:101870004D45204C4546543A0053434F52453A009B
:10188000000000004259452042594520004552526F
:101890004F52533A2000312E4C4F47494E00000022
:1018A00000322E52454749535445520054494D4544
:1018B0002052454D41494E494E473A2043555252D8
:1018C000454E542054494D453A004D4F44494659E0
:1018D0002054494D453A00555345523A005053570C
:0318E000443A0087
:1018E400636A5FAE06D05E6C5F1ED8B05F2A010EDD
:1018F400636E61AE04D0606C611ED8B0612A605022
:10190400611017E0010E626E04D0D8906036613623
:10191400622A61AEFAD760505E5C61505F5804E39E
:1019240060505E5E61505F5AD89061326032622EC0
:10193400F2D7635004E05E6C5F1ED8B05F2A5EC0CD
:101944005EF05FC05FF012006E0EF66E180EF76E5A
:10195400000EF86E00EE80F010EE75F00900F5CF81
:10196400EEFFE550E150FAE1140EF66E010EF76E4B
:10197400000EF86E00EE72F010EE08F00900F5CFDC
:10198400EEFFE550E150FAE101EE00F0DB0EEE6A05
:10199400E806FDE100EE01F0580EEE6AE806FDE10E
:1019A4007A907A92000EF86E00019DEF0DF05F6E52
:1019B4005FA603D05E6A5E2A01D05E6A5E4625D8C1
:1019C400F70B5E188C6E5FA403D05E6A5E2A01D0AA
:1019D4005E6A1BD8FB0B5E188C6E5FA203D05E6A36
:1019E4005E2A01D05E6A5E468C505E18FD0B5E185E
:1019F4008C6E5FA003D05E6A5E2A01D05E6A8C5052
:101A04005E18FE0B5E188C6E12005E465E468C50AD
:101A14005E1812005F6E5FAE03D05E6A5E2A01D06C
:101A24005E6A5E4625D8F70B5E188C6E5FAC03D0F9
:101A34005E6A5E2A01D05E6A1BD8FB0B5E188C6E50
:101A44005FAA03D05E6A5E2A01D05E6A5E468C504D
:101A54005E18FD0B5E188C6E5FA803D05E6A5E2A6A
:101A640001D05E6A8C505E18FE0B5E188C6E1200FC
:101A74005E465E468C505E1812001E6A1D6A070E92
:101A84001D6401D004D0B3EC0BF01D2AF8D71F6AF3
:101A9400040E1F6401D013D01F500AEC07F01F502E
:101AA400900F4CEC00F0DF6E1F50020DF8EC06F0C6
:101AB4001F50A00F4CEC00F0DF6E1F2AE9D7FF0E79
:101AC4004CEC00F01B6EFE0E4CEC00F0206E1B285C
:101AD40001E11B6A2028D8B4206A1200626E1FD864
:101AE40003E1020E605C0AE31AD808E10A0E605CA6
:101AF40005E206D805E1010E3F6E02D062501200E5
:101B04006250060DF350990F3F245E6ED90E5E2687
:101B14005EC0F6FF020EF76E0800F5501200D00EFC
:101B24005E6E5F686250606E616A5E5060265F50F0
:101B3400612261501200BBEC0EF059EC0FF07BEC0B
:101B44000FF0100E6A6EBEEC0AF047EC0FF080EC5A
:101B540000F026EC00F0AAEC00F03FEC0DF014ECE1
:101B64000BF067EC0AF0FDEC08F068EC01F008EC0F
:101B74000AF0D4EC04F03EEC07F088EC09F0EFD75F
:101B8400DF0ED76E730ED66EF2940F4A102A300E03
:101B94000F5C750E1058D8A01200466A180E4664E1
:101BA40001D00DD09BEC0EF0DE0407E14650B3ECFF
:101BB4000FF00F50DE5E1050DD5A462AEFD70F6A41
:101BC400106A12003350960FD96EDA6ADF5008E0BB
:101BD4003350960FDEEC0EF0E6EC0EF0332A1200D2
:101BE4003250AEEC04F002E154EF00F0080E326023
:101BF40054EF00F03250AEEC04F0E6EC0EF0322A72
:101C0400120095869584958295808C988C8A0D50C7
:101C1400ABEC0FF08C8C8C8C000E83B6010E656ED1
:101C24008C9C8C9C8C8C8C8C8C9C8C9C0D5022EC75
:101C34000FF05E505F1001E012006550EBE11200FE
:101C4400606E95969594959295908C888C9A8C8CD0
:101C540060500CEC0DF00BD86050D9EC0CF000D0B7
:101C64008C8C8C9C958695849582958012008C8CA6
:101C74008C9C8C9C8C8C1200345010E133509F0F40
:101C8400D96EDA6ADF5002E154EF00F033509F0F4F
:101C9400DEEC0EF0E6EC0EF0332A12003150E6ECE6
:101CA4000EF03250E6EC0EF0342A12006C6E6CC06A
:101CB4001AF01BEC00F00A0E5E6E1A5072EC0EF075
:101CC400300FE6EC0EF00A0E5E6E1A500FEC0FF0B9
:101CD400300FE6EC0EF01F6A1C6A140E1E6E140C14
:101CE4005F6E616A5E5014E0010E606E03D0D8909E
:101CF4005E36602A5EAEFBD7D89061365E505F5C7C
:101D040003E35E505F5E6180D8905E32602EF4D74C
:101D140061501200466A05D0462A190E461801E1A0
:101D2400FF0C07D8DE04F8E004D8010EDF6E46503D
:101D340012004650030D920EF324D96E010EF420C6
:101D4400DA6E12006A6E665004E0696A400E686ECC
:101D540002D0686A696A6A506824676E03EC0EF000
:101D640067508009BBEC0FF066C03BF06AC03AF0E4
:101D74001200D09EF28EF28CF28AF294080ED56E86
:101D8400D80ED76EF00ED66ED58E466A180E4664FF
:101D940001D0180C9BEC0EF0DF6A462AF7D710D856
:101DA400D96EDA6ADF5002E154EF00F009D804D8A2
:101DB400E6EC0EF0332A1200D96EDA6ADF50120014
:101DC4006C503324322412006B6E03EC0EF06B5013
:101DD40022EC0EF03A2A270E3A64270C3A6A3B2A80
:101DE400010E3B6401D03B6A3BC066F03A50A4EF5D
:101DF4000EF00DD8D96EDA6ADF5002E154EF00F02C
:101E040006D8DEEC0EF0E6EC0EF0332A1200345065
:101E14000B0DF350800F332412005F6E080E606EBA
:101E2400616AD8905F346134616ED8905F365E50D9
:101E3400615C02E35E50615E602EF3D76150120074
:101E4400626E0FC063F010C064F06250B3EC0FF028
:101E5400DECF60F0DDCF61F06050635C5E6E615098
:101E640064585F6E12005F6E5F0408E1416A3F6A66
:101E74003E6A020E3C6E4350ABEF0FF05F50D8A4A5
:101E8400120000D0040E3C6E040C948E948CAC842E
:101E9400AC8AAC98AB8EAB88B896AF68948A9498A9
:101EA4008CEC0EF0276E8CEC0EF0236E12009280F8
:101EB4009282030EC26E0C0EC16E440EC06E9490DC
:101EC400949294942B6AC282C294C2862A6A1200A3
:101ED4005F6E5FC0A9FF5EC0A8FFA69EA69CA684F5
:101EE400F29E550EA76EAA0EA76EA682F28EA69437
:101EF400AA0CF19E93809382938493969398939AD9
:101F0400939C92988CEC0EF0446E8CEC0EF0436E25
:101F1400120085EC00F05E6E4550030DF350010F86
:101F24005E245F6E5FC0F6FF020EF76E0800F55088
:101F340012006550ABEC0FF0655022EC0FF06750C7
:101F44005E5C5F50800A696E6850800A6958F4E3E9
:101F540012005E6E5E5005D80FC0DEFF10C0DDFFBC
:101F64001200030D900EF324D96E010EF420DA6EE4
:101F74001200606E95962BEC0CF060500CEC0DF09A
:101F840039EC0EF06050D9EC0CF032EF0EF0175033
:101F940009E13B0E176E77065BEC00F07750D8B47E
:101FA400136A120017061200010E1E6E1D6A6BC022
:101FB4000BF00C6A020E1C6E000E666E0A0EA4EF85
:101FC4000EF06C6E1150300FE6EC0EF06C50D8B47D
:101FD40012001150300F61EF00F05E6A405007E0CC
:101FE4003C0403E0040E3C1802E1010E5E6E5E50F8
:0C1FF4001200020E136E1450ABEF0FF041
:020000040020DA
:08000000FFFFFFFFFFFFFFFF00
:020000040030CA
:0E000000FF06191EFF0181FF03C003E003404D
:00000001FF
