:020000040000FA
:0400000019EF00F004
:100008007A82D9CF5AF0DACF5BF0F3CF5CF0F4CF35
:100018005DF0C4EC0DF05DC0F4FF5CC0F3FF5BC0A5
:10002800DAFF5AC0D9FF7A921100A8EF0CF005EC5C
:100038000EF0010EBDEC0FF010EC0BF0030E676E26
:100048009DEF0FF09496396A8EEC0EF0386E8EECB8
:100058000EF0376E010E366E010C050E1E6E1F6A0D
:100068001D6A5EC00BF00C6A020E1C6E020C010EBB
:10007800126E000E666E0B0EA6EC0EF09CEF00F0F2
:100088003B0E161803E1166A152A1200162A1200EA
:100098005E6EA69EA69C5EC0A9FFA680A850120010
:1000A800342AECEC08F0A6EC0EF0336A1200385053
:1000B800ADEC0FF0010E396E010C5E6E010E246E70
:1000C8005EC022F0010C020E136E1450ADEF0FF05B
:1000D80018C017F078C077F012001BEC00F0346AF3
:1000E800336A12001E0EE8EC08F0A6EF0EF005ECDD
:1000F8000EF00E0EBDEF0FF005EC0EF00C0EBDEF7E
:100108000FF08EEC0EF0356E316A120081A0000CF3
:1001180081A2010C020C0E0E1C090C1E1E0124509B
:10012800D8B4010C000C1350D8B4010C000C00D04A
:10013800140E136E140C320E1E6E1C6A12008DEC17
:100148000FF072EF0DF05E6E5EC029F012001E50C7
:10015800D8B4010C000C8EEC0EF0146E12005E6E1A
:100168005EC0ADFF1200ACB2010C000C136A1200A5
:100178001F6A12001F2A12003E501200AE501200D1
:100188002B5012002E5012001C501200205012004A
:10020000003132333435363738392A3023312E50E5
:100210004C415920412047414D450000000000005D
:10022000000000000000000000322E4D4F444946FF
:10023000592054494D450000000000000000000016
:100240000000000000332E53484F572047454E45CD
:1002500052414C20544F5020352053434F52455368
:1002600020342E4C4F474F55540000000000000032
:1002700000000000000000000000000000352E53C8
:10028000484F572054494D45000000000000000031
:1002900000000000000000000031000000000041EC
:1002A0004243320000444546330000474849340089
:1002B000004A4B4C3500004D4E4F36000050515215
:1002C0005337005455563800005758595A390000D2
:1002D000D6D249DBDF6A4CDBDF6A302A090E3118DF
:1002E00005E1010E796E71EC00F0306A34500B0DAF
:1002F000F350A80F6C6ED3EC0EF0020E3418D8A495
:10030000120080EC00F0000E37EC0FF0020E796E58
:10031000020CF1EC0FF00009D8B412008DEC0FF0D4
:10032000D00F316E310404E0020E3118D8A412004F
:1003300071EC00F0010E37EC0FF0030E796E030C38
:100340003450060DF350E90F6C6ED3EC0EF0020E34
:100350003418D8A41200346A10DBA6EC0EF07BEC43
:1003600000F0040E796E306A12000B0E33640BD06D
:10037000355024EC0FF05FBE06D0E3EC08F003E349
:10038000050E796E050CF1EC0FF00009D8B41200DF
:100390003550ADEC0FF0C0EC00F0020A04E1F3DAE6
:1003A000A6EC0EF033068DEC0FF0230AE9E0DBDA61
:1003B000A3EC00F0DF6E3050D1DAE8EC0EF0332A17
:1003C000302A1200D0DA000EDF6E010E346ED5DA5C
:1003D000A6EC0EF0060EC6D7F1EC0FF00009D8B46B
:1003E0001200C0EC00F0020A04E1CDDAA6EC0EF037
:1003F00033068DEC0FF0230A0BE0BADAA3EC00F021
:10040000DF6E3050500FE0EC0EF0E8EC0EF0D7D776
:10041000AFDADF6A306A070E796E070C310405E146
:10042000470E6B6ED8EC0FF004D0470E5E6E31ECC9
:1004300000F0080E796E080CABEC00F00009D8B49F
:100440001200310415E171EC00F0000E37EC0FF0F2
:10045000C8EC00F0000903E1A3DA71EF00F0C8EC8A
:1004600000F0E80602E071EF00F0796A71EF00F049
:10047000C8EC00F0030A09E1010E37EC0FF0030E9F
:10048000796E010E316E71EF00F0C8EC00F0040AD5
:1004900002E071EF00F0000E37EC0FF0E6D768ECE9
:1004A0000BF0020E34180FE0315034C06EF06F6A5A
:1004B0006E26000E6F226FBE000C6F5004E1050E19
:1004C0006E5CD8A0120080EC00F00A0E796E0A0C67
:1004D000C4EC00F00009D8A412000B0EAFD03550C8
:1004E000ADEF0FF0040E316018D0315016E03550EA
:1004F00024EC0FF05FBE12D0580E5E5C020E5F5807
:100500000DE3322A74C05EF0325011EC0FF0326EFF
:10051000090E796E71EC00F001D0326AC4EC00F083
:10052000000912E0C6EC00F0530A05E1040E316048
:1005300002D0312A07D0C6EC00F0570A03E131504F
:1005400001E03106090EBDD0F1EC0FF00009D8B47E
:1005500012008DEC0FF0230AD8A4120071EC00F009
:100560003128140DF3CF79F0BCEC00F0315002E1EA
:100570000C0E796E326A1200B7EC00F00009D8B4A4
:1005800012003150EBD9B3EC00F03150E7D903E160
:100590000D0E796E0D0C312A1200FDEC0FF00009E2
:1005A000D8B41200C2EC00F0316E4B0E3118D8A452
:1005B00012000E0E796E010EA7EC00F071EF00F044
:1005C000BE0E6C6ED3EC0EF03404D8A4120080EC96
:1005D00000F06CEC00F067EC00F00F0E796E0F0C81
:1005E00097EC00F0000906E0000EA7EC00F0110EF9
:1005F000796E110CF1EC0FF0000917E08DEC0FF0A3
:10060000316E2A0E311803E0230E31180BE12A0E49
:100610003118D8A41200000EA7EC00F0110E796E6C
:10062000BAEF00F0100E796E100CFDEC0FF000091F
:10063000D8B41200C2EC00F01ED0140E796E4FD761
:10064000B7EC00F00009D8B412003150B3EC00F060
:10065000C4D7B7EC00F00009D8B41200460EB3ECD2
:1006600000F0120E796E120CFDEC0FF00009D8B4F8
:100670001200C2EC00F02F6EE0D740EC0EF0020E3C
:100680003418D8A41200D9D7355024EC0FF05FBE2F
:1006900004D07DD902E3160E14D0FDEC0FF0000952
:1006A000D8B41200C2EC00F0316E150E796E150C44
:1006B000FDEC0FF00009D8B41200C2EC00F0326E6D
:1006C000130E796E71EF00F0FDEC0EF0020E34188F
:1006D000D8A41200010E666E070EA6EC0EF00A0EEC
:1006E0005E6E2F5074EC0EF0300FE8EC0EF00A0E38
:1006F0005E6E2F5011EC0FF0300FE8EC0EF03BEC7B
:1007000000F0170E796E170CF1EC0FF00009D8B459
:1007100012008DEC0FF0230AD8A412002F505AECCF
:100720000EF0180E796E180CABEC00F00009D8B47E
:100730001200090E796E71EC00F0326A316A120013
:10074000DC0E6C6ED3EC0EF03404D8A412009BECDB
:1007500000F0290E796E290CF1EC0FF00009D8B4E5
:1007600012008DEC0FF02A0A06E171EC00F0326AFB
:1007700017D96CEF00F08DEC0FF0230A01E00BD7D6
:10078000030E3164030C71EC00F006D9316A1200DB
:10079000CAEC00F0000903E1090E796E090C9FEC28
:1007A00000F03D0E796ECAEC00F0E806D8A4120005
:1007B000020E7926020CABEC00F00009D8B412004E
:1007C0003E0E3CD73F0E796E355024EC0FF05FBEE5
:1007D0001200E3EC08F0D8A01200180EBDEC0FF0E8
:1007E000322A100E321801E07AD671EC00F0326A2B
:1007F0003C0E796EBEEC00F072D6CAEC00F06E6E64
:10080000010E6E6402D03E0E796EF1EC0FF000091D
:10081000D8B412008DEC0FF0230AB5E01200E6EC1C
:100820000DF03404D8A41200510E08D7355024EC32
:100830000FF05FBE1200ABD8D8A01200796A71EC3D
:1008400000F0326AA3D7CE0E6C6ED3EC0EF03404F7
:10085000D8A4120076EC00F0650E796E650CF1EC10
:100860000FF00009D8B412008DEC0FF0230AD8A4C1
:10087000120071EC00F090D8BAEC00F087D77950F4
:100880006E6E6F6A6F50D8A412006E5001E121D5D0
:10089000010A01E12BD5030A01E13BD5010A01E17F
:1008A0004FD5070A01E161D5010A01E18BD5030AA1
:1008B00001E192D5010A01E1B1D50F0A01E1BCD5F0
:1008C000010A01E1ECD5030A01E102D6010A01E1C6
:1008D00009D6070A01E150D6010A01E15ED6030AF2
:1008E00001E16ED6010A01E17BD61F0A01E1A8D61B
:1008F000010A01E1AED6030A01E1B6D6010A01E11F
:10090000BCD6070A01E1C0D6010A01E1D1D6030A2B
:1009100001E1DAD6010A01E1F7D60F0A01E104D7B5
:10092000300A01E10DD7010A01E116D7150A01E1EC
:100930002FD7010A01E13FD7030A01E143D7010A9A
:1009400001E15BD76F0A01E16AD7010A01E16ED7C5
:10095000350A01E178D7010A82E01200470FD96E0B
:10096000DA6ADF5012003050470FD96EDA6A12008F
:100970003050500FD96EDA6A1200050E336E34C053
:1009800066F03350120034C066F033501200100E7F
:100990005E5C0E0E5F581200326A090E796E090C09
:1009A000090E796E316A1200BED1020E1C6E080E5D
:1009B0001D1803E0020E1E6E020C010E1C6E1E6A54
:1009C00012001F500B24D96E2BDA09E13FDADF50F9
:1009D00004E1030E1E6E1F6A12001F2A12001F6A16
:1009E0001D2A010E1E6E010C08DA1D50120D000E9C
:1009F0006F6E010E706E090E6F26000E7022F3509E
:100A00006F26F45070221F506F24E16E000E70208C
:100A1000E26EDE50E618D1E1F0D9DF50DEE11E6A69
:100A20001C6A1200080E1D1803E0060E1E6E060C4E
:100A30000A0E1E6E0A0C1F500B24D96EF1D907E165
:100A400005DADF50CAE11E6A040E1C6E040C070EA4
:100A50001E6E070C1F6A1D2A050E1E6E050CF6D9A8
:100A600003DA6CEC0FF0F2D91B50120D000E6C6E15
:100A7000010E6D6EF3506C26F4506D221F506C24E5
:100A8000E16E000E6D20E26EDFCFE7FF070E1F6004
:100A900003D01F2A0A0E02D01F6A0C0E196E0B0E0D
:100AA0001E6E0B0CA6B2120019C01EF01200A5D9C2
:100AB0001B50120D000E6E6E010E6F6E090E6E262B
:100AC000000E6F22F3506E26F4506F221F506E24DA
:100AD000E16E000E6F20E26EDFCFE7FF8ED9C4D942
:100AE000080F6CEC0FF0070E1F6002D01F2AD5D73D
:100AF0001F6A0E0ED3D720501F5C02E3100E6AD778
:100B00001F50020D75D91B50DE1801E066D71F502B
:100B1000020D6ED9DF681F507DD9DF6820060F0EE9
:100B20001E6E0F0C20501F5C18E21F50020DF35078
:100B3000040FD96EDA6A1F50020DF350020FE16EF6
:100B4000E26ADFCFE7FF1F50020DF350030FD96EAB
:100B5000DA6A83D9DFCFE7FF40D71F6A0E0E1E6E19
:100B60000E0C050E1F600AD01F5054D9DF505E6E68
:100B70001F50900F6CEC0FF0110E90D7120E1E6EDE
:100B8000120C1F50020D34D9DF505E6E1F50A00FA3
:100B90006CEC0FF0100E196E0B0E1E6E1ED76BD97B
:100BA0006CEC0FF0130E7AD71B28070B1B6E1BC0C3
:100BB0005EF0FF0E6CEC0FF0196A030E1C6E6FD71F
:100BC000050E206008D020C01CF0202A54D96CECFF
:100BD0000FF0150E63D7050E1F1809E11C501AD926
:100BE0001A50DE5C01E3EBD6150E1E6E150C1C5080
:100BF00011D933D9DE50E65C01E3EFD61FC01CF0FB
:100C0000ECD61C5007D91AC0DFFF1C50020DF0D8DB
:100C10001DC0DFFF160E1E6E160C1AC05EF01C50B3
:100C2000900F6CEC0FF0170E39D71DC05EF01C5002
:100C3000A00F6CEC0FF0196A32D71F50C2D806E033
:100C40001F50BFD8E8EC0EF01C2A12003A0EE8EC58
:100C50000EF0330E1E6EECEC08F0A6EC0EF01C6AE3
:100C600012000A0E5E6E1F50D5D8DF5074EC0EF0E5
:100C7000300FE8EC0EF00A0E5E6E1F50CBD8DF503E
:100C800011EC0FF0300FE8EC0EF0000E666E100E57
:100C9000A6EC0EF020501F1801E11F6A340E1E6EE4
:100CA000340C20506C6E6D6A1F506E6E6F6A6E2A27
:100CB000000E6F226C506E1803E16D506F1807E044
:100CC0001F280001F56FF66B000EF62303D000011C
:100CD000F56BF66BF5C019F0195073D805E0195093
:100CE00070D8E8EC0EF0B0D73A0EE8EC0EF0350E06
:100CF0001E6E010E666E100EA6EF0EF00A0E5E6EF0
:100D0000195088D8DF5074EC0EF0300FE8EC0EF07C
:100D10000A0E5E6E19507ED8DF5011EC0FF0300FC6
:100D2000E8EC0EF04CD61E506C6E6D6A6D50D8A477
:100D300012006C50D8B41200010A01E136D6030A41
:100D400001E13FD6010A01E14FD6060A01E16AD668
:100D5000030A01E170D6010A01E17CD60D0A01E126
:100D60007ED6010A01E19ED6070A01E1A0D6020A59
:100D700001E1C1D6010A01E1D5D61F0A01E1F1D690
:100D8000010A01E1FED6030A01E109D7010A01E1E6
:100D90000BD7070A01E114D7010A01E132D7030A90
:100DA00001E13BD7010A01E140D7250A01E145D71E
:100DB000010A01E156D7070A01E173D7010A9EE053
:100DC0001200020DF350020FD96EDA6ADF50120DD5
:100DD000000E6C6E010E6D6EF3506C26F4506D2299
:100DE0001C506C24D96E000E6D20DA6EDF5012009C
:100DF000F350020FD96EDA6A12001F500B246C6E8A
:100E0000000E0C206D6E090E6C24D96E000E6D2044
:100E1000DA6E1200020DF350010FD96EDA6A120079
:100E2000000E0C20DA6E1D50120D000E6D6E010EBC
:100E30006E6EF3506D26F4506E221F506D24E16EDD
:100E4000000E6E20E26EDE50E61812001F500B24DA
:100E5000D96E000E0C20DA6E12001F50020DF350F6
:100E6000010FE16EE26A1200DF505E6E1B50100D42
:100E7000F3501F24120020C05EF0FE0C5ED114500F
:100E800024EC0FF05FBE12009ED9D8A012001450BF
:100E9000ADEC0FF044EF00F0145024EC0FF05FBE07
:100EA000120091D9D8A012001450ADEC0FF0020E30
:100EB0008FD9A6EC0EF0CBEC0FF044EF00F093ECE2
:100EC00000F00009D8B4120092D974EC0EF0116E43
:100ED000010EE5EC0FF0030E136E030C93EC00F023
:100EE0000009D8B412007BD911EC0FF0116E010E7D
:100EF000E5EC0FF0040E136E040C93EC00F0000907
:100F0000D8B412000A0E116E010EE5EC0FF0050EBA
:100F1000136E050C93EC00F00009D8B4120063D9ED
:100F200074EC0EF0116E010EE5EC0FF0060E136E70
:100F3000060C93EC00F00009D8B412005CD911EC57
:100F40000FF0116E010EE5EC0FF0010E136E010CA7
:100F50004ED974EC0EF0300FE8EC0EF0150E136E57
:100F6000150C3DD911EC0FF0300FE8EC0EF0160E19
:100F7000136E160C3A0EE8EC0EF0170E136E170CEB
:100F800032D974EC0EF0300FE8EC0EF0180E136E40
:100F9000180C31D911EC0FF0300FE8EC0EF01CD921
:100FA000A6EC0EF0125003E0126A136A04D07BEC38
:100FB00000F0190E136EF1EC0FF00009D8B4120016
:100FC0008DEC0FF02A0AD8B412008DEC0FF0230A32
:100FD000D8B412008DEC0FF0D00F0A0DF3CF77F0DC
:100FE0008DEC0FF0E8EC0EF01A0E136E1A0CF1EC0B
:100FF0000FF00009D8B412008DEC0FF02A0AD8B413
:1010000012008DEC0FF0230AD8B412008DEC0FF013
:10101000D00F77268DEC0FF0E8EC0EF03A0EE8ECEE
:101020000EF01B0E136E1B0CF1EC0FF00009D8B480
:1010300012008DEC0FF02A0AD8B412008DEC0FF0DC
:10104000230AD8B412008DEC0FF0D00F0A0DF3CFA5
:1010500017F08DEC0FF0E8EC0EF01C0E136E1C0C6C
:10106000F1EC0FF00009D8B412008DEC0FF02A0A51
:10107000D8B412008DEC0FF0230AD8B412008DEC16
:101080000FF0D00F17268DEC0FF0E8EC0EF01D0ED0
:10109000136E1D0CF1EC0FF00009D8B412008DECAA
:1010A0000FF0230AD8A4120017C018F077C078F008
:1010B000136A12000A0E5E6E155074EC0EF0300FBB
:1010C000E8EC0EF01F0E136E1F0C0A0E5E6E15502C
:1010D00011EC0FF0300FE8EC0EF0200E136E200C28
:1010E0003A0EE8EC0EF0210E136E210C0A0E5E6E25
:1010F000165074EC0EF0300FE8EC0EF0220E136E6A
:10110000220C0A0E5E6E165011EC0FF0300FE8EC58
:101110000EF0230E136E230C145024EC0FF05FBE60
:10112000120051D8D8A012001450ADEC0FF044ECCE
:1011300000F01E0E4DD8A6EF0EF013506D6E6E6AC5
:101140006E50D8A412006D5001E199D6010A01E158
:10115000A3D6030A01E1B3D6010A01E1BFD6070A0B
:1011600001E1CBD6010A01E1D5D6030A01E1E1D6BE
:10117000120A01E1EDD6010A01E1F3D6030A01E109
:10118000F9D6010A01E1FCD60F0A01E102D7010AF2
:1011900001E111D7030A01E12AD7010A01E144D78D
:1011A000070A01E15DD7010A01E174D7030A82E071
:1011B000010A8BE03F0A94E0010A98E0030AA1E0EB
:1011C000010AAAE01200B00E5E5C040E5F58120025
:1011D000136E010E666E000C010E666E000C0A0E98
:1011E0005E6E775012000A0E5E6E175012000A0EE5
:1011F0005E6E775012000A0E5E6E1750120070D0AD
:1012000081B081A20AD081A408D08A968A888A8A6D
:101210008A8C010E3D6E456A1200040E3D6E040C70
:1012200081B081A2FAD781A4F8D78A868A988A8A5F
:101230008A8C020E3D6E010E456E010C81B081A2BA
:10124000ECD781A4EAD78A868A888A9A8A8C030E88
:101250003D6E020E456E020C81B081A2DED781A4E4
:10126000DCD78A868A888A8A8A9C030E456E3D6A04
:101270001200050E3D6E4450ADEF0FF0445024ECCB
:101280000FF05FBE12005F5004E1190E5E5CD8A043
:10129000120081B081A202D081B4E9D7010E406E64
:1012A00036D081B081A2120081A412004450ADEC6E
:1012B0000FF0070E3D6E070C445024EC0FF05FBE9C
:1012C00012005F5004E1190E5E5CD8A0120081B0DC
:1012D00081A21DD081A41BD0406A3D6A120017D0A4
:1012E0003D50656E666A6650D8A41200655088E06D
:1012F000010A96E0030AA2E0010AAEE0070AB9E09B
:10130000010ABCE0030ACDE0010AD6E01200060E95
:101310003D6E060C36D082BA70D02750ADEC0FF07F
:10132000266A256A010E286E68D0070E256409D04A
:10133000B7EC00F0000903E02650B3EC00F0286A97
:101340005CD0275024EC0FF05FBE57D05F5002E115
:101350005E0453E382AA02D0268E01D0269ED89046
:1013600026322750ADEC0FF0252A47D0275024EC29
:101370000FF05FBE42D05F50E2E1180E5E5CDFE22C
:101380003CD02850656E666A665037E16550C3E010
:10139000010ACBE0030AEAE030D08B88216A120010
:1013A000235024EC0FF05FBE12005F5003E15E0497
:1013B000D8A01200080E21600ED022C065F0010EE8
:1013C0006516653A8B506518EF0B65188B6ED890D3
:1013D0002232212A02D0242A8B882350ADEF0FF02D
:1013E000235024EC0FF05FBE12005F5003E15E0457
:1013F000D8A012008B88246A12002450656E666A99
:101400006650D8A412006550C8E0010AC9E0030A7A
:10141000E7E012004BD0C2B21200C4CF2CF0C2845D
:10142000C296010E2A6EC282010CC2B21200C4CF53
:101430002DF0C294C286020E2A6E020C040E2A6E91
:101440002B500EE0630E2D64630C970E2D60970CED
:10145000630E2C64630C970E2C60970C2B6A1200A1
:101460000B0E2D6008D0410E2E6E010E2B6E2950F2
:10147000040F2A6E1200EF0E2D6402D0440EF4D732
:101480000B0E2C6002D0530EEFD7EF0E2C64EF0C36
:10149000570EEAD71BD0B7EC00F00009D8B4120001
:1014A0002E50B3EC00F012D02A6A12002A505F6E60
:1014B000606A6050F9E15F50AEE0010AB6E0030AED
:1014C000BDE0060A03E0010AE6E0EED72A6AC2821E
:1014D000120043D0405021E0010E3C6E8DEC0FF025
:1014E000426E020E3E6E435024EC0FF05FBE08D0F9
:1014F000E3EC08F005E3010E3E6E3F6A416A0AD054
:101500003F5008E04250411805E0010E3E6E42C0D7
:1015100041F03F6A4350ADEF0FF042C041F012007E
:101520003F2A020E3C6E020C4050D8A412004350D9
:10153000ADEC0FF03C6A12004050D8B4120046EFF8
:101540000FF0050E3C6E050C4050D8A4120043501D
:10155000ADEC0FF0030E3C6E030C3C50656E666AFA
:101560006650D8A412006550B5E0010AD9E0030A1C
:10157000DBE0010AE1E0070AE4E0010AE5E012002D
:101580008EEC0EF00D6E0E6A3A6A3B6A959C959A47
:1015900095986C6A45D8640E676E9DEC0FF0030E4B
:1015A000FBEC0BF03DD8050E676E9DEC0FF0030EC3
:1015B000FBEC0BF035D8010E676E9DEC0FF0030EBF
:1015C000FBEC0BF02DD8010E676E9DEC0FF0020EB8
:1015D000FBEC0BF025D8010E676E9DEC0FF0280E8A
:1015E000BDEC0FF005EC0EF0080EBDEC0FF005ECB5
:1015F0000EF0010EBDEC0FF013D8030E676E9DECDC
:101600000FF005EC0EF0060EBDEC0FF005EC0EF041
:101610000F0EBDEC0FF06C2A010E6C64BBD7010CF1
:101620000DC065F00EC066F0686A120030D048D870
:1016300024EC0FF03CD8D8A012003850ADEC0FF0DD
:101640008B86020E396E020C3BD824EC0FF02FD89B
:10165000D8A012003850ADEC0FF08B96030E396E07
:10166000030C010E396E375024EC0FF05FBE1200F0
:10167000E3EC08F0D8A01200362A3750ADEC0FF09A
:10168000060E3618D8A41200366A396A120039508C
:10169000656E666A6650D8A412006550D8B4120010
:1016A000010AC5E0030AD0E0010ADBE01200655040
:1016B0005E5C5F50800A676E6650800A6758120051
:1016C0003650656E666A652A000E66223850120032
:1016D000315034C06CF06D6A6C26000E6D226DBE08
:1016E00006D06D5029E1050E6C5CD8B0120037D8D9
:1016F000100EDF6415D0336054EF00F03350322405
:101700005E6E5F6A5F362BD8DF50606E616A74EC84
:101710000CF013D85E241BD8E8EC0EF0332A12002C
:101720000CD8332414D802E154EF00F006D8332447
:101730000ED8E8EC0EF0F2D7120031501C0DF3CFAA
:101740006CF034501C0DF3500D0F6C2412006D6EB4
:101750006DC0F6FF020EF76E0800F550120034500F
:10176000720F3124D96EDA6A12001F6A070E1F64E5
:1017700001D007D039D829D84CEC00F0DF6E1F2AF1
:10178000F5D71D50120D080EF324D96E010EF4206A
:10179000DA6EDF6A1F6A070E1F6401D00CD024D8EE
:1017A000090E5F26000E602210D8080F4CEC00F0E6
:1017B000DF6E1F2AF0D71D50120D110EF324D96EC3
:1017C000010EF420DA6EDF6A000CF3505F26F4504D
:1017D00060221F505F24D96E000E6020DA6E1D500B
:1017E000100DF3501F2412001D50120D000E5F6EDD
:1017F000010E606E12005F6E95962FD88C8C5FA6DE
:1018000003D05E6A5E2A01D05E6A5E462DD8F70B71
:101810005E188C6E5FA403D05E6A5E2A01D05E6A99
:1018200023D8FB0B5E188C6E5FA203D05E6A5E2A23
:1018300001D05E6A5E468C505E18FD0B5E188C6EA1
:101840005FA003D05E6A5E2A01D05E6A8C505E188B
:10185000FE0B5E188C6E8C9C120095949592959060
:101860008C988C9A8C8C12005E465E468C505E186A
:10187000120054494D45204C4546543A0053434FBD
:1018800052453A0000000000425945204259452087
:10189000004552524F52533A2000312E4C4F474987
:1018A0004E00000000322E52454749535445520025
:1018B00054494D452052454D41494E494E473A20E5
:1018C00043555252454E542054494D453A004D4FD0
:1018D000444946592054494D453A00555345523ADA
:0718E00000505357443A0089
:1018E800636A5FAE06D05E6C5F1ED8B05F2A010ED9
:1018F800636E61AE04D0606C611ED8B0612A60501E
:10190800611017E0010E626E04D0D890603661361F
:10191800622A61AEFAD760505E5C61505F5804E39A
:1019280060505E5E61505F5AD89061326032622EBC
:10193800F2D7635004E05E6C5F1ED8B05F2A5EC0C9
:101948005EF05FC05FF01200720EF66E180EF76E52
:10195800000EF86E00EE80F010EE75F00900F5CF7D
:10196800EEFFE550E150FAE11E0EF66E010EF76E3D
:10197800000EF86E00EE72F010EE08F00900F5CFD8
:10198800EEFFE550E150FAE101EE00F0DB0EEE6A01
:10199800E806FDE100EE01F0580EEE6AE806FDE10A
:1019A8007A907A92000EF86E00019FEF0DF05F6E4C
:1019B8005FA603D05E6A5E2A01D05E6A5E4625D8BD
:1019C800F70B5E188C6E5FA403D05E6A5E2A01D0A6
:1019D8005E6A1BD8FB0B5E188C6E5FA203D05E6A32
:1019E8005E2A01D05E6A5E468C505E18FD0B5E185A
:1019F8008C6E5FA003D05E6A5E2A01D05E6A8C504E
:101A08005E18FE0B5E188C6E12005E465E468C50A9
:101A18005E1812005F6E5FAE03D05E6A5E2A01D068
:101A28005E6A5E4625D8F70B5E188C6E5FAC03D0F5
:101A38005E6A5E2A01D05E6A1BD8FB0B5E188C6E4C
:101A48005FAA03D05E6A5E2A01D05E6A5E468C5049
:101A58005E18FD0B5E188C6E5FA803D05E6A5E2A66
:101A680001D05E6A8C505E18FE0B5E188C6E1200F8
:101A78005E465E468C505E1812001E6A1D6A070E8E
:101A88001D6401D004D0B5EC0BF01D2AF8D71F6AED
:101A9800040E1F6401D013D01F500AEC07F01F502A
:101AA800900F4CEC00F0DF6E1F50020DF8EC06F0C2
:101AB8001F50A00F4CEC00F0DF6E1F2AE9D7FF0E75
:101AC8004CEC00F01B6EFE0E4CEC00F0206E1B2858
:101AD80001E11B6A2028D8B4206A1200626E1FD860
:101AE80003E1020E605C0AE31AD808E10A0E605CA2
:101AF80005E206D805E1010E3F6E02D062501200E1
:101B08006250060DF350990F3F245E6ED90E5E2683
:101B18005EC0F6FF020EF76E0800F5501200D00EF8
:101B28005E6E5F686250606E616A5E5060265F50EC
:101B3800612261501200BDEC0EF05BEC0FF07DEC01
:101B48000FF0100E6A6EC0EC0AF049EC0FF085EC4D
:101B580000F026EC00F0AFEC00F041EC0DF016ECD4
:101B68000BF069EC0AF0FFEC08F068EC01F00AEC05
:101B78000AF0D4EC04F03EEC07F08AEC09F0EFD759
:101B8800DF0ED76E730ED66EF2940F4A102A300EFF
:101B98000F5C750E1058D8A01200466A180E4664DD
:101BA80001D00DD09DEC0EF0DE0407E14650B5ECF7
:101BB8000FF00F50DE5E1050DD5A462AEFD70F6A3D
:101BC800106A12003350960FD96EDA6ADF5008E0B7
:101BD8003350960FE0EC0EF0E8EC0EF0332A1200CA
:101BE8003250AEEC04F002E154EF00F0080E32601F
:101BF80054EF00F03250AEEC04F0E8EC0EF0322A6C
:101C0800120095869584958295808C988C8A0D50C3
:101C1800ADEC0FF08C8C8C8C000E83B6010E656ECB
:101C28008C9C8C9C8C8C8C8C8C9C8C9C0D5024EC6F
:101C38000FF05E505F1001E012006550EBE11200FA
:101C4800606E95969594959295908C888C9A8C8CCC
:101C580060500EEC0DF00BD86050DBEC0CF000D0AF
:101C68008C8C8C9C958695849582958012008C8CA2
:101C78008C9C8C9C8C8C1200345010E133509F0F3C
:101C8800D96EDA6ADF5002E154EF00F033509F0F4B
:101C9800E0EC0EF0E8EC0EF0332A12003150E8ECDC
:101CA8000EF03250E8EC0EF0342A12006C6E6CC064
:101CB8001AF01BEC00F00A0E5E6E1A5074EC0EF06F
:101CC800300FE8EC0EF00A0E5E6E1A5011EC0FF0B1
:101CD800300FE8EC0EF01F6A1C6A140E1E6E140C0E
:101CE8005F6E616A5E5014E0010E606E03D0D8909A
:101CF8005E36602A5EAEFBD7D89061365E505F5C78
:101D080003E35E505F5E6180D8905E32602EF4D748
:101D180061501200466A05D0462A190E461801E19C
:101D2800FF0C07D8DE04F8E004D8010EDF6E465039
:101D380012004650030D920EF324D96E010EF420C2
:101D4800DA6E12006A6E665004E0696A400E686EC8
:101D580002D0686A696A6A506824676E05EC0EF0FA
:101D680067508009BDEC0FF066C03BF06AC03AF0DE
:101D78001200D09EF28EF28CF28AF294080ED56E82
:101D8800D80ED76EF00ED66ED58E466A180E4664FB
:101D980001D0180C9DEC0EF0DF6A462AF7D710D850
:101DA800D96EDA6ADF5002E154EF00F009D804D89E
:101DB800E8EC0EF0332A1200D96EDA6ADF5012000E
:101DC8006C503324322412006B6E05EC0EF06B500D
:101DD80024EC0EF03A2A270E3A64270C3A6A3B2A7A
:101DE800010E3B6401D03B6A3BC066F03A50A6EF57
:101DF8000EF00DD8D96EDA6ADF5002E154EF00F028
:101E080006D8E0EC0EF0E8EC0EF0332A120034505D
:101E18000B0DF350800F332412005F6E080E606EB6
:101E2800616AD8905F346134616ED8905F365E50D5
:101E3800615C02E35E50615E602EF3D76150120070
:101E4800626E0FC063F010C064F06250B5EC0FF022
:101E5800DECF60F0DDCF61F06050635C5E6E615094
:101E680064585F6E12005F6E5F0408E1416A3F6A62
:101E78003E6A020E3C6E4350ADEF0FF05F50D8A49F
:101E8800120000D0040E3C6E040C948E948CAC842A
:101E9800AC8AAC98AB8EAB88B896AF68948A9498A5
:101EA8008EEC0EF0276E8EEC0EF0236E12009280F0
:101EB8009282030EC26E0C0EC16E440EC06E9490D8
:101EC800949294942B6AC282C294C2862A6A12009F
:101ED8005F6E5FC0A9FF5EC0A8FFA69EA69CA684F1
:101EE800F29E550EA76EAA0EA76EA682F28EA69433
:101EF800AA0CF19E93809382938493969398939AD5
:101F0800939C92988EEC0EF0446E8EEC0EF0436E1D
:101F180012008AEC00F05E6E4550030DF350010F7D
:101F28005E245F6E5FC0F6FF020EF76E0800F55084
:101F380012006550ADEC0FF0655024EC0FF06750BF
:101F48005E5C5F50800A696E6850800A6958F4E3E5
:101F580012005E6E5E5005D80FC0DEFF10C0DDFFB8
:101F68001200030D900EF324D96E010EF420DA6EE0
:101F78001200606E95962DEC0CF060500EEC0DF092
:101F88003BEC0EF06050DBEC0CF034EF0EF0175029
:101F980009E13B0E176E77065BEC00F07750D8B47A
:101FA800136A120017061200010E1E6E1D6A6BC01E
:101FB8000BF00C6A020E1C6E000E666E0A0EA6EF7F
:101FC8000EF06C6E1150300FE8EC0EF06C50D8B477
:101FD80012001150300F61EF00F05E6A405007E0C8
:101FE8003C0403E0040E3C1802E1010E5E6E5E50F4
:081FF80012009EBA010C000C5E
:020000040020DA
:08000000FFFFFFFFFFFFFFFF00
:020000040030CA
:0E000000FF06191EFF0181FF03C003E003404D
:00000001FF
