:020000040000FA
:0400000019EF00F004
:100008007A82D9CF62F0DACF63F0F3CF64F0F4CF1D
:1000180065F06EEC04F065C0F4FF64C0F3FF63C0E4
:0E002800DAFF62C0D9FF7A921100CDEF04F02A
:1002000000555345523A00505357443A0031323367
:100210003435363738392A302331000000000041A8
:100220004243320000444546330000474849340009
:10023000004A4B4C3500004D4E4F36000050515295
:100240005337005455563800005758595A39003121
:100250002E4C4F47494E00000000322E5245474970
:1002600053544552000070D081B081A20AD081A4BD
:1002700008D08A968A888A8A8A8C010E586E5F6AAC
:100280001200040E586E040C81B081A2FAD781A42A
:10029000F8D78A868A988A8A8A8C020E586E010E4E
:1002A0005F6E010C81B081A2ECD781A4EAD78A8667
:1002B0008A888A9A8A8C030E586E020E5F6E020C30
:1002C00081B081A2DED781A4DCD78A868A888A8A17
:1002D0008A9C030E5F6E586A1200050E586E5E50BF
:1002E00063EF05F05E5022EC05F067BE1200675028
:1002F00004E1190E665CD8A0120081B081A202D080
:1003000081B4E9D7010E5A6E36D081B081A21200B5
:1003100081A412005E5063EC05F0070E586E070CC6
:100320005E5022EC05F067BE1200675004E1190E22
:10033000665CD8A0120081B081A21DD081A41BD020
:100340005A6A586A120017D058506D6E6E6A6E5015
:10035000D8A412006D5088E0010A96E0030AA2E0DA
:10036000010AAEE0070AB9E0010ABCE0030ACDE0E9
:10037000010AD6E01200060E586E060C5AD0000E86
:10038000776E010E2BEC03F0020E5218D8A4120067
:10039000526A5DD897EC02F093EC05F0010E506EB6
:1003A000010C0B0E51640FD09DEC05F00001826F23
:1003B000020E826108D0010E526E49D897EC02F00D
:1003C000020E506E020C7CEC05F00009D8B412004D
:1003D0009DEC05F046D8826504D03FD897EC02F03A
:1003E00051068DEC05F0230A06E085EC05F044EC9F
:1003F00004F0512A1200010E526E29D897EC02F037
:10040000DFD77CEC05F00009D8B412009DEC05F0B4
:1004100028D8826504D021D897EC02F051068DECE3
:1004200005F0230AD8B4120085EC05F044EC04F082
:10043000E0D750500001826F836B8351D8A4120023
:1004400082519DE0010AADE0030ADBE01200050ED7
:10045000516E52C06EF05150120052C06EF05150A9
:1004600012000001826F010C736EE3EC04F04C6E1D
:100470004D6A73C056F072C055F0536A546A959C29
:10048000959A9598746A756A4CD8640E6F6E45ECAF
:1004900005F0030E73EC03F044D8050E6F6E45ECC7
:1004A00005F0030E73EC03F03CD8010E6F6E45ECC3
:1004B00005F0030E73EC03F034D8010E6F6E45ECBB
:1004C00005F0020E73EC03F02CD8010E6F6E45ECB4
:1004D00005F0280E55EC05F092EC04F0080E55ECF2
:1004E00005F092EC04F0010E55EC05F01AD8030E5D
:1004F0006F6E45EC05F092EC04F0060E55EC05F03D
:1005000092EC04F00F0E55EC05F0744A752A75BE96
:10051000BBD7755005E1020E745CD8B01200B4D799
:1005200012004CC06DF04DC06EF0706A1200756E16
:1005300030D06E5004E0726A400E716E02D0716A63
:10054000726A75507124736E000E7220746E2ED014
:1005500075C073F0746A6E0402E1400E04D0020E9E
:100560006E1804E155507326000E0DD0030E6E1860
:100570001DE155506F6E706A400E6F26000E70229E
:100580006F5073267050742211D075C073F0746A66
:100590000DD056506F6E706A7050F7E16F50010ABF
:1005A000F4E0030AC6E0060AD3E0EFD792EC04F0C9
:1005B0007350800955EC05F06EC054F075C053F0CF
:1005C00012003CD079C08BFF5D5022EC05F067BE75
:1005D00009D0E80E665C030E675804E35B6A596A4B
:1005E000796A1AD05A501BE0010E576E98EC05F04C
:1005F000666E5F5071EC05F05C6E59500CE05C501B
:100600005B1809E0796A230E5B1802E1010E796E2E
:100610005CC05BF0596A792A5D5063EF05F05CC0FD
:100620005BF01200592A020E576E020C5A50D8A4E1
:1006300012005D5063EC05F0576A120057506D6E62
:100640006E6A6E50D8A412006D50BCE0010AEAE058
:10065000030AECE01200786E785011E12DD8000109
:1006600025D81FD807E028D821D81BD844EC04F09F
:10067000512A120034D897EC02F0516A1200780423
:10068000D8A4120026D8000120D80BD806E021D823
:100690001CD807D844EC04F0EBD721D897EC02F033
:1006A000ECD7020EF76E0800F55012008025512499
:1006B000816F81C0F6FF120077500B0DF3CF80F0F1
:1006C00052500B0DF3504F0F1200806F80C0F6FF99
:1006D00012005250060DF350010F51241200522AFD
:1006E000010E6E6E000C676E95962FD88C8C67A6E7
:1006F00003D0666A662A01D0666A66462DD8F70B73
:1007000066188C6E67A403D0666A662A01D0666A92
:1007100023D8FB0B66188C6E67A203D0666A662A24
:1007200001D0666A66468C506618FD0B66188C6EA2
:1007300067A003D0666A662A01D0666A8C50661884
:10074000FE0B66188C6E8C9C120095949592959079
:100750008C988C9A8C8C1200664666468C50661873
:100760001200676E67A603D0666A662A01D0666AC1
:10077000664625D8F70B66188C6E67A403D0666AA8
:10078000662A01D0666A1BD8FB0B66188C6E67A2BE
:1007900003D0666A662A01D0666A66468C5066187F
:1007A000FD0B66188C6E67A003D0666A662A01D0BE
:1007B000666A8C506618FE0B66188C6E12006646D0
:1007C00066468C5066181200676E67AE03D0666A84
:1007D000662A01D0666A664625D8F70B66188C6EC5
:1007E00067AC03D0666A662A01D0666A1BD8FB0B29
:1007F00066188C6E67AA03D0666A662A01D0666A9C
:1008000066468C506618FD0B66188C6E67A803D080
:10081000666A662A01D0666A8C506618FE0B6618F6
:100820008C6E1200664666468C50661812006A6E20
:100830001FD803E1020E685C0AE31AD808E10A0E29
:10084000685C05E206D805E1010E596E02D06A50D7
:1008500012006A50060DF350190F5924666ED90E16
:10086000662666C0F6FF020EF76E0800F55012000D
:10087000D00E666E67686A50686E696A6650682650
:100880006750692269501200766E92EC04F076503F
:10089000B1EC04F0532A030E561807E1130E53640B
:1008A000130C536A542A030E09D0020E56180AE19B
:1008B000270E5364270C536A542A010E546409D03E
:1008C000546A07D05404D8A41200270E536401D0F0
:1008D000536A54C06EF0535097EF02F01ED8F29452
:1008E0004E4A4F2A300E4E5C750E4F58D8A012005B
:1008F000606A180E606401D00DD0F2EC04F0DE04E2
:1009000007E160506BEC05F04E50DE5E4F50DD5A53
:10091000602AEFD74E6A4F6A1200D80ED76EF00EDB
:10092000D66EF00C95869584958295808C988C8AED
:100930004C5063EC05F08C8C8C8C000E83B6010E51
:100940006D6E8C9C8C9C8C8C8C8C8C9C8C9C4C5060
:1009500022EC05F06650671001E012006D50EBE1EB
:100960001200686E95969594959295908C888C9AC5
:100970008C8C6850E4EC03F00BD86850B1EC03F0B9
:1009800000D08C8C8C9C95869584958295801200E5
:100990008C8C8C9C8C9C8C8C12003E0EF66E0B0EFC
:1009A000F76E000EF86E0900F5CF79F000EE01F059
:1009B000600EEE6AE806FDE17A907A92000EF86E1B
:1009C000000135EF05F0606A05D0602A190E601845
:1009D00001E1FF0C07D8DE04F8E004D8010EDF6E59
:1009E000605012006050030DF350030FD96EDA6AA5
:1009F0001200110E5F6EF19E9490949294949496CE
:100A000093809382938493969398939A939CE3EC28
:100A100004F05E6EE3EC04F05D6E1200D09EF28E88
:100A2000F28CF28AF294080ED56E8DEC04F0D58E1D
:100A3000606A180E606401D0180CF2EC04F0DF6AF2
:100A4000602AF7D76A6E4EC06BF04FC06CF06A50E8
:100A50006BEC05F0DECF68F0DDCF69F068506B5CC1
:100A6000666E69506C58676E12000EEC05F0F9EC7A
:100A700004F0100E726E020E34EC02F0E1EC02F0A3
:100A800033EC01F0BEEC01F0F9D76D5063EC05F0EA
:100A90006D5022EC05F06F50665C6750800A716EF5
:100AA0007050800A7158F4E31200686E9596A5ECB8
:100AB00003F06850E4EC03F0C8EC04F06850B1ECCB
:100AC00003F0C1EF04F0666E665005D84EC0DEFF3D
:100AD0004FC0DDFF1200030DF350010FD96EDA6A2B
:100AE0001200686E6850030DF3500D0F6624676E98
:100AF00067C0F6FF51EF03F0666A5A5004E05704EE
:100B000002E1010E666E6650120098EC05F0666E0A
:100B10005F5071EC05F017EF04F098EC05F0666E8D
:100B20005F5071EF05F092EC04F00E0E55EF05F0FA
:0F0B300081A0000C81A2010C020C79501200016F
:020000040020DA
:08000000FFFFFFFFFFFFFFFF00
:020000040030CA
:0E000000FF02191EFF0181FF03C003E0034051
:00000001FF
