:020000040000FA
:0400000019EF00F004
:100008003E82D9CF22F0DACF23F0F3CF24F0F4CF19
:1000180025F08DEC05F025C0F4FF24C0F3FF23C0C4
:0E002800DAFF22C0D9FF3E921100D0EF05F0A2
:1002000000555345523A00505357443A0031323367
:100210003435363738392A302331000000000041A8
:100220004243320000444546330000474849340009
:10023000004A4B4C3500004D4E4F36000050515295
:100240005337005455563800005758595A39003121
:100250002E4C4F47494E00000000322E5245474970
:100260005354455200008CD0000E376E1FEC04F042
:10027000020E0C18D8A41200FDEC06F0000E61EC82
:1002800006F0020E3D6E020CCCEC06F00009D8B46C
:10029000120073EC06F0D00F0A6E0A0404E0020E9E
:1002A0000A18D8A41200D8EC06F0000E2E6AD5EC7D
:1002B00003F0010E61EC06F00C6A0B6A030E3D6E52
:1002C000030C000E376E010E1FEC04F0020E0C182A
:1002D000D8A412000C6A050E0B6E6DD8D5EC03F095
:1002E000F8EC06F0040E3D6E040C0B0E0B640AD005
:1002F0000D504EEC06F027BE05D058D803E3050E8E
:100300003D6E050CCCEC06F00009D8B412000D507F
:10031000BEEC06F016EC07F0020A04E14CD8D5EC6E
:1003200003F00B0673EC06F0230AE9E007EC07F094
:1003300063EC05F00B2A1200010E0C6E050E0B6E1D
:10034000010E61EC06F037D8D5EC03F0060E3D6ED9
:10035000060CCCEC06F00009D8B4120016EC07F03D
:10036000020A04E128D8D5EC03F00B0673EC06F082
:10037000230AD8B4120007EC07F063EC05F0DAD7D3
:100380003D503B6E3C6A3C50D8A412003B50010AE1
:1003900001E16AD7030A01E177D7010A92E0070A6F
:1003A000A4E0010AC9E0030AD4E01200E80E265CCA
:1003B000030E275812000CC02EF00B50120070D004
:1003C00081B081A20AD081A408D08A968A888A8ABC
:1003D0008A8C010E176E1F6A1200040E176E040C31
:1003E00081B081A2FAD781A4F8D78A868A988A8AAE
:1003F0008A8C020E176E010E1F6E010C81B081A255
:10040000ECD781A4EAD78A868A888A9A8A8C030ED6
:10041000176E020E1F6E020C81B081A2DED781A47E
:10042000DCD78A868A888A8A8A9C030E1F6E176A9E
:100430001200050E176E1E50BEEF06F01E504EEC59
:1004400006F027BE1200275004E1190E265CD8A042
:10045000120081B081A202D081B4E9D7010E1A6ED8
:1004600036D081B081A2120081A412001E50BEECD1
:1004700006F0070E176E070C1E504EEC06F027BE56
:100480001200275004E1190E265CD8A0120081B09A
:1004900081A21DD081A41BD01A6A176A120017D03E
:1004A00017502D6E2E6A2E50D8A412002D5088E0C1
:1004B000010A96E0030AA2E0010AAEE0070AB9E0E9
:1004C000010ABCE0030ACDE0010AD6E01200060EE4
:1004D000176E060C336E24EC06F0016E026A33C010
:1004E00015F032C014F0126A136A959C959A95988B
:1004F000346A356A4CD8640E2F6E83EC06F0030E16
:100500005EEC04F044D8050E2F6E83EC06F0030E6B
:100510005EEC04F03CD8010E2F6E83EC06F0030E67
:100520005EEC04F034D8010E2F6E83EC06F0020E60
:100530005EEC04F02CD8010E2F6E83EC06F0280E32
:10054000B0EC06F0B1EC05F0080EB0EC06F0B1EC42
:1005500005F0010EB0EC06F01AD8030E2F6E83ECF6
:1005600006F0B1EC05F0060EB0EC06F0B1EC05F0CB
:100570000F0EB0EC06F0344A352A35BEBBD73550E5
:1005800005E1020E345CD8B01200B4D7120001C0ED
:100590002DF002C02EF0306A120040D0C2B212001C
:1005A000C4CF07F0C294010E056EC282010CC2B224
:1005B0001200C4CF08F0C284020E056E020C0A0EAF
:1005C000056E06500EE0630E0864630C970E08601B
:1005D000970C630E0764630C970E0760970C066A0E
:1005E00012000B0E086002D0410E29D0EF0E0864F5
:1005F00002D0440E24D00B0E076002D0530E1FD041
:10060000EF0E0764EF0C570E1AD013EC07F0000939
:10061000D8B4120009500BEC07F017D00550276E24
:10062000286A2850D8A412002750B8E0010ABFE079
:10063000030AC5E0060AE9E00E0A07E01200096EA7
:10064000010E066E040E056E040C056AC2821200CD
:1006500043D01A5021E0010E166E73EC06F01C6EAA
:10066000020E186E1D504EEC06F027BE08D0D6ECD8
:1006700001F005E3010E186E196A1B6A0AD01950C1
:1006800008E01C501B1805E0010E186E1CC01BF082
:10069000196A1D50BEEF06F01CC01BF01200192A8B
:1006A000020E166E020C1A50D8A412001D50BEEC99
:1006B00006F0166A12001A50D8B4120070EF06F055
:1006C000050E166E050C1A50D8A412001D50BEEC73
:1006D00006F0030E166E030C16502D6E2E6A2E5069
:1006E000D8A412002D50B5E0010AD9E0030ADBE0DE
:1006F000010AE1E0070AE4E0010AE5E0120034D073
:100700004CD84EEC06F040D8D8A012001050BEECE9
:1007100006F08B86020E116E020C3FD84EEC06F0EE
:1007200033D8D8A012001050BEEC06F08B96030E02
:10073000116E030C010E116E0F504EEC06F027BE29
:100740001200D6EC01F0D8A012000E28266E276AFF
:10075000000E2722296A050E286E9CEC04F0265014
:100760000E6E0F50BEEF06F011502D6E2E6A2E50F9
:10077000D8A412002D50D8B41200010AC1E0030A17
:10078000CCE0010AD7E012002D50265C2750800AE9
:100790002F6E2E50800A2F5812000E502D6E2E6A8A
:1007A0002D2A000E2E2210501200356E30D02E5001
:1007B00004E0326A400E316E02D0316A326A35503E
:1007C0003124336E000E3220346E2ED035C033F01B
:1007D000346A2E0402E1400E04D0020E2E1804E109
:1007E00014503326000E0DD0030E2E181DE11450A8
:1007F0002F6E306A400E2F26000E30222F503326E7
:100800003050342211D035C033F0346A0DD0155039
:100810002F6E306A3050F7E12F50010AF4E0030ADE
:10082000C6E0060AD3E0EFD7B1EC05F033508009FB
:10083000B0EC06F02EC013F035C012F012003A6E84
:100840003A500CE118D805E016D863EC05F00B2AF5
:10085000120030D8D5EC03F00B6A12003A04D8A489
:1008600012001BD804E019D863EC05F0F0D722D8A9
:10087000D5EC03F0F1D737500B0DF3CF38F00C5017
:100880000B0DF3504F0F38240B24396E39C0F6FF8F
:10089000020EF76E0800F55012000C50060DF350D2
:1008A000010F0B24386E38C0F6FF020EF76E0800F9
:1008B000F55012000C2A010E2E6E000C276E959634
:1008C0002FD88C8C27A603D0266A262A01D0266A28
:1008D00026462DD8F70B26188C6E27A403D0266A3F
:1008E000262A01D0266A23D8FB0B26188C6E27A255
:1008F00003D0266A262A01D0266A26468C5026185E
:10090000FD0B26188C6E27A003D0266A262A01D05C
:10091000266A8C502618FE0B26188C6E8C9C1200B2
:100920009594959295908C988C9A8C8C1200264672
:1009300026468C50261812002B6A27AE06D0266C4D
:10094000271ED8B0272A010E2B6E29AE04D0286CA2
:10095000291ED8B0292A2850291017E0010E2A6E26
:1009600004D0D890283629362A2A29AEFAD728501A
:10097000265C2950275804E32850265E2950275A20
:10098000D890293228322A2EF2D72B5004E0266C38
:10099000271ED8B0272A26C026F027C027F012002D
:1009A000276E27A603D0266A262A01D0266A264665
:1009B00025D8F70B26188C6E27A403D0266A262A82
:1009C00001D0266A1BD8FB0B26188C6E27A203D0F9
:1009D000266A262A01D0266A26468C502618FD0B48
:1009E00026188C6E27A003D0266A262A01D0266AF4
:1009F0008C502618FE0B26188C6E120026462646B2
:100A00008C5026181200276E27AE03D0266A262A9D
:100A100001D0266A264625D8F70B26188C6E27ACFF
:100A200003D0266A262A01D0266A1BD8FB0B26187B
:100A30008C6E27AA03D0266A262A01D0266A26466B
:100A40008C502618FD0B26188C6E27A803D0266A1A
:100A5000262A01D0266A8C502618FE0B26188C6E8A
:100A60001200264626468C50261812002A6E1FD8E1
:100A700003E1020E285C0AE31AD808E10A0E285C9A
:100A800005E206D805E1010E196E02D02A501200C7
:100A90002A50060DF350190F1924266ED90E26265A
:100AA00026C0F6FF020EF76E0800F5501200D00EB9
:100AB000266E27682A50286E296A26502826275035
:100AC000292229501200366EB1EC05F0365008ECA0
:100AD00006F0122A030E151807E1130E1264130C08
:100AE000126A132A030E09D0020E15180AE1270E06
:100AF0001264270C126A132A010E136409D0136AB8
:100B000007D01304D8A41200270E126401D0126A71
:100B100013C02EF01250D5EF03F01ED8F294034A02
:100B2000042A300E035C750E0458D8A01200206A07
:100B3000180E206401D00DD033EC06F0DE0407E17E
:100B40002050C6EC06F00350DE5E0450DD5A202A29
:100B5000EFD7036A046A1200D80ED76EF00ED66E75
:100B6000F00C95869584958295808C988C8A01509E
:100B7000BEEC06F08C8C8C8C000E83B6010E2D6EB4
:100B80008C9C8C9C8C8C8C8C8C9C8C9C01504EEC0A
:100B900006F02650271001E012002D50EBE1120064
:100BA000300EF66E0E0EF76E000EF86E0900F5CFE1
:100BB0003DF000EE80F04B0EEE6AE806FDE100EE3F
:100BC00001F0200EEE6AE806FDE13E903E92000E36
:100BD000F86E0001ECEF05F03AEC06F0A2EC06F03E
:100BE00093EC06F0100E326E020E6AEC02F0EEECA0
:100BF00006F00FEC07F0E3EC06F07FEC03F028ECD6
:100C000003F0DFEC01F033EC01F0CDEC02F0F5D7AE
:100C1000286E95969594959295908C888C9A8C8C4C
:100C2000285003EC05F00BD82850D0EC04F000D08D
:100C30008C8C8C9C958695849582958012008C8CEA
:100C40008C9C8C9C8C8C1200206A05D0202A190E5A
:100C5000201801E1FF0C07D8DE04F8E004D8010EEB
:100C6000DF6E205012002050030DF350820FD96E1A
:100C7000DA6A1200D09EF28EF28CF28AF294080E9A
:100C8000D56EACEC05F0D58E206A180E206401D02C
:100C9000180C33EC06F0DF6A202AF7D72A6E03C05F
:100CA0002BF004C02CF02A50C6EC06F0DECF28F062
:100CB000DDCF29F028502B5C266E29502C58276E4A
:100CC0001200276E270408E11B6A196A186A020ECF
:100CD000166E1D50BEEF06F02750D8A4120000D0AB
:100CE000040E166E040C02EC07F0266E1F50030D66
:100CF000F3500D0F2624276E27C0F6FF020EF76E65
:100D00000800F55012002D50BEEC06F02D504EECB0
:100D100006F02F50265C2750800A316E3050800A32
:100D20003158F4E31200F19E93809382938493965A
:100D30009398939A939C24EC06F01E6E24EC06F094
:100D40001D6E120092809282030EC26E0D0EC16E55
:100D5000440EC06E9490949294949496066A1200F5
:100D6000286E959690EC04F0285003EC05F01FECEB
:100D700006F02850D0EC04F018EF06F0266E26504E
:100D800005D803C0DEFF04C0DDFF1200030DF350E1
:100D9000800FD96EDA6A1200266A1A5007E016042C
:100DA00003E0040E161802E1010E266E2650120012
:100DB000B1EC05F0010EB0EC06F0C7EC02F0030E4A
:100DC0002F6E83EF06F09496116A24EC06F0106EF5
:100DD00024EC06F00F6E010E0E6E010C948E948CB6
:100DE000AC84AC8AAC98AB8EAB88B896AF68120076
:100DF000B1EC05F00E0EB0EF06F0B1EC05F00C0E04
:100E0000B0EF06F081A0000C81A2010C020C73EC83
:100E100006F036EF05F0266E26C0ADFF120024EC7A
:100E200006F00D6E1200ACB2010C000C185012004E
:010E300001C0
:020000040020DA
:08000000FFFFFFFFFFFFFFFF00
:020000040030CA
:0E000000FF06191EFF0181FF03C003E003404D
:00000001FF
