:020000040000FA
:0400000019EF00F004
:100008007282D9CF47F0DACF48F0F3CF49F0F4CF76
:100018004AF0A2EC09F04AC0F4FF49C0F3FF48C017
:10002800DAFF47C0D9FF729211007AEF09F037D290
:10003800000E5C6E43EC04F0020E3518D8A41200D2
:100048005AEC0BF0000EA1EC0AF0020E716E020CD5
:1000580021EC0BF00009D8B412004FEC0AF0D00FD5
:10006800326E320404E0020E3218D8A412002DECCD
:100078000BF0000E536A7AEC07F0010EA1EC0AF0BF
:10008800356A346A030E716E030C000E5C6E010E45
:1000980043EC04F0020E3518D8A41200356A050E98
:1000A800346E60DA7AEC07F055EC0BF0040E716EE2
:1000B800040C0B0E34640AD036508EEC0AF04CBE99
:1000C80005D040DA03E3050E716E050C21EC0BF048
:1000D8000009D8B41200365013EC0BF084EC0BF086
:1000E800020A04E13FDA7AEC07F034064FEC0AF032
:1000F800230AE9E02CDA64EC0BF0DF6E28DADF5033
:1001080050EC09F0342A120022DADF6A010E356E4B
:10011800050E346E010EA1EC0AF024DA7AEC07F031
:10012800060E716E060C21EC0BF00009D8B4120013
:1001380084EC0BF0020A04E115DA7AEC07F03406D5
:100148004FEC0AF0230A09E0F8D964EC0BF0DF6EF3
:10015800F4D9DF5050EC09F0D5D7EFD9DF6A070E94
:10016800716E070C32040CE120EECBF000EE5BF070
:10017800110EDBCFEBFFE806FCE2B3EC0AF00BD084
:1001880020EECBF000EE4BF0110EDBCFEBFFE806D4
:10019800FCE2D6EC0AF0080E716E080C6CEC0BF061
:1001A8000009D8B41200320412E1000EA1EC0AF0E2
:1001B8008CEC0BF0000904E1090E716E326A1BD059
:1001C8008CEC0BF0E80617E1010E716E14D08CEC84
:1001D8000BF0030A08E1010EA1EC0AF0030E716EA0
:1001E800010E326E08D08CEC0BF0040A04E1000E0C
:1001F800A1EC0AF0E9D72DEC0BF0000E536A7AEC6B
:1002080007F0356A346A120032C05CF0020E43EC23
:1002180004F0020E35180FE0325035C06DF06E6AEA
:100228006D26000E6E226EBE000C6E5004E1040EA8
:100238006D5CD8A012005AEC0BF00A0E716E0A0C15
:1002480088EC0BF00009D8A412000B0EAED0365083
:1002580013EF0BF036508EEC0AF04CBE16D0580E49
:100268004B5C020E4C5811E3332A560EF66E1F0EE5
:10027800F76E0800F5CF4BF033507BEC0AF0336E85
:10028800090E716E2DEC0BF0BCD788EC0BF0000951
:1002980011E08AEC0BF0530A05E1040E326002D03B
:1002A800322AEED78AEC0BF0570AEAE13250E8E03E
:1002B8003206E6D721EC0BF00009D8B412004FEC57
:1002C8000AF0230AD8A41200325004E1326A0C0E54
:1002D800716E0C0C3228140DF3CF71F012007FEC04
:1002E8000BF00009D8B4120037D970EC0BF034D9F0
:1002F80003E10D0E716E0D0C322A12007CEC0BF02E
:100308000009D8B4120086EC0BF0326E4B0E32188E
:10031800D8A412000E0E716E010E68EC0BF0B2D765
:10032800000E5C6E030E43EC04F03504D8A41200F2
:100338005AEC0BF050EC0BF00F0E716E0F0C21EC19
:100348000BF00009D8B412004FEC0AF0326E2A0EF6
:10035800321803E0230E321808E12A0E3218D8A406
:100368001200110E716E82EF0BF0100E716E100CF0
:100378007FEC0BF00009D8B41200325070EC0BF08F
:10038800DBD77FEC0BF00009D8B41200460E70ECF6
:100398000BF0120E716E120C7CEC0BF00009D8B445
:1003A800120086EC0BF0316E140E716E50D7000EF1
:1003B8005C6E040E43EC04F0020E3518D8A412004B
:1003C800140E716E140C36508EEC0AF04CBE0ED022
:1003D800100E4B5C0E0E4C5809E3160E716E2DEC88
:1003E8000BF05AD0000E536A7AEF07F07CEC0BF052
:1003F8000009D8B4120086EC0BF0326E150E716E3F
:10040800150C7CEC0BF00009D8B4120086EC0BF04C
:10041800336E130E716E2DEC0BF03ED0000E5C6E39
:10042800050E43EC04F0020E3518D8A41200010E94
:10043800536E070E7AEC07F00A0E4B6E31501FEC24
:100448000AF0300F50EC09F00A0E4B6E31507BEC7D
:100458000AF0300F50EC09F04AEC0BF0170E716EF1
:10046800170C21EC0BF00009D8B412004FEC0AF07D
:10047800230AD8A41200315042EC0BF0180E716E0A
:10048800180C6CEC0BF00009D8B41200090E716E50
:100498002DEC0BF0336A326A356A346AA3D771508F
:1004A8006D6E6E6A6E50D8A412006D50010A01E19B
:1004B800BFD5030A01E1CCD5010A01E1E6D5070A57
:1004C80001E1F7D5010A01E11FD6030A01E12BD6A4
:1004D800010A01E147D60F0A01E160D6010A01E1EC
:1004E80093D6030A01E1ACD6010A01E1B3D6070AA3
:1004F80001E1F5D6010A01E101D7030A01E110D7AC
:10050800010A01E11CD71F0A01E132D7010A01E102
:1005180038D7030A01E140D7010A01E148D7070AA1
:1005280001E151D7010A01E16CD7030A01E176D74D
:10053800010A97E00F0AA5E012003450D00FD96ED7
:10054800DA6A1200B00E4B5C040E4C58120034509C
:10055800C70FD96EDA6A12003250CB0FD96EDA6A39
:10056800DF50120035C053F0345012000AD1020E89
:10057800276E080E291803E0020E2A6E020C010EDF
:10058800276E2A6A1200285045D937D90DE159D962
:1005980009E1030E2A6E010E536E0A0E7AEC07F07B
:1005A800286A1200282A1200040E2A6E040C55D953
:1005B8002950120D000E5C6E010E5D6E090E5C2650
:1005C800000E5D221AD9F0E148D9DF50EBE12A6A22
:1005D800276A1200286A292A010E2A6E010C080EC1
:1005E800291803E0060E2A6E060C0A0E2A6E0A0C5B
:1005F800285010D902D906E124D9D4E12A6A040E78
:10060800276E040C070E2A6E070C286A292A050E85
:100618002A6E050C265001EC08F013D9A86E285054
:10062800010FD96EDA6A1ED9FFD8A69EA69CA684A9
:10063800F29E550EA76EAA0EA76EA682F28EA694FB
:100648000B0E2A6E0B0CA6B21200FBD802E0282A69
:10065800CCD7286A0C0E2A6E0C0C2650FBEC07F03F
:10066800FCD8DF50A86EF9D8FDD8090E5B26000E1D
:100678005C22DAD8A69EA69CA684F29E550EA76E8A
:10068800AA0EA76EA682F28EA6940D0E2A6E0D0CE7
:10069800A6B21200E2D8DF5002E0282ADBD7286A87
:1006A8000E0E2A6E0E0C2628070B266E950EA96EC6
:1006B80026C0A8FFA69EA69CA684F29E550EA76EED
:1006C800AA0EA76EA682F28EA6940F0E2A6E0F0CA3
:1006D800A6B21200030E54D7050E281811E12750B0
:1006E800B6D82550DE5C01E34CD72750B0D825C0DA
:1006F800DFFF2750BED829C0DFFF150E2A6E150C64
:100708002750A5D82850020DF350130FE16EE26A66
:10071800DE50E65C01E346D728C027F043D72750D0
:10072800020DF350900FA96E25C0A8FFA69EA69CA7
:10073800A684F29E550EA76EAA0EA76EA682F28E0A
:10074800A694160E2A6E160CA6B21200170E2A6E62
:10075800170C2750020DF350910FA96E29C0A8FF5E
:10076800A69EA69CA684F29E550EA76EAA0EA76EFC
:10077800A682F28EA694180E2A6E180CA6B2120043
:1007880000D72A505B6E5C6A5C50D8A412005B509C
:10079800D8B41200010A01E1EAD6030A01E1F3D64E
:1007A800010A01E104D7070A01E114D7010A01E1AE
:1007B80016D7030A01E11CD7010A01E126D70D0A61
:1007C80001E128D7010A01E13ED7070A01E145D72F
:1007D800010A01E15DD7030A01E165D7010A01E1D8
:1007E80077D71B0A01E178D7010A99E0030AACE040
:1007F800010AAFE00F0AC2E01200F3505C26F45081
:100808005D2228505C24E16E000E5D20E26EDE5011
:10081800E6181200010FD96EDA6A2950120D000E7F
:100828005C6E010E5D6E1200F3505B26F4505C2284
:1008380028505B24E16E000E5C20E26EDFCFE7FFFC
:1008480012002850010FD96EDA6ADF501200020D2B
:10085800F350130FD96EDA6A120028500A0FD96EB6
:10086800DA6A12002650120D000E5B6E010E5C6EE5
:100878001200020DF350140FD96EDA6A1200616E7D
:1008880061500EE1CBD89ED806E0C8D89BD850EC72
:1008980009F0342A1200DAD87AEC07F0346A120028
:1008A80061040CE1C2D88ED805E0BFD88BD850ECD3
:1008B80009F0EFD7CBD87AEC07F0F0D7020E611821
:1008C8004DE15C5035C05DF05E6A5D26000E5E222B
:1008D8005EBE06D05E5003E1040E5D5CD8B0120027
:1008E800ABD887D8100E0800F5642AD0346024D01D
:1008F800345033244B6E4C6A4C369ED87AD8080054
:10090800F5504D6E4E6AB6EC08F035501C0D580E79
:100918005F6E1F0E606EB0D85C501C0DADD84B508A
:100928005F264C5060225FC0F6FF60C0F7FF0800EA
:10093800F55050EC09F0ADD789D87AEC07F0AED76E
:1009480060D84FD83FD806E05CD84BD83BD850EC9D
:1009580009F09FD77BD87AEC07F0A0D7030E61186F
:100968000AE181D804E07FD850EC09F092D76ED81C
:100978007AEC07F093D7040E611814E135500AE1B8
:1009880069D804E067D850EC09F083D75FD87AECCF
:1009980007F084D7325050EC09F0335050EC09F08E
:1009A800352A1200050E6118D8A4120030D80AD8CA
:1009B80005E02DD807D850EC09F06BD747D87AEC6A
:1009C80007F06CD7F3505D26F4505E2234505D2654
:1009D800000E5E225DC0F6FF5EC0F7FF0800F5500E
:1009E80012005E6EF3505D26F4505E225C501C0DC2
:1009F80012005D26000E5E225DC0F6FF5EC0F7FFA6
:100A0800000C35501C0D580E5D6E1F0E120035502F
:100A18000B0DF70E5D6E1E0E5E6E120035500B0D3F
:100A28000D0E5D6E1F0E5E6E12003550060D330EF4
:100A38005D6E1F0E5E6E1200540E5D6E1F0E5E6EB2
:100A480035505D26000E5E225C501200352A010EDC
:100A5800536E000C4B0E3424F66EF76A1F0EF72205
:100A68000800F5501200230E3424F66EF76A1F0EA4
:100A7800F7220800F5501200F3505F26F450602268
:100A880012006DD024508EEC0AF04CBE1200A6EC79
:100A980002F0D8A01200245013EC0BF0020E236EC3
:100AA800010E536E000E7AEC07F01E5015E1090E88
:100AB8001E6E1D500FE1050E1D6E705009E1090EE6
:100AC800706E6F5003E10A0E236E0A0C6F06120057
:100AD800700612001D0612001E0612006F50300F1D
:100AE80050EC09F0030E236E030C7050300F50ECDD
:100AF80009F0040E236E040C3A0E50EC09F0050EB2
:100B0800236E050C1D50300F50EC09F0060E236EB5
:100B1800060C1E50300F50EC09F0010E236E010C2C
:100B28006F50300F50EC09F0080E236E080C70500F
:100B3800300F50EC09F0090E236E090C3A0E50ECF8
:100B480009F0C1D71D50300F50EC09F00B0E236E81
:100B58000B0C1E50300F50EC09F0236A1200235082
:100B68005C6E5D6A5D50D8A412005C50D8B4120067
:100B7800010A88E0030AB2E0010AB7E0070ABCE00C
:100B8800010AC0E0030AC5E0010ACAE00F0ACFE083
:100B9800010AD4E0030AD6E0010ADBE0120070D0B3
:100BA80081B081A20AD081A408D08A968A888A8ACC
:100BB8008A8C010E3C6E446A1200040E3C6E040CD2
:100BC80081B081A2FAD781A4F8D78A868A988A8ABE
:100BD8008A8C020E3C6E010E446E010C81B081A21B
:100BE800ECD781A4EAD78A868A888A9A8A8C030EE7
:100BF8003C6E020E446E020C81B081A2DED781A445
:100C0800DCD78A868A888A8A8A9C030E446E3C6A64
:100C18001200050E3C6E435013EF0BF043508EEC60
:100C28000AF04CBE12004C5004E1190E4B5CD8A0DF
:100C3800120081B081A202D081B4E9D7010E3F6EC3
:100C480036D081B081A2120081A41200435013EC67
:100C58000BF0070E3C6E070C43508EEC0AF04CBEAE
:100C680012004C5004E1190E4B5CD8A0120081B060
:100C780081A21DD081A41BD03F6A3C6A120017D004
:100C88003C50526E536A5350D8A41200525088E018
:100C9800010A96E0030AA2E0010AAEE0070AB9E0F9
:100CA800010ABCE0030ACDE0010AD6E01200060EF4
:100CB8003C6E060C586E65EC0AF01F6E206A58C030
:100CC8003AF057C039F0376A386A959C959A9598E2
:100CD800596A5A6A4CD8640E546EE6EC0AF0030E50
:100CE80006EC08F044D8050E546EE6EC0AF0030E44
:100CF80006EC08F03CD8010E546EE6EC0AF0030E40
:100D080006EC08F034D8010E546EE6EC0AF0020E38
:100D180006EC08F02CD8010E546EE6EC0AF0280E0A
:100D280005EC0BF0E4EC09F0080E05EC0BF0E4EC34
:100D380009F0010E05EC0BF01AD8030E546EE6EC20
:100D48000AF0E4EC09F0060E05EC0BF0E4EC09F00F
:100D58000F0E05EC0BF0594A5A2A5ABEBBD75A5007
:100D680005E1020E595CD8B01200B4D712001FC0BA
:100D780052F020C053F0556A12002CC08BFF4CD0A3
:100D8800C2B21200C4CF2EF0C284C296010E2C6EDD
:100D9800C282010CC2B21200C4CF2FF0C294C28624
:100DA800020E2C6E020C040E2C6E2D500FE0630EFA
:100DB8002F64630C970E2F60970C630E2E64630CE0
:100DC800970E2E60970C2D6A8B9012000B0E2F60D9
:100DD80008D0410E306E010E2D6E2B50040F2C6E74
:100DE8001200EF0E2F6402D0440EF4D70B0E2E60C3
:100DF80002D0530EEFD7EF0E2E64EF0C570EEAD742
:100E08001BD07FEC0BF00009D8B41200305070EC06
:100E18000BF012D02C6A12002C504C6E4D6A4D50BB
:100E2800F9E14C50ADE0010AB5E0030ABCE0060A5E
:100E380003E0010AE6E0EED72C6AC282120043D032
:100E48003F5021E0010E3B6E4FEC0AF0416E020E5E
:100E58003D6E42508EEC0AF04CBE08D0A6EC02F073
:100E680005E3010E3D6E3E6A406A0AD03E5008E036
:100E78004150401805E0010E3D6E41C040F03E6A09
:100E8800425013EF0BF041C040F012003E2A020E10
:100E98003B6E020C3F50D8A41200425013EC0BF0EA
:100EA8003B6A12003F50D8B41200B0EF0AF0050EAA
:100EB8003B6E050C3F50D8A41200425013EC0BF0C7
:100EC800030E3B6E030C3B50526E536A5350D8A42A
:100ED80012005250B5E0010AD9E0030ADBE0010A2A
:100EE800E1E0070AE4E0010AE5E012005A6E30D0BA
:100EF800535004E0576A400E566E02D0566A576A3D
:100F08005A505624586E000E5720596E2ED05AC08B
:100F180058F0596A530402E1400E04D0020E5318E7
:100F280004E139505826000E0DD0030E53181DE168
:100F38003950546E556A400E5426000E55225450AE
:100F480058265550592211D05AC058F0596A0DD018
:100F58003A50546E556A5550F7E15450010AF4E07E
:100F6800030AC6E0060AD3E0EFD7E4EC09F05850CC
:100F7800800905EC0BF053C038F05AC037F0120066
:100F8800286A080E286401D00AD0A69EA69C29507B
:100F980034D8A680A6B0FED723D814D8F2D7286AAA
:100FA800080E286401D0080CA69EA69C29501FD8BC
:100FB800A680A6B0FED714D8090E4B26000E4C22E8
:100FC80001D8EED7F3504B26F4504C2228504B242E
:100FD800D96E000E4C20DA6EA8CFDFFF282A120047
:100FE8002950120D000E4B6E010E4C6E1200180D9A
:100FF800F3502824090FA96E1200180DF350282465
:10100800A96E12004C6E95962FD88C8C4CA603D0E6
:101018004B6A4B2A01D04B6A4B462DD8F70B4B181D
:101028008C6E4CA403D04B6A4B2A01D04B6A23D850
:10103800FB0B4B188C6E4CA203D04B6A4B2A01D089
:101048004B6A4B468C504B18FD0B4B188C6E4CA0C2
:1010580003D04B6A4B2A01D04B6A8C504B18FE0BBD
:101068004B188C6E8C9C12009594959295908C9848
:101078008C9A8C8C12004B464B468C504B181200A5
:101088004F6E2DD803E1020E4D5C0AE328D808E123
:101098000A0E4D5C05E206D805E1010E3E6E02D04F
:1010A8004F501200D90E4B6EFE0E4C6E4F50060D6F
:1010B800C80E4D6E1F0E4E6EF3504D26F4504E2244
:1010C8003E504D26000E4E224B504D264C504E227F
:1010D8004DC0F6FF4EC0F7FF0800F5501200D00EC5
:1010E8004B6E4C684F504D6E4E6A4B504D264C50CF
:1010F8004E224E5012002A6A296A070E296401D02E
:1011080004D0C4EC07F0292AF8D7286A090E286405
:1011180001D01BD0A69EA69C2850900FA96EA68031
:1011280028502BEC04F0A8CFDFFFA69EA69C2850E1
:10113800910FA96EA680A6B0FED728503DEC04F00A
:10114800A8CFDFFF020E2826E1D7A69EA69C950E03
:10115800A96EA680A6B0FED7A8CF26F02628D8B4B8
:10116800266A1200506A4CAE06D04B6C4C1ED8B0A2
:101178004C2A010E506E4EAE04D04D6C4E1ED8B0A7
:101188004E2A4D504E1017E0010E4F6E04D0D890E5
:101198004D364E364F2A4EAEFAD74D504B5C4E5018
:1011A8004C5804E34D504B5E4E504C5AD8904E323A
:1011B8004D324F2EF2D7505004E04B6C4C1ED8B035
:1011C8004C2A4BC04BF04CC04CF012004C6E4CA655
:1011D80003D04B6A4B2A01D04B6A4B4625D8F70BF4
:1011E8004B188C6E4CA403D04B6A4B2A01D04B6A27
:1011F8001BD8FB0B4B188C6E4CA203D04B6A4B2AA6
:1012080001D04B6A4B468C504B18FD0B4B188C6E1B
:101218004CA003D04B6A4B2A01D04B6A8C504B1818
:10122800FE0B4B188C6E12004B464B468C504B18DD
:1012380012004C6E4CAE03D04B6A4B2A01D04B6A5D
:101248004B4625D8F70B4B188C6E4CAC03D04B6A29
:101258004B2A01D04B6A1BD8FB0B4B188C6E4CAA3F
:1012680003D04B6A4B2A01D04B6A4B468C504B1823
:10127800FD0B4B188C6E4CA803D04B6A4B2A01D03F
:101288004B6A8C504B18FE0B4B188C6E12004B4659
:101298004B468C504B1812005B6EE4EC09F05B5027
:1012A80003EC0AF0372A030E3A1807E1130E3764E5
:1012B800130C376A382A030E09D0020E3A180AE1CD
:1012C800270E3764270C376A382A010E386409D08C
:1012D800386A07D03804D8A41200270E376401D022
:1012E800376A38C053F037507AEF07F01C0EF66EA5
:1012F800170EF76E000EF86E0900F5CF6FF00900B3
:10130800F5CF70F00900F5CF71F001EE00F0900E06
:10131800EE6AE806FDE100EE80F05D0EEE6AE80692
:10132800FDE100EE01F0450EEE6AE806FDE172907F
:101338007292000EF86E0001C4EF09F0200ED76E0D
:101348008A0ED66EF294214A222A300E215C750E3E
:101358002258D8A01200456A180E456401D00DD055
:1013680074EC0AF0DE0407E145501BEC0BF0215049
:10137800DE5E2250DD5A452AEFD7216A226A120022
:1013880039EC0AF0C5EC0AF0F6EC0AF0100E576ECC
:10139800020E5EEC06F038EC0BF078EC0BF074EC17
:1013A8000BF07FEC08F023EC07F0D3EC05F01BEC16
:1013B80000F0C1EC06F0BAEC02F045EC05F0F3D70A
:1013C80095869584958295808C988C8A1F5013EC0D
:1013D8000BF08C8C8C8C000E83B6010E526E8C9C9C
:1013E8008C9C8C8C8C8C8C9C8C9C1F508EEC0AF06A
:1013F8004B504C1001E012005250EBE112004D6EC0
:1014080095969594959295908C888C9A8C8C4D5045
:101418001DEC09F00BD84D50EAEC08F000D08C8C8C
:101428008C9C958695849582958012008C8C8C9CDA
:101438008C9C8C8C12004C6E4E6A4B5014E0010E42
:101448004D6E03D0D8904B364D2A4BAEFBD7D89073
:101458004E364B504C5C03E34B504C5E4E80D8905C
:101468004B324D2EF4D74E501200D09EF28EF28C95
:10147800F28AF294080ED56ED80ED76EF00ED66E9C
:10148800D58E456A180E456401D0180C74EC0AF024
:10149800DF6A452AF7D74450030D3F0E4B6E1F0EE7
:1014A8004C6EF3504B26F4504C225FEC0BF04B265D
:1014B800000E4C224BC0F6FF4CC0F7FF0800F55059
:1014C8001200456A05D0452A190E451801E1FF0C9E
:1014D80007D8DE04F8E004D8010EDF6E455012008C
:1014E8004550030DF350820FD96EDA6A12004C6E24
:1014F800080E4D6E4E6AD8904C344E344E6ED890CD
:101508004C364B504E5C02E34B504E5E4D2EF3D79B
:101518004E5012004F6E21C050F022C051F04F5073
:101528001BEC0BF0DECF4DF0DDCF4EF04D50505C94
:101538004B6E4E5051584C6E12004C6E4C0408E1E4
:10154800406A3E6A3D6A020E3B6E425013EF0BF052
:101558004C50D8A4120000D0040E3B6E040C010EAF
:101568002A6E296A20EE5BF010EE01F0110EDBCF37
:10157800E3FFE806FCE2020E276E536A0A0E7AEFD2
:1015880007F092809282030EC26E0C0EC16E440E5A
:10159800C06E9490949294942D6AC282C294C2862A
:1015A8002C6A1200050E2A6E286A296A20EE4BF072
:1015B80010EE01F0110EDBCFE3FFE806FCE2020EAD
:1015C800276E020C525013EC0BF052508EEC0AF0BE
:1015D80054504B5C4C50800A566E5550800A5658F1
:1015E800F4E31200F19E93809382938493969398E8
:1015F800939A939C65EC0AF0436E65EC0AF0426E90
:1016080012004D6E959638EC08F04D501DEC09F01F
:101618001AEC0AF04D50EAEC08F013EF0AF04B6EA2
:101628004B5005D821C0DEFF22C0DDFF1200030D9C
:10163800F350800FD96EDA6A12004B6A3F5007E008
:101648003B0403E0040E3B1802E1010E4B6E4B50C5
:101658001200E4EC09F0010E05EC0BF0BBEC06F00F
:10166800030E546EE6EF0AF0948E948CAC84AC8A28
:10167800AC98AB8EAB88B896AF6812004B6E4BC077
:1016880025F0286A276A140E2A6E140C070E236E9A
:10169800536A0B0E7AEF07F0010E236E245013EFF6
:1016A8000BF0E4EC09F00E0E05EF0BF0E4EC09F09A
:1016B8000C0E05EF0BF081A0000C81A2010C020CAE
:1016C8004FEC0AF044EF08F04B6E4BC02BF01200C1
:1016D8002A50D8B4010C000C4B6E4BC0ADFF120061
:1016E80065EC0AF0246E120065EC0AF0366E120002
:1016F8009EBA010C000CACB2010C000C236A12005B
:101708003D501200AE5012002D5012003050120001
:07171800275012000300013D
:101EF6000054494D45204C4546543A0053434F52F1
:101F0600453A0000000000312E4C4F47494E000074
:101F16000000322E52454749535445520054494D0C
:101F2600452052454D41494E494E473A2055534565
:101F3600523A00505357443A00313233343536372B
:101F460038392A30234552524F52533A20000E0E4A
:101F56001C09312E504C415920412047414D450026
:101F66000000000000000000000000000000322E0B
:101F76004D4F444946592054494D45000000000044
:101F860000000000000000000000332E53484F57A9
:101F96002047454E4552414C20544F502035205342
:101FA600434F52455320342E4C4F474F5554000053
:101FB600000000000000000000000000000000001B
:101FC6000000310000000000414243320000444559
:101FD600463300004748493400004A4B4C35000060
:101FE6004D4E4F3600005051525337005455563817
:091FF60000005758595A39000047
:020000040020DA
:08000000FFFFFFFFFFFFFFFF00
:020000040030CA
:0E000000FF06191EFF0181FF03C003E003404D
:00000001FF
