:020000040000FA
:0400000019EF00F004
:100008007A82D9CF51F0DACF52F0F3CF53F0F4CF50
:1000180054F0DBEC07F054C0F4FF53C0F3FF52C0B8
:0E002800DAFF51C0D9FF7A921100B9EF07F04C
:1002000000312E4C4F47494E00000000322E52451F
:1002100047495354455200555345523A005053579D
:10022000443A003132333435363738392A302331C5
:100230002E504C415920412047414D4500000000BF
:100240000000000000000000000000322E4D4F446E
:100250004946592054494D45000000000000000067
:1002600000000000000000332E53484F5720474540
:100270004E4552414C0020544F5020352053434F9F
:10028000524553342E4C4F474F5554000000000048
:10029000000000000000000000000000000000312D
:1002A0000000000000414243320000444546330054
:1002B000004748493400004A4B4C3500004D4E4F32
:1002C00036000050515253370054555638000057ED
:1002D00058595A3900002BD1000E666E6EEC04F0AE
:1002E000020E3F18D8A4120046EC09F0000E93EC61
:1002F00008F0020E796E020C20EC09F00009D8B467
:10030000120013EC09F0D00F3D6E3D0404E0020E24
:100310003D18D8A412002CEC09F0000E5D6AF3EC35
:1003200005F0010E93EC08F03F6A3E6A030E796E09
:10033000030C000E666E010E6EEC04F0020E3F1808
:10034000D8A412003F6A050E3E6E21D9F3EC05F0E9
:1003500041EC09F0040E796E040C0B0E3E640BD0D8
:10036000405080EC08F056BE06D0EEEC05F003E3FA
:10037000050E796E050C20EC09F00009D8B41200C6
:10038000405005EC09F063EC09F0020A04E1FFD8E3
:10039000F3EC05F03E0613EC09F0230AE9E0F2D88D
:1003A00050EC09F0DF6EEED8DF508FEC07F03E2AFC
:1003B0001200E8D8DF6A010E3F6E050E3E6E010E98
:1003C00093EC08F0E4D8F3EC05F0060E796E060C19
:1003D00020EC09F00009D8B4120063EC09F0020A1D
:1003E00004E1D5D8F3EC05F03E0613EC09F0230A3E
:1003F00009E0C3D850EC09F0DF6EBFD8DF508FECB6
:1004000007F0D5D7BAD8DF6A070E796E070C3D041E
:100410000CE120EE13F000EE65F0110EDBCFEBFFE8
:10042000E806FCE2A5EC08F00BD020EE13F000EE9D
:1004300055F0110EDBCFEBFFE806FCE2C8EC08F04C
:10044000080E796E080C54EC09F00009D8B41200BB
:100450003D0412E169EC09F0000904E1090E796E2E
:100460003D6A1ED069EC09F0E8061AE1000E93EC33
:1004700008F0010E796E14D069EC09F0030A08E166
:10048000010E93EC08F0030E796E010E3D6E08D05C
:1004900069EC09F0040A04E1000E93EC08F0E9D7D6
:1004A0002CEC09F0000E5D6AF3EC05F03F6A3E6A41
:1004B00012003DC066F0020E6EEC04F0020E3F1812
:1004C0000FE03D503FC077F0786A7726000E782223
:1004D00078BE000C785004E1040E775CD8A01200BE
:1004E00046EC09F00A0E796E0A0C65EC09F0000979
:1004F000D8A412000B0E796E0B0C65EC09F0000904
:10050000D8B4120067EC09F0530A05E1040E3D600F
:1005100002D03D2A07D067EC09F0570A03E13D50AD
:1005200001E03D06090E796E2CEC09F0BFD7795039
:10053000776E786A7850D8A412007750010A01E1EA
:10054000CBD6030A01E1D8D6010A01E1F2D6070AA7
:1005500001E103D7010A01E12CD7030A01E138D7F1
:10056000010A01E154D70F0A01E16DD7010AA1E0A8
:10057000030ABBE0010AC1E012003E50180FD96E19
:10058000DA6A12003E500F0FD96EDA6A12003FC0CD
:100590005DF03E501200B5D0020E346E080E3618D3
:1005A00003E0020E376E020C010E346E376A120041
:1005B0003550E0D8D2D80DE1F4D809E1030E376EFA
:1005C000010E5D6E0A0EF3EC05F0356A1200352A55
:1005D0001200040E376E040CEAD83650120D000ECD
:1005E000666E010E676E090E6626000E6722B5D88C
:1005F000F0E1DDD8DF50EBE1376A346A1200356A8A
:10060000362A010E376E010C080E361803E0060E6E
:10061000376E060C0A0E376E0A0C3550ABD89DD8D3
:1006200006E1BFD8D4E1376A040E346E040C070E1D
:10063000376E070C356A362A050E376E050C3350B7
:100640007AEC06F0AED8A86E3550010FD96EDA6A92
:10065000B3D89AD8A69EA69CA684F29E550EA76EE5
:10066000AA0EA76EA682F28EA6940B0E376E0B0C06
:10067000A6B2120096D802E0352ACCD7356A0C0E05
:10068000376E0C0C335074EC06F091D8DF50A86E26
:100690008ED892D8090E6526000E662275D8A69EC1
:1006A000A69CA684F29E550EA76EAA0EA76EA682E1
:1006B000F28EA6940D0E376E0D0CA6B2120077D8EE
:1006C000DF5002E0352ADBD7356A0E0E376E0E0C8E
:1006D0003328070B336E950EA96E33C0A8FFA69E74
:1006E000A69CA684F29E550EA76EAA0EA76EA682A1
:1006F000F28EA6940F0E376E0F0CA6B21200030EE8
:1007000054D73750656E666A6650D8A4120065509B
:10071000D8B41200010A01E13FD7030A01E148D72A
:10072000010A01E159D7070A01E169D7010A01E18C
:100730006BD7030A01E171D7010A01E17BD70D0AEA
:1007400001E17DD7010A94E0070A9CE0010AB5E0C7
:10075000030ABEE0010AD1E01200F3506626F4500D
:10076000672235506624E16E000E6720E26EDE508F
:10077000E6181200010FD96EDA6A3650120D000E1B
:10078000666E010E676E1200F3506526F450662205
:1007900035506524E16E000E6620E26EDFCFE7FF84
:1007A00012003550010FD96EDA6ADF501200355051
:1007B0000A0FD96EDA6A12003350120D000E656E00
:1007C000010E666E120070D081B081A20AD081A4A1
:1007D00008D08A968A888A8A8A8C010E466E4E6A6A
:1007E0001200040E466E040C81B081A2FAD781A4D7
:1007F000F8D78A868A988A8A8A8C020E466E010EFB
:100800004E6E010C81B081A2ECD781A4EAD78A8612
:100810008A888A9A8A8C030E466E020E4E6E020CED
:1008200081B081A2DED781A4DCD78A868A888A8AB1
:100830008A9C030E4E6E466A1200050E466E4D509F
:1008400005EF09F04D5080EC08F056BE12005650EE
:1008500004E1190E555CD8A0120081B081A202D02B
:1008600081B4E9D7010E496E36D081B081A2120061
:1008700081A412004D5005EC09F0070E466E070CDE
:100880004D5080EC08F056BE1200565004E1190E8F
:10089000555CD8A0120081B081A21DD081A41BD0CC
:1008A000496A466A120017D046505C6E5D6A5D5018
:1008B000D8A412005C5088E0010A96E0030AA2E086
:1008C000010AAEE0070AB9E0010ABCE0030ACDE084
:1008D000010AD6E01200060E466E060C696E6950DB
:1008E0000EE154D838D806E051D835D88FEC07F04F
:1008F0003E2A120055D8F3EC05F03E6A1200690456
:100900000CE149D828D805E046D825D88FEC07F067
:10091000EFD746D8F3EC05F0F0D7020E6918D8A44B
:10092000120066503FC067F0686A6726000E6822B2
:1009300068BE06D068500EE1040E675CD8B01200A5
:1009400013D804E011D88FEC07F0D2D729D8F3ECF4
:1009500005F0D3D712003E24676E67C0F6FF020E83
:10096000F76E0800F550120066501C0DF3CF67F0CB
:100970003F501C0DF3502F0F67243E24686E68C053
:10098000F6FF020EF76E0800F55012003F500B0DF7
:10099000F350010F12003F50060DF350170F1200D5
:1009A0003F2A010E5D6E000C626E6AEC08F02F6E3D
:1009B000306A62C044F061C043F0416A426A959C6B
:1009C000959A9598636A646A4CD8640E5E6ED8EC0A
:1009D00008F0030E7FEC06F044D8050E5E6ED8ECEE
:1009E00008F0030E7FEC06F03CD8010E5E6ED8ECEA
:1009F00008F0030E7FEC06F034D8010E5E6ED8ECE2
:100A000008F0020E7FEC06F02CD8010E5E6ED8ECDA
:100A100008F0280EF7EC08F0FDEC07F0080EF7ECF4
:100A200008F0FDEC07F0010EF7EC08F01AD8030E01
:100A30005E6ED8EC08F0FDEC07F0060EF7EC08F05F
:100A4000FDEC07F00F0EF7EC08F0634A642A64BE71
:100A5000BBD7645005E1020E635CD8B01200B4D776
:100A600012002FC05CF030C05DF05F6A120038C029
:100A70008BFF45D0C2B21200C4CF3AF0C284C296F6
:100A8000010E386EC282010CC2B21200C4CF3BF01C
:100A9000C294C286020E386E020C050E386E3950B2
:100AA0000FE0630E3B64630C970E3B60970C630E84
:100AB0003A64630C970E3A60970C396A8B90120077
:100AC0000B0E3B6002D0410E2AD0EF0E3B6402D0E9
:100AD000440E25D00B0E3A6002D0530E20D0EF0EFC
:100AE0003A64EF0C570E1BD060EC09F00009D8B443
:100AF00012003C5058EC09F018D0386A12003850F7
:100B0000566E576A5750F9E15650B4E0010ABCE0FE
:100B1000030AC3E0060AE8E0010A07E0EED73C6EEC
:100B2000010E396E040E386E040C386AC28212004F
:100B300042D0495020E0010E456E13EC09F04B6E97
:100B4000020E476E4C5080EC08F056BE07D046D8D7
:100B500005E3010E476E486A4A6A0AD0485008E029
:100B60004B504A1805E0010E476E4BC04AF0486AE8
:100B70004C5005EF09F04BC04AF01200482A020E13
:100B8000456E020C4950D8A412004C5005EC09F0F7
:100B9000456A12004950D8B41200A2EF08F0050EC1
:100BA000456E050C4950D8A412004C5005EC09F0D4
:100BB000030E456E030C45505C6E5D6A5D50D8A413
:100BC00012005C50B6E0010AD9E0030ADBE0010A3A
:100BD000E1E0070AE4E0010AE5E01200B00E555C2E
:100BE000040E56581200646E30D05D5004E0616A05
:100BF000400E606E02D0606A616A64506024626E6A
:100C0000000E6120636E2ED064C062F0636A5D04E2
:100C100002E1400E04D0020E5D1804E1435062264A
:100C2000000E0DD0030E5D181DE143505E6E5F6A2D
:100C3000400E5E26000E5F225E5062265F506322E9
:100C400011D064C062F0636A0DD044505E6E5F6A7A
:100C50005F50F7E15E50010AF4E0030AC6E0060ABD
:100C6000D3E0EFD7FDEC07F062508009F7EC08F015
:100C70005DC042F064C041F01200356A080E356470
:100C800001D00AD0A69EA69C365034D8A680A6B025
:100C9000FED723D814D8F2D7356A080E356401D0B0
:100CA000080CA69EA69C36501FD8A680A6B0FED7DC
:100CB00014D8090E5526000E562201D8EED7F3504F
:100CC0005526F450562235505524D96E000E562024
:100CD000DA6EA8CFDFFF352A12003650120D000E53
:100CE000556E010E566E1200180DF3503524090F83
:100CF000A96E1200180DF3503524A96E1200566E1D
:100D000095962FD88C8C56A603D0556A552A01D0BB
:100D1000556A55462DD8F70B55188C6E56A403D03E
:100D2000556A552A01D0556A23D8FB0B55188C6E8D
:100D300056A203D0556A552A01D0556A55468C50A3
:100D40005518FD0B55188C6E56A003D0556A552AC0
:100D500001D0556A8C505518FE0B55188C6E8C9C22
:100D600012009594959295908C988C9A8C8C120088
:100D7000554655468C5055181200376A366A070E8C
:100D8000366401D004D03DEC06F0362AF8D7356A37
:100D9000090E356401D01BD0A69EA69C3550900F3D
:100DA000A96EA6803550020DF350250F1DD8A69EC2
:100DB000A69C3550910FA96EA680A6B0FED73550DF
:100DC000020DF350260F10D8020E3526E1D7A69E4D
:100DD000A69C950EA96EA680A6B0FED7A8CF33F02C
:100DE0003328D8B4336A1200D96EDA6AA8CFDFFF8D
:100DF0001200566E56A603D0556A552A01D0556A80
:100E0000554625D8F70B55188C6E56A403D0556A55
:100E1000552A01D0556A1BD8FB0B55188C6E56A26B
:100E200003D0556A552A01D0556A55468C5055183D
:100E3000FD0B55188C6E56A003D0556A552A01D06B
:100E4000556A8C505518FE0B55188C6E120055467D
:100E500055468C5055181200566E56AE03D0556A42
:100E6000552A01D0556A554625D8F70B55188C6E72
:100E700056AC03D0556A552A01D0556A1BD8FB0BD6
:100E800055188C6E56AA03D0556A552A01D0556A5A
:100E900055468C505518FD0B55188C6E56A803D02E
:100EA000556A552A01D0556A8C505518FE0B5518B5
:100EB0008C6E1200554655468C5055181200596ECE
:100EC00022D803E1020E575C0CE31DD80AE10A0E9A
:100ED000575C07E20DD807D802E1010E486E08D82A
:100EE00002D059501200020EF76E0800F5501200A1
:100EF0005950060DF3509F0F4824556ED90E5526B4
:100F000055C0F6FFD90CD00E556E56685950576E25
:100F1000586A555057265650582258501200656E40
:100F2000FDEC07F0655038EC08F0412A030E441838
:100F300007E1130E4164130C416A422A030E09D0E3
:100F4000020E44180AE1270E4164270C416A422A26
:100F5000010E426409D0426A07D04204D8A41200AC
:100F6000270E416401D0416A42C05DF04150F3EF69
:100F700005F0D60EF66E120EF76E000EF86E090032
:100F8000F5CF79F001EE00F0900EEE6AE806FDE193
:100F900000EE80F04B0EEE6AE806FDE100EE01F097
:100FA0004F0EEE6AE806FDE17A907A92000EF86E36
:100FB00000011CEF08F0200ED76E8A0ED66EF29458
:100FC000314A322A300E315C750E3258D8A01200E8
:100FD0004F6A180E4F6401D00DD079EC08F0DE0492
:100FE00007E14F500DEC09F03150DE5E3250DD5A12
:100FF0004F2AEFD7316A326A12009586958495821E
:1010000095808C988C8A2F5005EC09F08C8C8C8CF8
:10101000000E83B6010E5C6E8C9C8C9C8C8C8C8C30
:101020008C9C8C9C2F5080EC08F05550561001E0A1
:1010300012005C50EBE1120054EC08F0B7EC08F041
:10104000E8EC08F0100E616E020ED4EC04F037EC00
:1010500009F05CEC09F0BDEC06F098EC05F0E3EC6F
:1010600003F06BEC01F037EC05F0CBEC02F0F5D7B8
:10107000576E95969594959295908C888C9A8C8CB9
:1010800057502CEC07F00BD85750F9EC06F000D075
:101090008C8C8C9C958695849582958012008C8C86
:1010A0008C9C8C9C8C8C1200D09EF28EF28CF28ADE
:1010B000F294080ED56ED80ED76EF00ED66ED58E81
:1010C0004F6A180E4F6401D0180C79EC08F0DF6AF3
:1010D0004F2AF7D74F6A05D04F2A190E4F1801E152
:1010E000FF0C07D8DE04F8E004D8010EDF6E4F5085
:1010F00012004F50030DF350820FD96EDA6A1200BE
:10110000596E31C05AF032C05BF059500DEC09F005
:10111000DECF57F0DDCF58F057505A5C556E58501F
:101120005B58566E1200566E560408E14A6A486AC9
:10113000476A020E456E4C5005EF09F05650D8A490
:10114000120000D0040E456E040C010E376E366A94
:1011500020EE65F010EE01F0110EDBCFE3FFE806A4
:10116000FCE2020E346E5D6A0A0EF3EF05F0928027
:101170009282030EC26E0C0EC16E440EC06E94902D
:1011800094929494396AC282C294C286386A1200D8
:10119000050E376E356A366A20EE55F010EE01F016
:1011A000110EDBCFE3FFE806FCE2020E346E020C08
:1011B0005C5005EC09F05C5080EC08F05E50555C2A
:1011C0005650800A606E5F50800A6058F4E3120047
:1011D000F19E93809382938493969398939A939C91
:1011E0006AEC08F04D6E6AEC08F04C6E1200576E17
:1011F0009596B1EC06F057502CEC07F04FEC08F048
:101200005750F9EC06F048EF08F0556E555005D8E8
:1012100031C0DEFF32C0DDFF1200030DF350800F3E
:10122000D96EDA6A12004BEC09F0556E4E50030D80
:10123000F350230F5524566E56C0F6FF73EF07F098
:10124000556A495007E0450403E0040E451802E1E1
:10125000010E556E55501200FDEC07F0010EF7EC33
:1012600008F031EC05F0030E5E6ED8EF08F0948EB6
:10127000948CAC84AC8AAC98AB8EAB88B896AF68D3
:101280001200FDEC07F00E0EF7EF08F0FDEC07F092
:101290000C0EF7EF08F081A0000C81A2010C020CEB
:1012A00013EC09F05FEF07F03750D8B4010C000CD5
:1012B000556E55C0ADFF12006AEC08F0406E12008A
:1012C000ACB2010C000C47501200395012003C50D7
:0712D000120034501200016E
:020000040020DA
:08000000FFFFFFFFFFFFFFFF00
:020000040030CA
:0E000000FF06191EFF0181FF03C003E003404D
:00000001FF
