:020000040000FA
:0400000019EF00F004
:100008007282D9CF47F0DACF48F0F3CF49F0F4CF76
:100018004AF0F3EC09F04AC0F4FF49C0F3FF48C0C6
:10002800DAFF47C0D9FF72921100CBEF09F03FD237
:10003800000E5C6E94EC04F0020E3518D8A4120081
:10004800ABEC0BF0000EF2EC0AF0020E716E020C33
:1000580072EC0BF00009D8B41200A0EC0AF0D00F33
:10006800326E320404E0020E3218D8A412007EEC7C
:100078000BF0000E536ACBEC07F0010EF2EC0AF01D
:10008800356A346A030E716E030C000E5C6E010E45
:1000980094EC04F0020E3518D8A41200356A050E47
:1000A800346E68DACBEC07F0A6EC0BF0040E716E38
:1000B800040C0B0E34640AD03650DFEC0AF04CBE48
:1000C80005D04DDA03E3050E716E050C72EC0BF0EA
:1000D8000009D8B41200365064EC0BF0D5EC0BF0E4
:1000E800020A04E147DACBEC07F03406A0EC0AF088
:1000F800230AE9E02ADAB5EC0BF0DF6E26DADF50E6
:10010800A1EC09F0342A120020DADF6A010E356EFC
:10011800050E346E010EF2EC0AF02CDACBEC07F087
:10012800060E716E060C72EC0BF00009D8B41200C2
:10013800D5EC0BF0020A04E11DDACBEC07F034062B
:10014800A0EC0AF0230A09E005DAB5EC0BF0DF6E43
:1001580001DADF50A1EC09F0D5D7FCD9DF6A070E28
:10016800716E070C32040CE120EECBF000EE5BF070
:10017800110EDBCFEBFFE806FCE204EC0BF00BD032
:1001880020EECBF000EE4BF0110EDBCFEBFFE806D4
:10019800FCE227EC0BF0080E716E080CBDEC0BF0BE
:1001A8000009D8B41200320412E1000EF2EC0AF091
:1001B800DDEC0BF0000904E1090E716E326A1BD008
:1001C800DDEC0BF0E80617E1010E716E14D0DDECE2
:1001D8000BF0030A08E1010EF2EC0AF0030E716E4F
:1001E800010E326E08D0DDEC0BF0040A04E1000EBB
:1001F800F2EC0AF0E9D77EEC0BF0000E536ACBEC78
:1002080007F0356A346A120032C05CF0020E94ECD2
:1002180004F0020E35180FE0325035C06DF06E6AEA
:100228006D26000E6E226EBE000C6E5004E1040EA8
:100238006D5CD8A01200ABEC0BF00A0E716E0A0CC4
:10024800D9EC0BF00009D8A412000B0E99D0365047
:1002580064EF0BF03650DFEC0AF04CBE16D0580EA7
:100268004B5C020E4C5811E3332A560EF66E1F0EE5
:10027800F76E0800F5CF4BF03350CCEC0AF0336E34
:10028800090E716E7EEC0BF0BCD7D9EC0BF00009AF
:1002980011E0DBEC0BF0530A05E1040E326002D0EA
:1002A800322AEED7DBEC0BF0570AEAE13250E8E0ED
:1002B8003206E6D772EC0BF00009D8B41200A0ECB5
:1002C8000AF0230AD8A41200325004E1326A0C0E54
:1002D800716E0C0C3228140DF3CF71F01200D0ECB3
:1002E8000BF00009D8B412003FD9C1EC0BF03CD98F
:1002F80003E10D0E716E0D0C322A1200CDEC0BF0DD
:100308000009D8B41200D7EC0BF0326E4B0E32183D
:10031800D8A412000E0E716E010EB9EC0BF0B2D714
:10032800000E5C6E030E94EC04F03504D8A41200A1
:10033800ABEC0BF0A1EC0BF00F0E716E0F0C72EC26
:100348000BF0000914E0A0EC0AF0326E2A0E321805
:1003580003E0230E321808E12A0E3218D8A412003E
:10036800110E716ED3EF0BF0100E716E100CCDECF8
:100378000BF00009D8B41200D7EC0BF01ED0140E05
:10038800716E65D7D0EC0BF00009D8B4120032506A
:10039800C1EC0BF0D1D7D0EC0BF00009D8B41200A7
:1003A800460EC1EC0BF0120E716E120CCDEC0BF078
:1003B8000009D8B41200D7EC0BF0316EE0D7000E6C
:1003C8005C6E040E94EC04F0020E3518D8A41200EA
:1003D800140E716E140C3650DFEC0AF04CBE0ED0C1
:1003E800100E4B5C0E0E4C5809E3160E716E7EEC27
:1003F8000BF05AD0000E536ACBEF07F0CDEC0BF0A0
:100408000009D8B41200D7EC0BF0326E150E716EDD
:10041800150CCDEC0BF00009D8B41200D7EC0BF09A
:10042800336E130E716E7EEC0BF03ED0000E5C6ED8
:10043800050E94EC04F0020E3518D8A41200010E33
:10044800536E070ECBEC07F00A0E4B6E315070EC72
:100458000AF0300FA1EC09F00A0E4B6E3150CCECCB
:100468000AF0300FA1EC09F09BEC0BF0170E716E3F
:10047800170C72EC0BF00009D8B41200A0EC0AF0CB
:10048800230AD8A41200315093EC0BF0180E716EA9
:10049800180CBDEC0BF00009D8B41200090E716EEF
:1004A8007EEC0BF0336A326A356A346AA3D771502E
:1004B8006D6E6E6A6E50D8A412006D50010A01E18B
:1004C800B7D5030A01E1C4D5010A01E1DED5070A5F
:1004D80001E1EFD5010A01E117D6030A01E123D6AC
:1004E800010A01E13FD60F0A01E158D6010A01E1EC
:1004F8008BD6030A01E1A4D6010A01E1ABD6070AAB
:1005080001E1EDD6010A01E1F9D6030A01E108D7B4
:10051800010A01E114D71F0A01E134D7010A01E1F8
:100528003AD7030A01E142D7010A01E148D7070A8D
:1005380001E151D7010A01E16CD7030A01E176D73D
:10054800010A97E00F0AA5E012003450C70FD96ED0
:10055800DA6A12003450D00FD96EDA6A1200B00E7F
:100568004B5C040E4C5812003250CB0FD96EDA6A2D
:10057800DF50120035C053F0345012003AD1020E49
:10058800276E080E291803E0020E2A6E020C010ECF
:10059800276E2A6A1200285084D976D90DE19ED98F
:1005A80009E1030E2A6E010E536E0A0ECBEC07F01A
:1005B800286A1200282A1200040E2A6E040C9AD9FE
:1005C8002950120D000E5C6E010E5D6E090E5C2640
:1005D800000E5D2259D9F0E18DD9DF50EBE12A6A8E
:1005E800276A1200286A292A010E2A6E010C080EB1
:1005F800291803E0060E2A6E060C0A0E2A6E0A0C4B
:1006080028504FD941D906E169D9D4E12A6A040EA4
:10061800276E040C070E2A6E070C286A292A050E75
:100628002A6E050C265052EC08F058D9A86E2850AE
:10063800010FD96EDA6A63D944D9A69EA69CA6840E
:10064800F29E550EA76EAA0EA76EA682F28EA694EB
:100658000B0E2A6E0B0CA6B2120040D902E0282A13
:10066800CCD7286A0C0E2A6E0C0C26504CEC08F0DD
:1006780041D9DF50A86E3ED942D9090E5B26000E3B
:100688005C221FD9A69EA69CA684F29E550EA76E34
:10069800AA0EA76EA682F28EA6940D0E2A6E0D0CD7
:1006A800A6B2120027D9DF5002E0282ADBD7286A31
:1006B8000E0E2A6E0E0C050E281803E1120E2A6E75
:1006C80077D7285011D92650DE1801E073D70F0EBE
:1006D8002A6E70D72850EFD819D9900F1DD9A69E29
:1006E800A69CA684F29E550EA76EAA0EA76EA68299
:1006F800F28EA6940F0E2A6E0F0CA6B21200110EDF
:100708002A6E110C2850F0D801D9910F05D9A69E50
:10071800A69CA684F29E550EA76EAA0EA76EA68268
:10072800F28EA694B40E2A6EB40CA6B21200C0D7EC
:100738002628070B266E950EA96E26C0A8FFCFD7D0
:10074800A6B21200030E24D7050E281811E127506F
:10075800B2D82550DE5C01E31CD72750ACD825C0A1
:10076800DFFF2750C1D829C0DFFF150E2A6E150CF0
:100778002750A1D82850020DF350130FE16EE26AFA
:10078800DE50E65C01E316D728C027F013D72750C0
:10079800020DF350900FA96E25C0A8FFA69EA69C37
:1007A800A684F29E550EA76EAA0EA76EA682F28E9A
:1007B800A694160E2A6E160CA6B21200170E2A6EF2
:1007C800170C2750020DF350910FA96E29C0A8FFEE
:1007D800A69EA69CA684F29E550EA76EAA0EA76E8C
:1007E800A682F28EA694180E2A6E180CA6B21200D3
:1007F800D0D62A505B6E5C6A5C50D8A412005B505D
:10080800D8B41200010A01E1BAD6030A01E1C3D63D
:10081800010A01E1D4D6070A01E1E4D6010A01E19F
:10082800E6D6030A01E1ECD6010A01E1F6D60D0A83
:1008380001E1F8D6010A01E10ED7070A01E115D74F
:10084800010A01E12DD7030A01E135D7010A01E1C7
:1008580041D71F0A01E151D7010A01E153D7030A21
:1008680001E166D7010A01E16BD7070A01E16CD7FC
:10087800010A8DE0030AA0E0010AA3E00F0AB6E02E
:10088800AC0A01E152D71200F3505C26F4505D2205
:1008980028505C24E16E000E5D20E26EDE50E61802
:1008A8001200010FD96EDA6A2950120D000E5C6E23
:1008B800010E5D6E1200020DF350130FD96EDA6A45
:1008C8001200F3505B26F4505C2228505B24E16E42
:1008D800000E5C20E26EDFCFE7FF12002850010F08
:1008E800D96EDA6ADF501200020DF350140FD96E78
:1008F800DA6A120028500A0FD96EDA6A12002650F6
:10090800120D000E5B6E010E5C6E1200F00EDF6EB3
:100918002850020DF3501200A96EF00EA86EF00CCC
:10092800616E61500EE1CBD89ED806E0C8D89BD83E
:10093800A1EC09F0342A1200DAD8CBEC07F0346ABB
:10094800120061040CE1C2D88ED805E0BFD88BD85C
:10095800A1EC09F0EFD7CBD8CBEC07F0F0D7020E1B
:1009680061184DE15C5035C05DF05E6A5D26000E91
:100978005E225EBE06D05E5003E1040E5D5CD8B018
:100988001200ABD887D8100E0800F5642AD034605E
:1009980024D0345033244B6E4C6A4C369ED87AD8C7
:1009A8000800F5504D6E4E6A07EC09F035501C0DE5
:1009B800580E5F6E1F0E606EB0D85C501C0DADD81F
:1009C8004B505F264C5060225FC0F6FF60C0F7FFB7
:1009D8000800F550A1EC09F0ADD789D8CBEC07F0A9
:1009E800AED760D84FD83FD806E05CD84BD83BD8B4
:1009F800A1EC09F09FD77BD8CBEC07F0A0D7030E6A
:100A080061180AE181D804E07FD8A1EC09F092D7F7
:100A18006ED8CBEC07F093D7040E611814E135506B
:100A28000AE169D804E067D8A1EC09F083D75FD858
:100A3800CBEC07F084D73250A1EC09F03350A1EC8D
:100A480009F0352A1200050E6118D8A4120030D812
:100A58000AD805E02DD807D8A1EC09F06BD747D8FC
:100A6800CBEC07F06CD7F3505D26F4505E2234507F
:100A78005D26000E5E225DC0F6FF5EC0F7FF08002F
:100A8800F55012005E6EF3505D26F4505E225C5005
:100A98001C0D12005D26000E5E225DC0F6FF5EC0D2
:100AA800F7FF000C35501C0D580E5D6E1F0E12001E
:100AB80035500B0DF70E5D6E1E0E5E6E1200355032
:100AC8000B0D0D0E5D6E1F0E5E6E12003550060D7D
:100AD800330E5D6E1F0E5E6E1200540E5D6E1F0E9D
:100AE8005E6E35505D26000E5E225C501200352A7F
:100AF800010E536E000C4B0E3424F66EF76A1F0E6F
:100B0800F7220800F5501200230E3424F66EF76A17
:100B18001F0EF7220800F5501200F3505F26F4501C
:100B2800602212006DD02450DFEC0AF04CBE120097
:100B3800B3EC02F0D8A01200245064EC0BF0020EC3
:100B4800236E010E536E000ECBEC07F01E5015E11C
:100B5800090E1E6E1D500FE1050E1D6E705009E145
:100B6800090E706E6F5003E10A0E236E0A0C6F06B1
:100B78001200700612001D0612001E0612006F50A9
:100B8800300FA1EC09F0030E236E030C7050300FE8
:100B9800A1EC09F0040E236E040C3A0EA1EC09F046
:100BA800050E236E050C1D50300FA1EC09F0060E42
:100BB800236E060C1E50300FA1EC09F0010E236EB7
:100BC800010C6F50300FA1EC09F0080E236E080CD1
:100BD8007050300FA1EC09F0090E236E090C3A0E83
:100BE800A1EC09F0C1D71D50300FA1EC09F00B0E94
:100BF800236E0B0C1E50300FA1EC09F0236A120073
:100C080023505C6E5D6A5D50D8A412005C50D8B465
:100C18001200010A88E0030AB2E0010AB7E0070AF5
:100C2800BCE0010AC0E0030AC5E0010ACAE00F0AF5
:100C3800CFE0010AD4E0030AD6E0010ADBE01200A3
:100C480070D081B081A20AD081A408D08A968A88FF
:100C58008A8A8A8C010E3C6E446A1200040E3C6E2D
:100C6800040C81B081A2FAD781A4F8D78A868A9821
:100C78008A8A8A8C020E3C6E010E446E010C81B089
:100C880081A2ECD781A4EAD78A868A888A9A8A8C34
:100C9800030E3C6E020E446E020C81B081A2DED7B8
:100CA80081A4DCD78A868A888A8A8A9C030E446E45
:100CB8003C6A1200050E3C6E435064EF0BF0435043
:100CC800DFEC0AF04CBE12004C5004E1190E4B5CEC
:100CD800D8A0120081B081A202D081B4E9D7010E58
:100CE8003F6E36D081B081A2120081A41200435019
:100CF80064EC0BF0070E3C6E070C4350DFEC0AF077
:100D08004CBE12004C5004E1190E4B5CD8A01200E6
:100D180081B081A21DD081A41BD03F6A3C6A120019
:100D280017D03C50526E536A5350D8A412005250F8
:100D380088E0010A96E0030AA2E0010AAEE0070A89
:100D4800B9E0010ABCE0030ACDE0010AD6E01200CE
:100D5800060E3C6E060C586EB6EC0AF01F6E206A42
:100D680058C03AF057C039F0376A386A959C959A56
:100D78009598596A5A6A4CD8640E546E37EC0BF041
:100D8800030E57EC08F044D8050E546E37EC0BF000
:100D9800030E57EC08F03CD8010E546E37EC0BF0FC
:100DA800030E57EC08F034D8010E546E37EC0BF0F4
:100DB800020E57EC08F02CD8010E546E37EC0BF0ED
:100DC800280E56EC0BF035EC0AF0080E56EC0BF03A
:100DD80035EC0AF0010E56EC0BF01AD8030E546EDF
:100DE80037EC0BF035EC0AF0060E56EC0BF035EC50
:100DF8000AF00F0E56EC0BF0594A5A2A5ABEBBD7C6
:100E08005A5005E1020E595CD8B01200B4D712004E
:100E18001FC052F020C053F0556A12002CC08BFF3F
:100E28004CD0C2B21200C4CF2EF0C284C296010EBA
:100E38002C6EC282010CC2B21200C4CF2FF0C29431
:100E4800C286020E2C6E020C040E2C6E2D500FE082
:100E5800630E2F64630C970E2F60970C630E2E643D
:100E6800630C970E2E60970C2D6A8B9012000B0E58
:100E78002F6008D0410E306E010E2D6E2B50040FDE
:100E88002C6E1200EF0E2F6402D0440EF4D70B0E16
:100E98002E6002D0530EEFD7EF0E2E64EF0C570ED4
:100EA800EAD71BD0D0EC0BF00009D8B412003050B0
:100EB800C1EC0BF012D02C6A12002C504C6E4D6A0B
:100EC8004D50F9E14C50ADE0010AB5E0030ABCE031
:100ED800060A03E0010AE6E0EED72C6AC282120095
:100EE80043D03F5021E0010E3B6EA0EC0AF0416E6A
:100EF800020E3D6E4250DFEC0AF04CBE08D0B3EC57
:100F080002F005E3010E3D6E3E6A406A0AD03E508B
:100F180008E04150401805E0010E3D6E41C040F028
:100F28003E6A425064EF0BF041C040F012003E2A86
:100F3800020E3B6E020C3F50D8A41200425064ECE3
:100F48000BF03B6A12003F50D8B4120001EF0BF0CF
:100F5800050E3B6E050C3F50D8A41200425064ECBD
:100F68000BF0030E3B6E030C3B50526E536A53500A
:100F7800D8A412005250B5E0010AD9E0030ADBE018
:100F8800010AE1E0070AE4E0010AE5E012005A6E0E
:100F980030D0535004E0576A400E566E02D0566A5D
:100FA800576A5A505624586E000E5720596E2ED044
:100FB8005AC058F0596A530402E1400E04D0020E98
:100FC800531804E139505826000E0DD0030E53185B
:100FD8001DE13950546E556A400E5426000E5522B4
:100FE800545058265550592211D05AC058F0596AB1
:100FF8000DD03A50546E556A5550F7E15450010AD5
:10100800F4E0030AC6E0060AD3E0EFD735EC0AF0AD
:101018005850800956EC0BF053C038F05AC037F0DE
:101028001200286A080E286401D00AD0A69EA69C41
:10103800295034D8A680A6B0FED723D814D8F2D722
:10104800286A080E286401D0080CA69EA69C295080
:101058001FD8A680A6B0FED714D8090E4B26000EBE
:101068004C2201D8EED7F3504B26F4504C2228508E
:101078004B24D96E000E4C20DA6EA8CFDFFF282A49
:1010880012002950120D000E4B6E010E4C6E12000C
:10109800180DF3502824090FA96E1200180DF350EB
:1010A8002824A96E12004C6E95962FD88C8C4CA6CD
:1010B80003D04B6A4B2A01D04B6A4B462DD8F70B0D
:1010C8004B188C6E4CA403D04B6A4B2A01D04B6A48
:1010D80023D8FB0B4B188C6E4CA203D04B6A4B2ABF
:1010E80001D04B6A4B468C504B18FD0B4B188C6E3D
:1010F8004CA003D04B6A4B2A01D04B6A8C504B183A
:10110800FE0B4B188C6E8C9C1200959495929590C2
:101118008C988C9A8C8C12004B464B468C504B18F2
:1011280012004F6E2DD803E1020E4D5C0AE328D859
:1011380008E10A0E4D5C05E206D805E1010E3E6E97
:1011480002D04F501200D90E4B6EFE0E4C6E4F500F
:10115800060DC80E4D6E1F0E4E6EF3504D26F45000
:101168004E223E504D26000E4E224B504D264C50DE
:101178004E224DC0F6FF4EC0F7FF0800F550120092
:10118800D00E4B6E4C684F504D6E4E6A4B504D26EC
:101198004C504E224E5012002A6A296A070E2964C2
:1011A80001D004D015EC08F0292AF8D7286A090ECE
:1011B800286401D01BD0A69EA69C2850900FA96E2B
:1011C800A68028505FEC04F0A8CFDFFFA69EA69C5F
:1011D8002850910FA96EA680A6B0FED7285078ECAB
:1011E80004F0A8CFDFFF020E2826E1D7A69EA69C12
:1011F800950EA96EA680A6B0FED7A8CF26F0262801
:10120800D8B4266A1200506A4CAE06D04B6C4C1EFD
:10121800D8B04C2A010E506E4EAE04D04D6C4E1E06
:10122800D8B04E2A4D504E1017E0010E4F6E04D024
:10123800D8904D364E364F2A4EAEFAD74D504B5CAD
:101248004E504C5804E34D504B5E4E504C5AD8907B
:101258004E324D324F2EF2D7505004E04B6C4C1E9C
:10126800D8B04C2A4BC04BF04CC04CF012004C6E1E
:101278004CA603D04B6A4B2A01D04B6A4B4625D863
:10128800F70B4B188C6E4CA403D04B6A4B2A01D039
:101298004B6A1BD8FB0B4B188C6E4CA203D04B6AC5
:1012A8004B2A01D04B6A4B468C504B18FD0B4B1800
:1012B8008C6E4CA003D04B6A4B2A01D04B6A8C50E1
:1012C8004B18FE0B4B188C6E12004B464B468C503D
:1012D8004B1812004C6E4CAE03D04B6A4B2A01D00F
:1012E8004B6A4B4625D8F70B4B188C6E4CAC03D089
:1012F8004B6A4B2A01D04B6A1BD8FB0B4B188C6EE0
:101308004CAA03D04B6A4B2A01D04B6A4B468C50EF
:101318004B18FD0B4B188C6E4CA803D04B6A4B2A0C
:1013280001D04B6A8C504B18FE0B4B188C6E120078
:101338004B464B468C504B1812005B6E35EC0AF04E
:101348005B5054EC0AF0372A030E3A1807E1130EE3
:101358003764130C376A382A030E09D0020E3A187C
:101368000AE1270E3764270C376A382A010E3864D9
:1013780009D0386A07D03804D8A41200270E376479
:1013880001D0376A38C053F03750CBEF07F0BE0EA4
:10139800F66E170EF76E000EF86E0900F5CF6FF0B7
:1013A8000900F5CF70F00900F5CF71F001EE00F0FB
:1013B800900EEE6AE806FDE100EE80F05D0EEE6A42
:1013C800E806FDE100EE01F0450EEE6AE806FDE1F3
:1013D80072907292000EF86E000115EF0AF0200E5E
:1013E800D76E8A0ED66EF294214A222A300E215CDC
:1013F800750E2258D8A01200456A180E456401D00F
:101408000DD0C5EC0AF0DE0407E145506CEC0BF09A
:101418002150DE5E2250DD5A452AEFD7216A226A22
:1014280012008AEC0AF016EC0BF047EC0BF0100EE9
:10143800576E020EAFEC06F089EC0BF0C9EC0BF01E
:10144800C5EC0BF0D0EC08F074EC07F024EC06F0D7
:101458001BEC00F012EC07F0C2EC02F096EC05F081
:10146800F3D795869584958295808C988C8A1F50A1
:1014780064EC0BF08C8C8C8C000E83B6010E526ED3
:101488008C9C8C9C8C8C8C8C8C9C8C9C1F50DFEC4A
:101498000AF04B504C1001E012005250EBE11200E0
:1014A8004D6E95969594959295908C888C9A8C8C87
:1014B8004D506EEC09F00BD84D503BEC09F000D0C4
:1014C8008C8C8C9C958695849582958012008C8C4A
:1014D8008C9C8C9C8C8C12004C6E4E6A4B5014E089
:1014E800010E4D6E03D0D8904B364D2A4BAEFBD72C
:1014F800D8904E364B504C5C03E34B504C5E4E80BC
:10150800D8904B324D2EF4D74E501200D09EF28E0A
:10151800F28CF28AF294080ED56ED80ED76EF00EC1
:10152800D66ED58E456A180E456401D0180CC5ECE8
:101538000AF0DF6A452AF7D74450030D3F0E4B6E79
:101548001F0E4C6EF3504B26F4504C22B0EC0BF0AF
:101558004B26000E4C224BC0F6FF4CC0F7FF08008C
:10156800F5501200456A05D0452A190E451801E1C3
:10157800FF0C07D8DE04F8E004D8010EDF6E4550F2
:1015880012004550030DF350820FD96EDA6A12002B
:101598004C6E080E4D6E4E6AD8904C344E344E6EDA
:1015A800D8904C364B504E5C02E34B504E5E4D2E5D
:1015B800F3D74E5012004F6E21C050F022C051F0A8
:1015C8004F506CEC0BF0DECF4DF0DDCF4EF04D50B0
:1015D800505C4B6E4E5051584C6E12004C6E4C0481
:1015E80008E1406A3E6A3D6A020E3B6E425064EF73
:1015F8000BF04C50D8A4120000D0040E3B6E040C23
:10160800010E2A6E296A20EE5BF010EE01F0110E31
:10161800DBCFE3FFE806FCE2020E276E536A0A0EF0
:10162800CBEF07F092809282030EC26E0C0EC16E51
:10163800440EC06E9490949294942D6AC282C2947F
:10164800C2862C6A1200050E2A6E286A296A20EEC4
:101658004BF010EE01F0110EDBCFE3FFE806FCE2E1
:10166800020E276E020C525064EC0BF05250DFEC65
:101678000AF054504B5C4C50800A566E5550800A04
:101688005658F4E31200F19E9380938293849396C4
:101698009398939A939CB6EC0AF0436EB6EC0AF0D2
:1016A800426E12004D6E959689EC08F04D506EEC26
:1016B80009F06BEC0AF04D503BEC09F064EF0AF0CE
:1016C8004B6E4B5005D821C0DEFF22C0DDFF120053
:1016D800030DF350800FD96EDA6A12004B6A3F503F
:1016E80007E03B0403E0040E3B1802E1010E4B6ED9
:1016F8004B50120035EC0AF0010E56EC0BF00CECD6
:1017080007F0030E546E37EF0BF0948E948CAC8474
:10171800AC8AAC98AB8EAB88B896AF6812004B6EAB
:101728004BC025F0286A276A140E2A6E140C070E7F
:10173800236E536A0B0ECBEF07F0010E236E245075
:1017480064EF0BF035EC0AF00E0E56EF0BF035ECAB
:101758000AF00C0E56EF0BF081A0000C81A2010CD0
:10176800020CA0EC0AF095EF08F04B6E4BC02BF082
:1017780012002A50D8B4010C000C4B6E4BC0ADFFC0
:101788001200B6EC0AF0246E1200B6EC0AF0366EBF
:1017980012009EBA010C000CACB2010C000C236ABA
:1017A80012003D501200AE5012002D501200305061
:0917B80012002750120003000189
:101EF6000054494D45204C4546543A0053434F52F1
:101F0600453A0000000000312E4C4F47494E000074
:101F16000000322E52454749535445520054494D0C
:101F2600452052454D41494E494E473A2055534565
:101F3600523A00505357443A00313233343536372B
:101F460038392A30234552524F52533A20000E0E4A
:101F56001C09312E504C415920412047414D450026
:101F66000000000000000000000000000000322E0B
:101F76004D4F444946592054494D45000000000044
:101F860000000000000000000000332E53484F57A9
:101F96002047454E4552414C20544F502035205342
:101FA600434F52455320342E4C4F474F5554000053
:101FB600000000000000000000000000000000001B
:101FC6000000310000000000414243320000444559
:101FD600463300004748493400004A4B4C35000060
:101FE6004D4E4F3600005051525337005455563817
:091FF60000005758595A39000047
:020000040020DA
:08000000FFFFFFFFFFFFFFFF00
:020000040030CA
:0E000000FF06191EFF0181FF03C003E003404D
:00000001FF
